HHHHHHHHHHHHHHHHHH4301284320160731M T0000000000000000N                                                                                                                                                                                                                                                                                                                                                                                                                                                                                                                                                                                                                                                                                                                                                                          
100091423236000002011BGA210035CARRE—O RUIZ FERNANDO                        0201102012011113000400000000010106020110201022016083100000000000000000000                              11A 0000300000051310000000513100000000000000000051310000000059907010001000000000000002011113000000000COLEGIO LA SALLE. BUCARAMANGA BUCARAMANGA         00000000BUCARAMANGA         00000000                                                                                6599817     BUCARAMANGA         00000000                                                                                6599817     BUCARAMANGA         00000000                                                                                                                                            6599817     430128                                     
100091264194000002011BGA209199MANCILLA SUAREZ MAURICIO                     0201102012011113000400000000010106020110201022016083100000000000000000000                              11A 0000300000051000000000510000000000000000000051000000000045401010000000000000000002011113000000000COLEGIO LA SALLE. BUCARAMANGA BUCARAMANGA         00000000BUCARAMANGA         00000000                                                                                6485255     BUCARAMANGA         00000000                                                                                6485255     BUCARAMANGA         00000000                                                                                                                                            6485255     430128                                     
100091246612000002011BGA207224BUITRAGO BAUTISTA CARLOS ARTURO              0201104012011113000400000000010106020110401022016083100000000000000000000                              11A 0000300000046050000000460500000000000000000046050000000052686008000000000000000002011113000000000COLEGIO LA SALLE. BUCARAMANGA BUCARAMANGA         00000000BUCARAMANGA         00000000                    ACROPOLIS TORRE 1 APTO 905                                  6760613     BUCARAMANGA         00000000                    ACROPOLIS TORRE 1 APTO 905                                  6760613     BUCARAMANGA         00000000                    ACROPOLIS TORRE 1 APTO 905                                                                                              6760613     430128                                     
100091237228000002011BGA207206LOPEZ CELY PABLO JOSUê                       0201104012011113000400000000010109020110401022016083100000000000000000000                              11D 0002400000046050000000460500000000000000000046050000005077786008000008000000000002011113000000000COLEGIO LA SALLE. BUCARAMANGA BUCARAMANGA         00000000BUCARAMANGA         00000000                                                                                6432634     BUCARAMANGA         00000000                                                                                6432634     BUCARAMANGA         00000000                                                                                                                                            6432634     430128                                     
100091264194000002011BGA206017MANCILLA SUAREZ MAURICIO                     0201102012011113000400000000010106020110201022016083100000000000000000000                              11A 0000300000046050000000460500000000000000000046050000000039752010000000000000000002011113000000000COLEGIO LA SALLE. BUCARAMANGA BUCARAMANGA         00000000BUCARAMANGA         00000000                                                                                6485255     BUCARAMANGA         00000000                                                                                6485255     BUCARAMANGA         00000000                                                                                                                                            6485255     430128                                     
100017637396000002011BGA208231PERDOMO ARTUNDUAGA LUIS HERNAN               0201102012011113000400000000010106020110201022016083100000000000000000000                              11A 0000300000043300000000433000000000000000000043300000000003085010000000000000000002011113000000000COLEGIO LA SALLE. BUCARAMANGA BUCARAMANGA         00000000                    00000000                    CRA 9 # 5A-19                                                                               00000000                    CRA 9 # 5A-19                                                                               00000000                    CRA 9 # 5A-19                                                                                                                       430128                                     
100008720149000002011BGA205068DONADO RUIZ MARCO TULIO                      0201102012011113000400000000010109020110201022016083100000000000000000000                              11D 0003000000043300000000433000000000000000000043300000004771056010000010000000000002011113000000000COLEGIO LA SALLE. BUCARAMANGA BUCARAMANGA         00000000BUCARAMANGA         00000000                                                                                6340542     BUCARAMANGA         00000000                                                                                6340542     BUCARAMANGA         00000000                                                                                                                                            6340542     430128                                     
100005557128000002011BGA211157RUEDA ANAYA JORGE ENRIQUE                    0201102012011113000400000000010106020110201022016083100000000000000000000                              11A 0000300000043300000000433000000000000000000043300000000010514010002000000000000002011113000000000COLEGIO LA SALLE. BUCARAMANGA BUCARAMANGA         00000000BUCARAMANGA         00000000                    CALLE 104 E N¯ 8 B - 43                                                 BUCARAMANGA         00000000                    CALLE 104 E N¯ 8 B - 43                                                 BUCARAMANGA         00000000                    CALLE 104 E N¯ 8 B - 43                                                                                                             430128                                     
100013842404000002011BGA209056ALVAREZ OJEDA ALBERTO                        0201104012011113000400000000010109020110401022016083100000000000000000000                              11D 0002100000043300000000273000000000000000000043300000004616284008000008000000000002011113000000000COLEGIO LA SALLE. BUCARAMANGA BUCARAMANGA         00000000BUCARAMANGA         00000000                                                                                3143135838  BUCARAMANGA         00000000                                                                                3143135838  BUCARAMANGA         00000000                                                                                                                                            3143135838  430128                                     
100091204261000002011BGA202203MENDEZ JOSE ISRAEL                           0201102012011113000400000000010106020110201022016083100000000000000000000                              11A 0000300000043300000000433000000000000000000043300000000006365010000000000000000002011113000000000COLEGIO LA SALLE. BUCARAMANGA BUCARAMANGA         00000000BUCARAMANGA         00000000                                                                                6471925     BUCARAMANGA         00000000                                                                                6471925     BUCARAMANGA         00000000                                                                                                                                            6471925     430128                                     
100091237228000002011BGA204258LOPEZ CELY PABLO JOSUê                       0201104012011113000400000000010109020110401022016083100000000000000000000                              11D 0002400000043300000000433000000000000000000043300000004774553008000008000000000002011113000000000COLEGIO LA SALLE. BUCARAMANGA BUCARAMANGA         00000000BUCARAMANGA         00000000                                                                                6421828     BUCARAMANGA         00000000                                                                                6421828     BUCARAMANGA         00000000                                                                                                                                            6421828     430128                                     
100063512552000002012BGA210172CAMARGO MANTILLA NIDIA ELIZABETH             0201202012012113000400000000010107020120201022016083100000000000000000000                              11B 0000600000053880000000538800000000000000000053880000001475364010000003000000000002012113000000000COLEGIO LA SALLE. BUCARAMANGA BUCARAMANGA         00000000FLORIDABLANCA       00000000                    CIRCUNV. 36A # 104-25 APTO 201                              3175047438  FLORIDABLANCA       00000000                    CIRCUNV. 36A # 104-25 APTO 201                              3175047438  FLORIDABLANCA       00000000                    CIRCUNV. 36A # 104-25 APTO 201                                                                                          3175047438  430128                                     
100037932080000002012BGA211157TORRES RINCON LUCILA                         0201202012012113000400000000010109020120201022016083100000000000000000000                              11D 0001800000048580000000485800000000000000000048580000003250406010000006000000000002012113000000000COLEGIO LA SALLE. BUCARAMANGA BUCARAMANGA         00000000BUCARAMANGA         00000000                    DIAGONAL 105 # 104E-247                                     3175890913  BUCARAMANGA         00000000                    DIAGONAL 105 # 104E-247                                     3175890913  BUCARAMANGA         00000000                    DIAGONAL 105 # 104E-247                                                                                                 3175890913  430128                                     
1000055571280002012BGA211157C1RUEDA ANAYA JORGE ENRIQUE                    0201202012012113001400000000010109020120201022016083100000000000000000000                              11D 0001800000048580000000485800000000000000000048580000003250406010000006000000000002012113000000000COLEGIO LA SALLE. BUCARAMANGA BUCARAMANGA         00000000BUCARAMANGA         00000000                    DIAGONAL 105 # 104E-247                                                 BUCARAMANGA         00000000                    DIAGONAL 105 # 104E-247                                                 BUCARAMANGA         00000000                    DIAGONAL 105 # 104E-247                                                                                                             430128                                     
100052098631000002013BGA213141JIMENEZ VARGAS MONICA INES                   0201302012013113000400000000010109020130201022016083100000000000000000000                              11C 0001200000049990000000499900000000000000000049990000002201303010002004000000000002013113000000000COLEGIO LA SALLE. BUCARAMANGA BUCARAMANGA         00000000BUCARAMANGA         00000000                    CALLE 103 # 12A-03                                          6374853     BUCARAMANGA         00000000                    CALLE 103 # 12A-03                                          6374853     BUCARAMANGA         00000000                    CALLE 103 # 12A-03                                                                                                      6374853     430128                                     
100091493592000002013BGA213055ROJAS GRECCO JUAN CARLOS                     0201302012013113000400000000010109020130201022016083100000000000000000000                              11D 0002100000056290000000562900000000000000000056290000004220849010002007000000000002013113000000000COLEGIO LA SALLE. BUCARAMANGA BUCARAMANGA         00000000BUCARAMANGA         00000000                    CARRERA 35 # 35-23 APTO 402                                 3188275812  BUCARAMANGA         00000000                    CARRERA 35 # 35-23 APTO 402                                 3188275812  BUCARAMANGA         00000000                    CARRERA 35 # 35-23 APTO 402                                                                                             3188275812  430128                                     
1000376523040002013BGA213055C1PATI—O PATI—O NINI JOHANA                    0201302012013113001400000000010109020130201022016083100000000000000000000                              11D 0002100000056290000000562900000000000000000056290000004220849010002007000000000002013113000000000COLEGIO LA SALLE. BUCARAMANGA BUCARAMANGA         00000000BUCARAMANGA         00000000                    CARRERA 35 # 35-23 APTO 402                                 3138081424  BUCARAMANGA         00000000                    CARRERA 35 # 35-23 APTO 402                                 3138081424  BUCARAMANGA         00000000                    CARRERA 35 # 35-23 APTO 402                                                                                             3138081424  430128                                     
100013841682000002013BGA212102BOTERO BOTERO CAMILO AUGUSTO                 0201302012013113000400000000010108020130201022016083100000000000000000000                              11C 0000900000056290000000562900000000000000000056290000002487159010000004000000000002013113000000000COLEGIO LA SALLE. BUCARAMANGA BUCARAMANGA         00000000BUCARAMANGA         00000000                    CRA 33 #41-14                                               6531312     BUCARAMANGA         00000000                    CRA 33 #41-14                                               6531312     BUCARAMANGA         00000000                    CRA 33 #41-14                                                                                                           6531312     430128                                     
1000602559430002013BGA212102C1BOADA RIVERA SARA                            0201302012013113001400000000010108020130201022016083100000000000000000000                              11C 0000900000056290000000562900000000000000000056290000002487159010000004000000000002013113000000000COLEGIO LA SALLE. BUCARAMANGA BUCARAMANGA         00000000BUCARAMANGA         00000000                    CARRERA 33 # 41-14                                          6993278     BUCARAMANGA         00000000                    CARRERA 33 # 41-14                                          6993278     BUCARAMANGA         00000000                    CARRERA 33 # 41-14                                                                                                      6993278     430128                                     
100063516707000002013BGA211211CUADROS LEON LYDA MARCELA                    0201302012013113000400000000010106020130201022016083100000000000000000000                              11A 0000300000056030000000560300000000000000000056030000000565903010006001000000000002013113000000000COLEGIO LA SALLE. BUCARAMANGA BUCARAMANGA         00000000BUCARAMANGA         00000000                    CRA 13 # 65 - 32 BARRIO LA VIC                              6339015     BUCARAMANGA         00000000                    CRA 13 # 65 - 32 BARRIO LA VIC                              6339015     BUCARAMANGA         00000000                    CRA 13 # 65 - 32 BARRIO LA VIC                                                                                          6339015     430128                                     
100010057116000002013BGA213150VILA CASADO RAUL OMAR                        0201302012013113000400000000010106020130201022016083100000000000000000000                              11A 0000300000056030000000560300000000000000000000000000000612073010005002000000000002013113000000000COLEGIO LA SALLE. BUCARAMANGA BUCARAMANGA         00000000                    00000000                    CRA. 27 CALLE 9                                             6906663                         00000000                    CRA. 27 CALLE 9                                             6906663                         00000000                    CRA. 27 CALLE 9                                                                                                         6906663     430128                                     
1000379412200002013BGA213150C1PEREZ ANGARITA GLORIA MARTHA                 0201302012013113001400000000010106020130201022016083100000000000000000000                              11A 0000300000056030000000560300000000000000000000000000000612073010005002000000000002013113000000000COLEGIO LA SALLE. BUCARAMANGA BUCARAMANGA         00000000                    00000000                                                                                6906663                         00000000                                                                                6906663                         00000000                                                                                                                                            6906663     430128                                     
100063329091000002013BGA213160MONROY CASTELLANOS ADRIANA                   0201305012013113000400000000010106020130501022016083100000000000000000000                              11A 0000300000047505000000475050000000000000000047505000000479801007002001000000000002013113000000000COLEGIO LA SALLE. BUCARAMANGA BUCARAMANGA         00000000BUCARAMANGA         00000000                    CARRERA 41 # 41-48                                          6963364     BUCARAMANGA         00000000                    CARRERA 41 # 41-48                                          6963364     BUCARAMANGA         00000000                    CARRERA 41 # 41-48                                                                                                      6963364     430128                                     
100079520465000002013BGA213155RODRIGUEZ REYES CARLOS ARIEL                 0201302012013113000400000000010109020130201022016083100000000000000000000                              11C 0001200000047505000000475050000000000000000047505000002283137010000005000000000002013113000000000COLEGIO LA SALLE. BUCARAMANGA BUCARAMANGA         00000000BUCARAMANGA         00000000                                                                                6043953     BUCARAMANGA         00000000                                                                                6043953     BUCARAMANGA         00000000                                                                                                                                            6043953     430128                                     
100013871255000002014BGA213002RANGEL GOMEZ JESUS DARIO                     0201402012014113000400000000010109020140201022016083100000000000000000000                              11D 0002400000058540000000585400000000000000000000000000003333854010001008000000000002014113000000000COLEGIO LA SALLE. BUCARAMANGA BUCARAMANGA         00000000BUCARAMANGA         00000000                    CALLE 200 NO. 14-50                                         6900955     BUCARAMANGA         00000000                    CALLE 200 NO. 14-50                                         6900955     BUCARAMANGA         00000000                    CALLE 200 NO. 14-50                                                                                                     6900955     430128                                     
1000378628560002014BGA213002C1MENDOZA VALENCIA TATIANA MARCERLA            0201402012014113001400000000010109020140201022016083100000000000000000000                              11D 0002400000058540000000585400000000000000000000000000003333854010001008000000000002014113000000000COLEGIO LA SALLE. BUCARAMANGA BUCARAMANGA         00000000BUCARAMANGA         00000000                    CALLE 200 NO. 14-50                                         6900955     BUCARAMANGA         00000000                    CALLE 200 NO. 14-50                                         6900955     BUCARAMANGA         00000000                    CALLE 200 NO. 14-50                                                                                                     6900955     430128                                     
100091493592000002014BGA213055ROJAS GRECCO JUAN CARLOS                     0201402012014113000400000000010109020140201022016083100000000000000000000                              11D 0002400000058540000000585400000000000000000058540000005081857010002008000000000002014113000000000COLEGIO LA SALLE. BUCARAMANGA BUCARAMANGA         00000000BUCARAMANGA         00000000                    CARRERA 35 # 35-23 APTO 402                                 3188275812  BUCARAMANGA         00000000                    CARRERA 35 # 35-23 APTO 402                                 3188275812  BUCARAMANGA         00000000                    CARRERA 35 # 35-23 APTO 402                                                                                             3188275812  430128                                     
1000376523040002014BGA213055C1PATI—O PATI—O NINI JOHANA                    0201402012014113001400000000010109020140201022016083100000000000000000000                              11D 0002400000058540000000585400000000000000000058540000005081857010002008000000000002014113000000000COLEGIO LA SALLE. BUCARAMANGA BUCARAMANGA         00000000BUCARAMANGA         00000000                    CARRERA 35 # 35-23 APTO 402                                 3138081424  BUCARAMANGA         00000000                    CARRERA 35 # 35-23 APTO 402                                 3138081424  BUCARAMANGA         00000000                    CARRERA 35 # 35-23 APTO 402                                                                                             3138081424  430128                                     
100063463734000002014BGA210090SOSA PEDROZA ESTHER                          0201402012014113000400000000010109020140201022016083100000000000000000000                              11D 0003000000058540000000585400000000000000000058540000006478914010000010000000000002014113000000000COLEGIO LA SALLE. BUCARAMANGA BUCARAMANGA         00000000FLORIDABLANCA       00000000                    CALLE 35C # 22C-40                                          6392622     FLORIDABLANCA       00000000                    CALLE 35C # 22C-40                                          6392622     FLORIDABLANCA       00000000                    CALLE 35C # 22C-40                                                                                                      6392622     430128                                     
1000138332070002014BGA210090C1RUIZ DIAZ RICARDO                            0201402012014113001400000000010109020140201022016083100000000000000000000                              11D 0003000000058540000000585400000000000000000058540000006478914010000010000000000002014113000000000COLEGIO LA SALLE. BUCARAMANGA BUCARAMANGA         00000000FLORIDABLANCA       00000000                                                                                            FLORIDABLANCA       00000000                                                                                            FLORIDABLANCA       00000000                                                                                                                                                        430128                                     
100079239584000002014BGA208030RODRIGUEZ RUBEN DARIO                        0201402012014113000400000000010109020140201022016083100000000000000000000                              11D 0003000000052545000000525450000000000000000052545000005815418010000010000000000002014113000000000COLEGIO LA SALLE. BUCARAMANGA BUCARAMANGA         00000000BUCARAMANGA         00000000                    CARRERA 12#200-105 TORRE 4 APR                              6199932     BUCARAMANGA         00000000                    CARRERA 12#200-105 TORRE 4 APR                              6199932     BUCARAMANGA         00000000                    CARRERA 12#200-105 TORRE 4 APR                                                                                          6199932     430128                                     
1010190641420002014BGA208030C1RODRIGUEZ BRAVO CAROL ANDREA                 0201402012014113001400000000010109020140201022016083100000000000000000000                              11D 0003000000052545000000525450000000000000000052545000005815418010000010000000000002014113000000000COLEGIO LA SALLE. BUCARAMANGA BUCARAMANGA         00000000FLORIDABLANCA       00000000                    CARRERA 12#200-105 TORRE 4 APT                              3146829053                      00000000                    CARRERA 12#200-105 TORRE 4 APT                              6960280                         00000000                    CARRERA 12#200-105 TORRE 4 APT                                                                                          3146829053  430128                                     
100063463734000002014BGA211036SOSA PEDROZA ESTHER MAR÷A                    0201402012014113000400000000010109020140201022016083100000000000000000000                              11D 0003000000052545000000525450000000000000000052545000005815418010000010000000000002014113000000000COLEGIO LA SALLE. BUCARAMANGA BUCARAMANGA         00000000BUCARAMANGA         00000000                    CALLE 35C N 22C-40                                          6844917     BUCARAMANGA         00000000                    CALLE 35C N 22C-40                                          6844917     BUCARAMANGA         00000000                    CALLE 35C N 22C-40                                                                                                      6844917     430128                                     
1000138332070002014BGA211036C1RICARDO RUIZ DIAZ                            0201402012014113001400000000010109020140201022016083100000000000000000000                              11D 0003000000052545000000525450000000000000000052545000005815418010000010000000000002014113000000000COLEGIO LA SALLE. BUCARAMANGA BUCARAMANGA         00000000BUCARAMANGA         00000000                                                                                6996631-31  BUCARAMANGA         00000000                                                                                6996631-31  BUCARAMANGA         00000000                                                                                                                                            6996631-31  430128                                     
100013881391000002014BGA211178SOLIS CARPINTERO ADALBERTO                   0201402012014113000400000000010106020140201022016083100000000000000000000                              11A 0000300000052545200000525452000000000000000052545200000602334010001001000000000002014113000000000COLEGIO LA SALLE. BUCARAMANGA BUCARAMANGA         00000000BUCARAMANGA         00000000                    CARRERA 29 No. 66-18                                                    BUCARAMANGA         00000000                    CARRERA 29 No. 66-18                                                    BUCARAMANGA         00000000                    CARRERA 29 No. 66-18                                                                                                                430128                                     
1000379274140002014BGA211178C1PACHECO BOLIVAR PRUDENCIA                    0201402012014113001400000000010106020140201022016083100000000000000000000                              11A 0000300000052545200000525452000000000000000052545200000602334010001001000000000002014113000000000COLEGIO LA SALLE. BUCARAMANGA BUCARAMANGA         00000000BUCARAMANGA         00000000                    CARRERA 29 No. 66-18                                        6475643     BUCARAMANGA         00000000                    CARRERA 29 No. 66-18                                        6475643     BUCARAMANGA         00000000                    CARRERA 29 No. 66-18                                                                                                    6475643     430128                                     
100005702019000002014BGA214054PATI—O SALVATIERRA LUIS ALBERTO              0201402012014113000400000000010108020140201022016083100000000000000000000                              11B 0000900000051480000000514800000000000000000051480000001592894010006003000000000002014113000000000COLEGIO LA SALLE. BUCARAMANGA BUCARAMANGA         00000000BUCARAMANGA         00000000                    CARRERA 39 # 48-67 APTO 1302                                0414+70574  BUCARAMANGA         00000000                    CARRERA 39 # 48-67 APTO 1302                                0414+70574  BUCARAMANGA         00000000                    CARRERA 39 # 48-67 APTO 1302                                                                                            0414+70574  430128                                     
1010986041960002014BGA214054C1PATI—O ACU—A KAREN JOHANA                    0201402012014113001400000000010108020140201022016083100000000000000000000                              11B 0000900000051480000000514800000000000000000051480000001592894010006003000000000002014113000000000COLEGIO LA SALLE. BUCARAMANGA BUCARAMANGA         00000000BUCARAMANGA         00000000                    CARRERA 39 # 48-67                                          3173677732  BUCARAMANGA         00000000                    CARRERA 39 # 48-67                                          3216997728                      00000000                    CARRERA 39 # 48-67                                                                                                      3173677732  430128                                     
100037706326000002014BGA213155AMAYA RINCON MARIA NANCY                     0201402012014113000400000000010109020140201022016083100000000000000000000                              11D 0003000000051480000000514800000000000000000051480000005697548010000010000000000002014113000000000COLEGIO LA SALLE. BUCARAMANGA BUCARAMANGA         00000000BUCARAMANGA         00000000                    AVENIDA 10 # 16-02                                          6927591     BUCARAMANGA         00000000                    AVENIDA 10 # 16-02                                          6927591     BUCARAMANGA         00000000                    AVENIDA 10 # 16-02                                                                                                      6927591     430128                                     
1000795204650002014BGA213155C1RODRIGUEZ REYES CARLOS ARIEL                 0201402012014113001400000000010109020140201022016083100000000000000000000                              11D 0003000000051480000000514800000000000000000051480000005697548010000010000000000002014113000000000COLEGIO LA SALLE. BUCARAMANGA BUCARAMANGA         00000000BUCARAMANGA         00000000                    AVENIDA 10 # 16-02                                          3188770289  BUCARAMANGA         00000000                    AVENIDA 10 # 16-02                                          3188770289  BUCARAMANGA         00000000                    AVENIDA 10 # 16-02                                                                                                      3188770289  430128                                     
100013513147000002015BGA214161MU—OZ ESPINOSA EDWIN WEST                    0201502012015113000400000000010109020150201022016083100000000000000000000                              11D 0003000000063142300000631423000000000000000063142300006983916010000010000000000002015113000000000COLEGIO LA SALLE. BUCARAMANGA BUCARAMANGA         00000000GIRON               00000000                    SAN JORGE II CASA F8                                        6700684     GIRON               00000000                    SAN JORGE II CASA F8                                        6700684     GIRON               00000000                    SAN JORGE II CASA F8                                                                                                    6700684     430128                                     
100037932080000002015BGA214135TORRES RINCON LUCILA                         0201502012015113000400000000010108020150201022016083100000000000000000000                              11C 0000900000063142300000631423000000000000000063142300002531898010002004000000000002015113000000000COLEGIO LA SALLE. BUCARAMANGA BUCARAMANGA         00000000BUCARAMANGA         00000000                    CRA 38A N/ 204/102                                          3172441806  BUCARAMANGA         00000000                    CRA 38A N/ 204/102                                          3172441806  BUCARAMANGA         00000000                    CRA 38A N/ 204/102                                                                                                      3172441806  430128                                     
1000379320800002015BGA214135C1TORRES RINCON LUCILA                         0201502012015113001400000000010108020150201022016083100000000000000000000                              11C 0000900000063142300000631423000000000000000063142300002531898010002004000000000002015113000000000COLEGIO LA SALLE. BUCARAMANGA BUCARAMANGA         00000000BUCARAMANGA         00000000                    CRA 38A N/ 204/102                                          3172441806  BUCARAMANGA         00000000                    CRA 38A N/ 204/102                                          3172441806  BUCARAMANGA         00000000                    CRA 38A N/ 204/102                                                                                                      3172441806  430128                                     
100091295200000002015BGA212094SANDOVAL JOSE GREGORIO                       0201502012015113000400000000010109020150201022016083100000000000000000000                              11D 0002100000063142300000631423000000000000000063142300004747165010001007000000000002015113000000000COLEGIO LA SALLE. BUCARAMANGA BUCARAMANGA         00000000BUCARAMANGA         00000000                    AVENIDA 88 # 23-182                                         6319400     BUCARAMANGA         00000000                    AVENIDA 88 # 23-182                                         6319400     BUCARAMANGA         00000000                    AVENIDA 88 # 23-182                                                                                                     6319400     430128                                     
1000375120840002015BGA212094C1GOMEZ GARCIA MARLENE                         0201502012015113001400000000010109020150201022016083100000000000000000000                              11D 0002100000063142300000631423000000000000000063142300004747165010001007000000000002015113000000000COLEGIO LA SALLE. BUCARAMANGA BUCARAMANGA         00000000BUCARAMANGA         00000000                    AV 88 # 23-182                                              6319400     BUCARAMANGA         00000000                    AV 88 # 23-182                                              6319400     BUCARAMANGA         00000000                    AV 88 # 23-182                                                                                                          6319400     430128                                     
100091479853000002015BGA214014CONTRERAS SANDOVAL OSCAR ALBERTO             0201502012015113000400000000010109020150201022016083100000000000000000000                              11D 0003000000063142300000631423000000000000000063142300006983916010000010000000000002015113000000000COLEGIO LA SALLE. BUCARAMANGA BUCARAMANGA         00000000FLORIDABLANCA       00000000                    CALLE 5 # 13-99                                             6800991     FLORIDABLANCA       00000000                    CALLE 5 # 13-99                                             6800991     FLORIDABLANCA       00000000                    CALLE 5 # 13-99                                                                                                         6800991     430128                                     
1000635559740002015BGA214014C1CABRERA RUBIO ERIKA JOHANNA                  0201502012015113001400000000010109020150201022016083100000000000000000000                              11D 0003000000063142300000631423000000000000000063142300006983916010000010000000000002015113000000000COLEGIO LA SALLE. BUCARAMANGA BUCARAMANGA         00000000FLORIDABLANCA       00000000                    CALLE 5 # 13-99                                             3176440005  FLORIDABLANCA       00000000                    CALLE 5 # 13-99                                             3176440005  FLORIDABLANCA       00000000                    CALLE 5 # 13-99                                                                                                         3176440005  430128                                     
100013513457000002015BGA211204SARMIENTO ARENAS JERSON GIOVANNY             0201502012015113000400000000010109020150201022016083100000000000000000000                              11D 0003000000061526900000615269000000000000000061526900006805244010000010000000000002015113000000000COLEGIO LA SALLE. BUCARAMANGA BUCARAMANGA         00000000BUCARAMANGA         00000000                    CARRERA 11C # 23C-20 CASA 21                                6997040     BUCARAMANGA         00000000                    CARRERA 11C # 23C-20 CASA 21                                6997040     BUCARAMANGA         00000000                    CARRERA 11C # 23C-20 CASA 21                                                                                            6997040     430128                                     
1000375464830002015BGA211204C1MARTINEZ CARDOZO LUZ DARY                    0201502012015113001400000000010109020150201022016083100000000000000000000                              11D 0003000000061526900000615269000000000000000061526900006805244010000010000000000002015113000000000COLEGIO LA SALLE. BUCARAMANGA BUCARAMANGA         00000000BUCARAMANGA         00000000                    CALLE 16 NO 24-46                                           6711914     BUCARAMANGA         00000000                    CALLE 16 NO 24-46                                           6711914     BUCARAMANGA         00000000                    CALLE 16 NO 24-46                                                                                                       6711914     430128                                     
100091479853000002015BGA214034CONTRERAS SANDOVAL OSCAR ALBERTO             0201502012015113000400000000010109020150201022016083100000000000000000000                              11D 0003000000061526900000615269000000000000000061526900006805244010000010000000000002015113000000000COLEGIO LA SALLE. BUCARAMANGA BUCARAMANGA         00000000FLORIDABLANCA       00000000                    CALLE 5 # 13-99                                             6800991     FLORIDABLANCA       00000000                    CALLE 5 # 13-99                                             6800991     FLORIDABLANCA       00000000                    CALLE 5 # 13-99                                                                                                         6800991     430128                                     
1000635559740002015BGA214034C1CABRERA RUBIO ERIKA JOHANNA                  0201502012015113001400000000010109020150201022016083100000000000000000000                              11D 0003000000061526900000615269000000000000000061526900006805244010000010000000000002015113000000000COLEGIO LA SALLE. BUCARAMANGA BUCARAMANGA         00000000FLORIDABLANCA       00000000                    CALLE 5 # 13-99                                             6185766     FLORIDABLANCA       00000000                    CALLE 5 # 13-99                                             6185766     FLORIDABLANCA       00000000                    CALLE 5 # 13-99                                                                                                         6185766     430128                                     
100013841682000002015BGA212102BOTERO BOTERO CAMILO AUGUSTO                 0201502012015113000400000000010109020150201022016083100000000000000000000                              11D 0003000000061526900000615269000000000000000061526900006805244010000010000000000002015113000000000COLEGIO LA SALLE. BUCARAMANGA BUCARAMANGA         00000000BUCARAMANGA         00000000                    CRA 33 #41-14                                               3223614111  BUCARAMANGA         00000000                    CRA 33 #41-14                                               3223614111  BUCARAMANGA         00000000                    CRA 33 #41-14                                                                                                           3223614111  430128                                     
1000602559430002015BGA212102C1BOADA RIVERA SARA                            0201502012015113001400000000010109020150201022016083100000000000000000000                              11D 0003000000061526900000615269000000000000000061526900006805244010000010000000000002015113000000000COLEGIO LA SALLE. BUCARAMANGA BUCARAMANGA         00000000BUCARAMANGA         00000000                    CARRERA 33 # 41-14                                          6970692EX4  BUCARAMANGA         00000000                    CARRERA 33 # 41-14                                          6970692EX4  BUCARAMANGA         00000000                    CARRERA 33 # 41-14                                                                                                      6970692EX4  430128                                     
100013513147000002015BGA214162MU—OZ ESPINOSA EDWIN WEST                    0201502012015113000400000000010109020150201022016083100000000000000000000                              11C 0001200000061526900000615269000000000000000061526900002564502010001004000000000002015113000000000COLEGIO LA SALLE. BUCARAMANGA BUCARAMANGA         00000000GIRON               00000000                    SAN JORGE II CASA F8                                        6700684     GIRON               00000000                    SAN JORGE II CASA F8                                        6700684     GIRON               00000000                    SAN JORGE II CASA F8                                                                                                    6700684     430128                                     
100037862332000002015BGA214168LOPEZ PABON OLGA PATRICIA                    0201502012015113000400000000010109020150201022016083100000000000000000000                              11C 0001500000061526900000615269000000000000000061526900003344954010000005000000000002015113000000000COLEGIO LA SALLE. BUCARAMANGA BUCARAMANGA         00000000BUCARAMANGA         00000000                    CALLE 94 # 47-76 CASA 55 SANTA                              3004601732  BUCARAMANGA         00000000                    CALLE 94 # 47-76 CASA 55 SANTA                              3004601732  BUCARAMANGA         00000000                    CALLE 94 # 47-76 CASA 55 SANTA                                                                                          3004601732  430128                                     
1000798277910002015BGA214168C1SANCHEZ GARCIA CESAR AUGUSTO                 0201502012015113001400000000010109020150201022016083100000000000000000000                              11C 0001500000061526900000615269000000000000000061526900003344954010000005000000000002015113000000000COLEGIO LA SALLE. BUCARAMANGA BUCARAMANGA         00000000BUCARAMANGA         00000000                    CALLE 94 # 47-76 CASA 55 SANTA                              3106748337  BUCARAMANGA         00000000                    CALLE 94 # 47-76 CASA 55 SANTA                              3106748337  BUCARAMANGA         00000000                    CALLE 94 # 47-76 CASA 55 SANTA                                                                                          3106748337  430128                                     
100091295200000002015BGA212092SANDOVAL JOSE GREGORIO                       0201502012015113000400000000010109020150201022016083100000000000000000000                              11D 0003000000061526900000615269000000000000000061526900006805244010000010000000000002015113000000000COLEGIO LA SALLE. BUCARAMANGA BUCARAMANGA         00000000BUCARAMANGA         00000000                    AV 88 # 23-182                                              6319400     BUCARAMANGA         00000000                    AV 88 # 23-182                                              6319400     BUCARAMANGA         00000000                    AV 88 # 23-182                                                                                                          6319400     430128                                     
1000375120840002015BGA212092C1GOMEZ GARCIA MARLENE                         0201502012015113001400000000010109020150201022016083100000000000000000000                              11D 0003000000061526900000615269000000000000000061526900006805244010000010000000000002015113000000000COLEGIO LA SALLE. BUCARAMANGA BUCARAMANGA         00000000BUCARAMANGA         00000000                    AV 88 # 23-182                                              6319400     BUCARAMANGA         00000000                    AV 88 # 23-182                                              6319400     BUCARAMANGA         00000000                    AV 88 # 23-182                                                                                                          6319400     430128                                     
100037748164000002015BGA211162DUARTE LINA MARCELA                          0201502012015113000400000000010106020150201022016083100000000000000000000                              11A 0000300000061526900000615269000000000000000061526900000621422010009001000000000002015113000000000COLEGIO LA SALLE. BUCARAMANGA BUCARAMANGA         00000000BUCARAMANGA         00000000                    CALLE 68B # 10D-101                                         6833244     BUCARAMANGA         00000000                    CALLE 68B # 10D-101                                         6833244     BUCARAMANGA         00000000                    CALLE 68B # 10D-101                                                                                                     6833244     430128                                     
100091179097000002015BGA215140DOMINGUEZ RANGEL NORBERTO                    0201502012015113000400000000010109020150201022016083100000000000000000000                              11C 0001800000061526900000615269000000000000000000000000002100714010001006000000000002015113000000000COLEGIO LA SALLE. BUCARAMANGA BUCARAMANGA         00000000BUCARAMANGA         00000000                    CALLE 86 # 25-35 TORRE D APTO                               3005001637  BUCARAMANGA         00000000                    CALLE 86 # 25-35 TORRE D APTO                               3005001637  BUCARAMANGA         00000000                    CALLE 86 # 25-35 TORRE D APTO                                                                                           3005001637  430128                                     
1000375569900002015BGA215140C1MURILLO LIZARAZO CLAUDIA PATRICIA            0201502012015113001400000000010109020150201022016083100000000000000000000                              11C 0001800000061526900000615269000000000000000000000000002100714010001006000000000002015113000000000COLEGIO LA SALLE. BUCARAMANGA BUCARAMANGA         00000000BUCARAMANGA         00000000                    CALLE 86 # 25-35                                            3108800255  BUCARAMANGA         00000000                    CALLE 86 # 25-35                                            6339666                         00000000                    CALLE 86 # 25-35                                                                                                        3108800255  430128                                     
100013862209000002015BGA215118GOMEZ HERNANDEZ SERGIO ALBERTO               0201502012015113000400000000010109020150201022016083100000000000000000000                              11D 0001800000061526900000615269000000000000000061526900004212110010001006000000000002015113000000000COLEGIO LA SALLE. BUCARAMANGA BUCARAMANGA         00000000BUCARAMANGA         00000000                    CARRERA 29 # 10-24                                          65500917    BUCARAMANGA         00000000                    CARRERA 29 # 10-24                                          65500917    BUCARAMANGA         00000000                    CARRERA 29 # 10-24                                                                                                      65500917    430128                                     
1000635424990002015BGA215118C1BAUTISTA MEJIA PAOLA ANDREA                  0201502012015113001400000000010109020150201022016083100000000000000000000                              11D 0001800000061526900000615269000000000000000061526900004212110010001006000000000002015113000000000COLEGIO LA SALLE. BUCARAMANGA BUCARAMANGA         00000000BUCARAMANGA         00000000                    CALLE 51 # 23-95 APTO 14-03                                 6478888     BUCARAMANGA         00000000                    CALLE 51 # 23-95 APTO 14-03                                 6478888     BUCARAMANGA         00000000                    CALLE 51 # 23-95 APTO 14-03                                                                                             6478888     430128                                     
100013513457000002015BGA211205SARMIENTO ARENAS JERSON GIOVANNY             0201502012015113000400000000010109020150201022016083100000000000000000000                              11C 0001200000061526900000615269000000000000000061526900002934170010000004000000000002015113000000000COLEGIO LA SALLE. BUCARAMANGA BUCARAMANGA         00000000BUCARAMANGA         00000000                    CARRERA 11C #23-20 CASA 21                                  6997040     BUCARAMANGA         00000000                    CARRERA 11C #23-20 CASA 21                                  6997040     BUCARAMANGA         00000000                    CARRERA 11C #23-20 CASA 21                                                                                              6997040     430128                                     
1000375464830002015BGA211205C1MARTINEZ CARDOZO LUZ DARY                    0201502012015113001400000000010109020150201022016083100000000000000000000                              11C 0001200000061526900000615269000000000000000061526900002934170010000004000000000002015113000000000COLEGIO LA SALLE. BUCARAMANGA BUCARAMANGA         00000000BUCARAMANGA         00000000                    CARRERA 11C #23-20 CASA 21                                  6427775     BUCARAMANGA         00000000                    CARRERA 11C #23-20 CASA 21                                  6427775     BUCARAMANGA         00000000                    CARRERA 11C #23-20 CASA 21                                                                                              6427775     430128                                     
100013841682000002015BGA208011BOTERO BOTERO CAMILO AUGUSTO                 0201502012015113000400000000010109020150201022016083100000000000000000000                              11C 0001200000061526900000615269000000000000000061526900002844995010000004000000000002015113000000000COLEGIO LA SALLE. BUCARAMANGA BUCARAMANGA         00000000BUCARAMANGA         00000000                    CARRERA 33 # 41-14  APT 301                                 6531312     BUCARAMANGA         00000000                    CARRERA 33 # 41-14  APT 301                                 6531312     BUCARAMANGA         00000000                    CARRERA 33 # 41-14  APT 301                                                                                             6531312     430128                                     
1000602559430002015BGA208011C1BOADA RIVERA SARA                            0201502012015113001400000000010109020150201022016083100000000000000000000                              11C 0001200000061526900000615269000000000000000061526900002844995010000004000000000002015113000000000COLEGIO LA SALLE. BUCARAMANGA BUCARAMANGA         00000000BUCARAMANGA         00000000                    CARRERA 33 # 41-14                                          6970692     BUCARAMANGA         00000000                    CARRERA 33 # 41-14                                          6970692     BUCARAMANGA         00000000                    CARRERA 33 # 41-14                                                                                                      6970692     430128                                     
100063487110000002015BGA208239SARMIENTO RAMIREZ JOSEFINA ESTHER            0201502012015113000400000000010109020150201022016083100000000000000000000                              11D 0003000000055222900000552229000000000000000055222900006107984010000010000000000002015113000000000COLEGIO LA SALLE. BUCARAMANGA BUCARAMANGA         00000000BUCARAMANGA         00000000                    CRA 40 # 46-42 APTO 301                                     6413000     BUCARAMANGA         00000000                    CRA 40 # 46-42 APTO 301                                     6413000     BUCARAMANGA         00000000                    CRA 40 # 46-42 APTO 301                                                                                                 6413000     430128                                     
1000914857740002015BGA208239C1BUENO VARGAS JUAN CARLOS                     0201502012015113001400000000010109020150201022016083100000000000000000000                              11D 0003000000055222900000552229000000000000000055222900006107984010000010000000000002015113000000000COLEGIO LA SALLE. BUCARAMANGA BUCARAMANGA         00000000BUCARAMANGA         00000000                    CARRERA 40 # 46-42 APTO 301                                 6712374     BUCARAMANGA         00000000                    CARRERA 40 # 46-42 APTO 301                                 6712374     BUCARAMANGA         00000000                    CARRERA 40 # 46-42 APTO 301                                                                                             6712374     430128                                     
100091259983000002015BGA209172CONTRERAS JAIMES OSCAR OMAR                  0201502012015113000400000000010109020150201022016083100000000000000000000                              11D 0003000000055222900000552229000000000000000055222900006107984010000010000000000002015113000000000COLEGIO LA SALLE. BUCARAMANGA BUCARAMANGA         00000000BUCARAMANGA         00000000                    CARRERA 17 # 98-03                                          6992692     BUCARAMANGA         00000000                    CARRERA 17 # 98-03                                          6992692     BUCARAMANGA         00000000                    CARRERA 17 # 98-03                                                                                                      6992692     430128                                     
100035260869000002015BGA215147CASTANEDA SANCHEZ ADRIANA PAOLA              0201502012015113000400000000010109020150201022016083100000000000000000000                              11D 0002100000055222900000552229000000000000000000000000001920871010001008000000000002015113000000000COLEGIO LA SALLE. BUCARAMANGA BUCARAMANGA         00000000VILLAVICENCIO       00000000                    MONTERREY                                                   3138990977  VILLAVICENCIO       00000000                    MONTERREY                                                   3138990977  VILLAVICENCIO       00000000                    MONTERREY                                                                                                               3138990977  430128                                     
100091295200000002015BGA212093SANDOVAL JOSE GREGORIO                       0201502012015113000400000000010109020150201022016083100000000000000000000                              11D 0002100000055222900000552229000000000000000055222900004151767010001007000000000002015113000000000COLEGIO LA SALLE. BUCARAMANGA BUCARAMANGA         00000000BUCARAMANGA         00000000                    AV 88 # 23-182                                              6319400     BUCARAMANGA         00000000                    AV 88 # 23-182                                              6319400     BUCARAMANGA         00000000                    AV 88 # 23-182                                                                                                          6319400     430128                                     
1000375120840002015BGA212093C1GOMEZ GARCIA MARLENE                         0201502012015113001400000000010109020150201022016083100000000000000000000                              11D 0002100000055222900000552229000000000000000055222900004151767010001007000000000002015113000000000COLEGIO LA SALLE. BUCARAMANGA BUCARAMANGA         00000000BUCARAMANGA         00000000                    AV 88 # 23-182                                              6943095     BUCARAMANGA         00000000                    AV 88 # 23-182                                              6943095     BUCARAMANGA         00000000                    AV 88 # 23-182                                                                                                          6943095     430128                                     
100037862332000002015BGA214169LOPEZ PABON PATRICIA                         0201502012015113000400000000010108020150201022016083100000000000000000000                              11C 0000900000054107700000541077000000000000000054107700002086781010000004000000000002015113000000000COLEGIO LA SALLE. BUCARAMANGA BUCARAMANGA         00000000BUCARAMANGA         00000000                    CALLE 94 # 47-76 CASA 55 SANTA                              3106748337  BUCARAMANGA         00000000                    CALLE 94 # 47-76 CASA 55 SANTA                              3106748337  BUCARAMANGA         00000000                    CALLE 94 # 47-76 CASA 55 SANTA                                                                                          3106748337  430128                                     
1000912691140002015BGA214169C1FUENTES CAMPOS ERNESTO                       0201502012015113001400000000010108020150201022016083100000000000000000000                              11C 0000900000054107700000541077000000000000000054107700002086781010000004000000000002015113000000000COLEGIO LA SALLE. BUCARAMANGA BUCARAMANGA         00000000BUCARAMANGA         00000000                    CALLE 50 26-36 APTO. 301                                    3002745244  BUCARAMANGA         00000000                    CALLE 50 26-36 APTO. 301                                    3002745244  BUCARAMANGA         00000000                    CALLE 50 26-36 APTO. 301                                                                                                3002745244  430128                                     
100013881391000002015BGA211178SOLIS CARPINTERO ADALBERTO                   0201502012015113000400000000010109020150201022016083100000000000000000000                              11D 0002400000054107700000541077000000000000000054107700004695304010001008000000000002015113000000000COLEGIO LA SALLE. BUCARAMANGA BUCARAMANGA         00000000BUCARAMANGA         00000000                    CARRERA 29 No. 66-18                                                    BUCARAMANGA         00000000                    CARRERA 29 No. 66-18                                                    BUCARAMANGA         00000000                    CARRERA 29 No. 66-18                                                                                                                430128                                     
1000379274140002015BGA211178C1PACHECO BOLIVAR PRUDENCIA                    0201502012015113001400000000010109020150201022016083100000000000000000000                              11D 0002400000054107700000541077000000000000000054107700004695304010001008000000000002015113000000000COLEGIO LA SALLE. BUCARAMANGA BUCARAMANGA         00000000BUCARAMANGA         00000000                    CARRERA 29 No. 66-18                                        6475643     BUCARAMANGA         00000000                    CARRERA 29 No. 66-18                                        6475643     BUCARAMANGA         00000000                    CARRERA 29 No. 66-18                                                                                                    6475643     430128                                     
100043616012000002015BGA212168RIVERA GUZMAN CLAUDIA ALEXANDRA              0201502012015113000400000000010109020150201022016083100000000000000000000                              11D 0003000000054107700000541077000000000000000054107700005984637010000010000000000002015113000000000COLEGIO LA SALLE. BUCARAMANGA BUCARAMANGA         00000000BUCARAMANGA         00000000                    CARRERA 38A # 46-47 APTO 402                                6956770     BUCARAMANGA         00000000                    CARRERA 38A # 46-47 APTO 402                                6956770     BUCARAMANGA         00000000                    CARRERA 38A # 46-47 APTO 402                                                                                            6956770     430128                                     
100063298140000002015BGA212158NARI;O DUARTE LUZ AMPARO                     0201502012015113000400000000010109020150201022016083100000000000000000000                              11D 0002400000054107700000541077000000000000000054107700004695304010002008000000000002015113000000000COLEGIO LA SALLE. BUCARAMANGA BUCARAMANGA         00000000BUCARAMANGA         00000000                    CALLE 56 # 28-77                                            6041753     BUCARAMANGA         00000000                    CALLE 56 # 28-77                                            6041753     BUCARAMANGA         00000000                    CALLE 56 # 28-77                                                                                                        6041753     430128                                     
100063545522000002016BGA216004SIERRA GARCIA SONIA ESPERANZA                0201602012016113000400000000010101020160201012016083100000000000000000000                              11A 0000000000068876700000688767000000000000000068876700000000000010006000000000000002016073020160715COLEGIO LA SALLE. BUCARAMANGA BUCARAMANGA         00000000BUCARAMANGA         00000000                    DIAG 13 #60-82                                              6346595     BUCARAMANGA         00000000                    DIAG 13 #60-82                                              6346595     BUCARAMANGA         00000000                    DIAG 13 #60-82                                                                                                          6346595     430128                                     
1000910804100002016BGA216004C1AGUILAR LEON LUIS HELBERT                    0201602012016113001400000000010101020160201012016083100000000000000000000                              11A 0000000000068876700000688767000000000000000068876700000000000010006000000000000002016073020160715COLEGIO LA SALLE. BUCARAMANGA BUCARAMANGA         00000000BUCARAMANGA         00000000                    DIAG 13 #60-82                                              6331172     BUCARAMANGA         00000000                    DIAG 13 #60-82                                              6331172     BUCARAMANGA         00000000                    DIAG 13 #60-82                                                                                                          6331172     430128                                     
100037720666000002016BGA216005FRANCO PE—ALOZA CLAUDIA PATRICIA             0201602012016113000400000000010101020160201012016083100000000000000000000                              11A 0000000000068876700000688767000000000000000068876700000000000010006000000000000002016073020160718COLEGIO LA SALLE. BUCARAMANGA BUCARAMANGA         00000000BUCARAMANGA         00000000                    CATURA TORRE 2 LOCAL 08                                     6183958     BUCARAMANGA         00000000                    CATURA TORRE 2 LOCAL 08                                     6183958     BUCARAMANGA         00000000                    CATURA TORRE 2 LOCAL 08                                                                                                 6183958     430128                                     
1000135439840002016BGA216005C1BELTRAN CEDIEL CARLOS AUGUSTO                0201602012016113001400000000010101020160201012016083100000000000000000000                              11A 0000000000068876700000688767000000000000000068876700000000000010006000000000000002016073020160718COLEGIO LA SALLE. BUCARAMANGA BUCARAMANGA         00000000BUCARAMANGA         00000000                    DIAG 36 N 31-135                                            6959320     BUCARAMANGA         00000000                    DIAG 36 N 31-135                                            6959320     BUCARAMANGA         00000000                    DIAG 36 N 31-135                                                                                                        6959320     430128                                     
100091430603000002016BGA216027CELIS GUZMAN ROLANDO                         0201602012016113000400000000010101020160201012016083100000000000000000000                              11A 0000000000068876700000688767000000000000000068876700000000000010006000000000000002016083020160805COLEGIO LA SALLE. BUCARAMANGA BUCARAMANGA         00000000                    00000000                    REFINERIA                                                   6209929                         00000000                    REFINERIA                                                   6209929                         00000000                    REFINERIA                                                                                                               6209929     430128                                     
1000634512540002016BGA216027C1TAMORA ARDILA DULAINE MILDRED                0201602012016113001400000000010101020160201012016083100000000000000000000                              11A 0000000000068876700000688767000000000000000068876700000000000010006000000000000002016083020160805COLEGIO LA SALLE. BUCARAMANGA BUCARAMANGA         00000000BUCARAMANGA         00000000                    CALLE 56 N 28-77                                                        BUCARAMANGA         00000000                    CALLE 56 N 28-77                                                        BUCARAMANGA         00000000                    CALLE 56 N 28-77                                                                                                                    430128                                     
101088271646000002016BGA216026LOAIZA QUINTERO ANDRES FELIPE                0201602012016113000400000000010101020160201012016083100000000000000000000                              11A 0000000000068876700000688767000000000000000068876700000000000010006000000000000002016073020160713COLEGIO LA SALLE. BUCARAMANGA BUCARAMANGA         00000000FLORIDABLANCA       00000000                    CALLE 46 A NO 23-04                                         6426469     FLORIDABLANCA       00000000                    CALLE 46 A NO 23-04                                         6426469     FLORIDABLANCA       00000000                    CALLE 46 A NO 23-04                                                                                                     6426469     430128                                     
1010986980280002016BGA216026C1RAMIREZ GONZALEZ EMA KARINA                  0201602012016113001400000000010101020160201012016083100000000000000000000                              11A 0000000000068876700000688767000000000000000068876700000000000010006000000000000002016073020160713COLEGIO LA SALLE. BUCARAMANGA BUCARAMANGA         00000000FLORIDABLANCA       00000000                    CALLE 155 A NO 23-09                                        6382828     FLORIDABLANCA       00000000                    CALLE 155 A NO 23-09                                        6382828     FLORIDABLANCA       00000000                    CALLE 155 A NO 23-09                                                                                                    6382828     430128                                     
100013860759000002016BGA216058MONSALVE CABALLERO LUIS CARLOS               0201602012016113000400000000010101020160201012016083100000000000000000000                              11A 0000000000068876700000688767000000000000000068876700000000000010005000000000000002016083020160819COLEGIO LA SALLE. BUCARAMANGA BUCARAMANGA         00000000BUCARAMNAGA         00000000                    CARRERA 28 # 44-41                                          6578202     BUCARAMNAGA         00000000                    CARRERA 28 # 44-41                                          6578202     BUCARAMNAGA         00000000                    CARRERA 28 # 44-41                                                                                                      6578202     430128                                     
1000635516580002016BGA216058C1ESTUPI—AN CALDERON ANGIE CAROLINA            0201602012016113001400000000010101020160201012016083100000000000000000000                              11A 0000000000068876700000688767000000000000000068876700000000000010005000000000000002016083020160819COLEGIO LA SALLE. BUCARAMANGA BUCARAMANGA         00000000BUCARAMNAGA         00000000                    CARRERA 28 # 44-41                                          6578202     BUCARAMNAGA         00000000                    CARRERA 28 # 44-41                                          6578202     BUCARAMNAGA         00000000                    CARRERA 28 # 44-41                                                                                                      6578202     430128                                     
100091496585000002016BGA216131APARICIO GOMEZ CARLOS JULIO                  0201604012016113000400000000010101020160401012016083100000000000000000000                              11A 0000000000068876700000688767000000000000000068876700000000000008003000000000000002016073020160722COLEGIO LA SALLE. BUCARAMANGA BUCARAMANGA         00000000BUCARAMANGA         00000000                    CALLE 143 NO 26-43                                          6403155     BUCARAMANGA         00000000                    CALLE 143 NO 26-43                                          6403155     BUCARAMANGA         00000000                    CALLE 143 NO 26-43                                                                                                      6403155     430128                                     
1000635587880002016BGA216131C1RODRIGUEZ BUITRAGO SANDRA PAOLA              0201604012016113001400000000010101020160401012016083100000000000000000000                              11A 0000000000068876700000688767000000000000000068876700000000000008003000000000000002016073020160722COLEGIO LA SALLE. BUCARAMANGA BUCARAMANGA         00000000BUCARAMANGA         00000000                    CRA 23 NO 37-63 PISO 3                                      6346100     BUCARAMANGA         00000000                    CRA 23 NO 37-63 PISO 3                                      6346100     BUCARAMANGA         00000000                    CRA 23 NO 37-63 PISO 3                                                                                                  6346100     430128                                     
100091522079000002016BGA215146BOBADILLA PARRA SAUL ENRIQUE                 0201602012016113000400000000010101020160201012016083100000000000000000000                              11A 0000000000068876700000688767000000000000000068876700000000000010003000000000000002016073020160726COLEGIO LA SALLE. BUCARAMANGA BUCARAMANGA         00000000BUCARAMANGA         00000000                    METROPOLIS 1 TORRE 2 APTO 307                               3107998881  BUCARAMANGA         00000000                    METROPOLIS 1 TORRE 2 APTO 307                               3107998881  BUCARAMANGA         00000000                    METROPOLIS 1 TORRE 2 APTO 307                                                                                           3107998881  430128                                     
1000635524540002016BGA215146C1SANCHEZ ALVAREZ YURY ESTEFANIA               0201602012016113001400000000010101020160201012016083100000000000000000000                              11A 0000000000068876700000688767000000000000000068876700000000000010003000000000000002016073020160726COLEGIO LA SALLE. BUCARAMANGA BUCARAMANGA         00000000BUCARAMANGA         00000000                    METROPOLIS 1 TORRE 2 APTO 307                               321421538   BUCARAMANGA         00000000                    METROPOLIS 1 TORRE 2 APTO 307                               321421538   BUCARAMANGA         00000000                    METROPOLIS 1 TORRE 2 APTO 307                                                                                           321421538   430128                                     
100079544965000002016BGA216111FRANCO GOMEZ GUSTAVO                         0201602012016113000400000000010101020160201012016083100000000000000000000                              11A 0000000000068876700000688767000000000000000068876700000000000010006000000000000002016073020160727COLEGIO LA SALLE. BUCARAMANGA BUCARAMANGA         00000000BUCARAMANGA         00000000                    CALLE 147 # 22-189 CASA 13                                  3203064361  BUCARAMANGA         00000000                    CALLE 147 # 22-189 CASA 13                                  3203064361  BUCARAMANGA         00000000                    CALLE 147 # 22-189 CASA 13                                                                                              3203064361  430128                                     
1000635167510002016BGA216111C1RUEDA SANCHEZ SANDRA MILENA                  0201602012016113001400000000010101020160201012016083100000000000000000000                              11A 0000000000068876700000688767000000000000000068876700000000000010006000000000000002016073020160727COLEGIO LA SALLE. BUCARAMANGA BUCARAMANGA         00000000BUCARAMANGA         00000000                    CALLE 147 # 22-189 CASA 13                                  3123162958  BUCARAMANGA         00000000                    CALLE 147 # 22-189 CASA 13                                  3123162958  BUCARAMANGA         00000000                    CALLE 147 # 22-189 CASA 13                                                                                              3123162958  430128                                     
100091179424000002016BGA216023GRANADOS BECERRA ALEXY                       0201602012016113000400000000010101020160201012016083100000000000000000000                              11A 0000000000068876700000688767000000000000000068876700000000000010006000000000000002016073020160725COLEGIO LA SALLE. BUCARAMANGA BUCARAMANGA         00000000BUCARAMANGA         00000000                    CRA 18 N 36-50 OF 704                                       6700716     BUCARAMANGA         00000000                    CRA 18 N 36-50 OF 704                                       6700716     BUCARAMANGA         00000000                    CRA 18 N 36-50 OF 704                                                                                                   6700716     430128                                     
1000634917240002016BGA216023C1BAUTISTA RONDON SANDRA MILENA                0201602012016113001400000000010101020160201012016083100000000000000000000                              11A 0000000000068876700000688767000000000000000068876700000000000010006000000000000002016073020160725COLEGIO LA SALLE. BUCARAMANGA BUCARAMANGA         00000000BUCARAMANGA         00000000                    CALLE 10 N 34-15                                                        BUCARAMANGA         00000000                    CALLE 10 N 34-15                                                        BUCARAMANGA         00000000                    CALLE 10 N 34-15                                                                                                                    430128                                     
100079556516000002016BGA215134GRANADOS CANGREJO JUAN CARLOS                0201602012016113000400000000010101020160201012016083100000000000000000000                              11A 0000000000068876700000688767000000000000000068876700000000000010006000000000000002016073020160718COLEGIO LA SALLE. BUCARAMANGA BUCARAMANGA         00000000BUCARAMANGA         00000000                    CARRERA 27 # 84-18 TORRE 3 APT                              6434936     BUCARAMANGA         00000000                    CARRERA 27 # 84-18 TORRE 3 APT                              6434936     BUCARAMANGA         00000000                    CARRERA 27 # 84-18 TORRE 3 APT                                                                                          6434936     430128                                     
1000635239920002016BGA215134C1TORO SANCHEZ ANDREA CAROLINA                 0201602012016113001400000000010101020160201012016083100000000000000000000                              11A 0000000000068876700000688767000000000000000068876700000000000010006000000000000002016073020160718COLEGIO LA SALLE. BUCARAMANGA BUCARAMANGA         00000000BUCARAMANGA         00000000                    CARRERA 27 # 84-18 TORRE 3 APT                              3213786004  BUCARAMANGA         00000000                    CARRERA 27 # 84-18 TORRE 3 APT                              3213786004  BUCARAMANGA         00000000                    CARRERA 27 # 84-18 TORRE 3 APT                                                                                          3213786004  430128                                     
100091491591000002016BGA216051PEREZ SUAREZ ROGER ALEXANDER                 0201602012016113000400000000010101020160201012016083100000000000000000000                              11A 0000000000068876700000688767000000000000000068876700000000000010006000000000000002016073000000000COLEGIO LA SALLE. BUCARAMANGA BUCARAMANGA         00000000BOGOTA              00000000                    PARQUE SAN AGUSTIN TORRE 39 AP                              3185470282  BOGOTA              00000000                    PARQUE SAN AGUSTIN TORRE 39 AP                              3185470282  BOGOTA              00000000                    PARQUE SAN AGUSTIN TORRE 39 AP                                                                                          3185470282  430128                                     
1000635236170002016BGA216051C1GONZALEZ ORTIZ IVONNE JOHANA                 0201602012016113001400000000010101020160201012016083100000000000000000000                              11A 0000000000068876700000688767000000000000000068876700000000000010006000000000000002016073000000000COLEGIO LA SALLE. BUCARAMANGA BUCARAMANGA         00000000BOGOTA              00000000                    CARRERA 27 # 81-04 B 11 APTO 1                              3178499773  BOGOTA              00000000                    CARRERA 27 # 81-04 B 11 APTO 1                              3178499773  BOGOTA              00000000                    CARRERA 27 # 81-04 B 11 APTO 1                                                                                          3178499773  430128                                     
100091488504000002016BGA216093RODRIGUEZ SARMIENTO LUIS CARLOS              0201602012016113000400000000010101020160201012016083100000000000000000000                              11A 0000000000068876700000137753000000000000000055101400000000000010006000000000000002016073020160718COLEGIO LA SALLE. BUCARAMANGA BUCARAMANGA         00000000BUCARAMANGA         00000000                    CALLE 5 # 8-25                                              6497621     BUCARAMANGA         00000000                    CALLE 5 # 8-25                                              6497621     BUCARAMANGA         00000000                    CALLE 5 # 8-25                                                                                                          6497621     430128                                     
1000635109230002016BGA216093C1GALVIS SANTOS OLGA YADIRA                    0201602012016113001400000000010101020160201012016083100000000000000000000                              11A 0000000000068876700000137753000000000000000055101400000000000010006000000000000002016073020160718COLEGIO LA SALLE. BUCARAMANGA BUCARAMANGA         00000000BUCARAMANGA         00000000                    CALLE 60 # 27-82                                            6571200     BUCARAMANGA         00000000                    CALLE 60 # 27-82                                            6571200     BUCARAMANGA         00000000                    CALLE 60 # 27-82                                                                                                        6571200     430128                                     
101098661846000002016BGA215180IBA—EZ OSORIO JESSICA JOHANNA                0201602012016113000400000000010101020160201012016083100000000000000000000                              11A 0000000000068876700000688767000000000000000068876700000000000010006000000000000002016073020160712COLEGIO LA SALLE. BUCARAMANGA BUCARAMANGA         00000000GIRON               00000000                    CALLE 20 NO 26-23                                           3182291165  GIRON               00000000                    CALLE 20 NO 26-23                                           3182291165  GIRON               00000000                    CALLE 20 NO 26-23                                                                                                       3182291165  430128                                     
100091531985000002016BGA216120GARCIA MANTILLA JERSON ANDRES                0201602012016113000400000000010101020160201012016083100000000000000000000                              11A 0000000000068876700000688767000000000000000068876700000000000010006000000000000002016073020160718COLEGIO LA SALLE. BUCARAMANGA BUCARAMANGA         00000000FLORIDABLANCA       00000000                    BOGOTA                                                      3173010194  FLORIDABLANCA       00000000                    BOGOTA                                                      3173010194  FLORIDABLANCA       00000000                    BOGOTA                                                                                                                  3173010194  430128                                     
1000363020450002016BGA216120C1CORTES OLGA MARCELA                          0201602012016113001400000000010101020160201012016083100000000000000000000                              11A 0000000000068876700000688767000000000000000068876700000000000010006000000000000002016073020160718COLEGIO LA SALLE. BUCARAMANGA BUCARAMANGA         00000000FLORIDABLANCA       00000000                    CALLE 200 NO 12-528 T2 APTO 70                              3186288008  FLORIDABLANCA       00000000                    CALLE 200 NO 12-528 T2 APTO 70                              3186288008  FLORIDABLANCA       00000000                    CALLE 200 NO 12-528 T2 APTO 70                                                                                          3186288008  430128                                     
100091490549000002016BGA216142MENESES RODRIGUEZ HELI MAURICIO              0201607012016113000400000000010101020160701012016083100000000000000000000                              11A 0000000000068876700000688767000000000000000068876700000000000005001000000000000002016073020160725COLEGIO LA SALLE. BUCARAMANGA BUCARAMANGA         00000000BUCARAMANGA         00000000                    NATURA T2 OF 636                                            6957329     BUCARAMANGA         00000000                    NATURA T2 OF 636                                            6957329     BUCARAMANGA         00000000                    NATURA T2 OF 636                                                                                                        6957329     430128                                     
1010658915860002016BGA216142C1MAURELLO VACA GLORIA ALEJANDRA               0201607012016113001400000000010101020160701012016083100000000000000000000                              11A 0000000000068876700000688767000000000000000068876700000000000005001000000000000002016073020160725COLEGIO LA SALLE. BUCARAMANGA BUCARAMANGA         00000000BUCARAMANGA         00000000                    CALLE 35 N. 17 - 56 EDIF. DAVI                              6957329     BUCARAMANGA         00000000                    CALLE 35 N. 17 - 56 EDIF. DAVI                              6957329     BUCARAMANGA         00000000                    CALLE 35 N. 17 - 56 EDIF. DAVI                                                                                          6957329     430128                                     
100091283290000002016BGA214070ABRIL VERA OTONIEL FELIPE                    0201602012016113000400000000010108020160201022016083100000000000000000000                              11B 0000900000067676400000676764000000000000000067676400002096480010002003000000000002016073000000000COLEGIO LA SALLE. BUCARAMANGA BUCARAMANGA         00000000BUCARAMANGA         00000000                    CALLE 59 # 32-74                                            6430133     BUCARAMANGA         00000000                    CALLE 59 # 32-74                                            6430133     BUCARAMANGA         00000000                    CALLE 59 # 32-74                                                                                                        6430133     430128                                     
1000634900990002016BGA214070C1GUTIERREZ RUEDA OLGA LUCIA                   0201602012016113001400000000010108020160201022016083100000000000000000000                              11B 0000900000067676400000676764000000000000000067676400002096480010002003000000000002016073000000000COLEGIO LA SALLE. BUCARAMANGA BUCARAMANGA         00000000BUCARAMANGA         00000000                    CALLE 59 # 32-74                                            6430133     BUCARAMANGA         00000000                    CALLE 59 # 32-74                                            6430133     BUCARAMANGA         00000000                    CALLE 59 # 32-74                                                                                                        6430133     430128                                     
100013512697000002016BGA215174BRAVO NIEVES CARLOS ALBERTO                  0201602012016113000400000000011105020160201032016083100000000000000000000                              11A 0000000000067676400000000000000000000000000067676400000000000006006000000000000002016073020160708COLEGIO LA SALLE. BUCARAMANGA BUCARAMANGA         00000000SANTA MARTA         00000000                    CLL 107 N 24-35                                             4381722     SANTA MARTA         00000000                    CLL 107 N 24-35                                             4381722     SANTA MARTA         00000000                    CLL 107 N 24-35                                                                                                         4381722     430128                                     
1000529896260002016BGA215174C1WIESNER ANGULO JENNY                         0201602012016113001400000000011105020160201032016083100000000000000000000                              11A 0000000000067676400000000000000000000000000067676400000000000006006000000000000002016073020160708COLEGIO LA SALLE. BUCARAMANGA BUCARAMANGA         00000000BUCARAMANGA         00000000                    CLL 107 N 24-35                                             4381722     BUCARAMANGA         00000000                    CLL 107 N 24-35                                             4381722     BUCARAMANGA         00000000                    CLL 107 N 24-35                                                                                                         4381722     430128                                     
101095919147000002016BGA215078RUEDA MORENO LINA MARITZA                    0201602012016113000400000000010106020160201022016083100000000000000000000                              11A 0000300000067676400000676764000000000000000067676400000683532010002001000000000002016073000000000COLEGIO LA SALLE. BUCARAMANGA BUCARAMANGA         00000000BUCARAMANGA         00000000                    CALLE 20 # 30-27 APTO 1502                                  6571515NA   BUCARAMANGA         00000000                    CALLE 20 # 30-27 APTO 1502                                  6571515NA   BUCARAMANGA         00000000                    CALLE 20 # 30-27 APTO 1502                                                                                              6571515NA   430128                                     
1000915413780002016BGA215078C1CARRERO HERNANDEZ SEBASTIAN                  0201602012016113001400000000010106020160201022016083100000000000000000000                              11A 0000300000067676400000676764000000000000000067676400000683532010002001000000000002016073000000000COLEGIO LA SALLE. BUCARAMANGA BUCARAMANGA         00000000BUCARAMANGA         00000000                    CALLE 20 # 30-27 APTO 1502                                  3007701907  BUCARAMANGA         00000000                    CALLE 20 # 30-27 APTO 1502                                  3007701907  BUCARAMANGA         00000000                    CALLE 20 # 30-27 APTO 1502                                                                                              3007701907  430128                                     
100063523783000002016BGA216019ROMERO PUENTES SANDRA MILENA                 0201602012016113000400000000010101020160201012016083100000000000000000000                              11A 0000000000067676400000676764000000000000000067676400000000000010006000000000000002016073000000000COLEGIO LA SALLE. BUCARAMANGA BUCARAMANGA         00000000BUCARAMANGA         00000000                    CR 11 N 33-43                                               3162295042  BUCARAMANGA         00000000                    CR 11 N 33-43                                               3162295042  BUCARAMANGA         00000000                    CR 11 N 33-43                                                                                                           3162295042  430128                                     
1000912938740002016BGA216019C1LANCHEROS GARCIA JHON FREDY                  0201602012016113001400000000010101020160201012016083100000000000000000000                              11A 0000000000067676400000676764000000000000000067676400000000000010006000000000000002016073000000000COLEGIO LA SALLE. BUCARAMANGA BUCARAMANGA         00000000BUCARAMANGA         00000000                    CRA 30 N 51-76                                              6970236     BUCARAMANGA         00000000                    CRA 30 N 51-76                                              6970236     BUCARAMANGA         00000000                    CRA 30 N 51-76                                                                                                          6970236     430128                                     
100005711183000002016BGA215095LOPEZ GONZALEZ MARCO EDUARDO                 0201602012016113000400000000010101020160201012016083100000000000000000000                              11A 0000000000067676400000676764000000000000000067676400000000000010006000000000000002016073020160718COLEGIO LA SALLE. BUCARAMANGA BUCARAMANGA         00000000BUCARAMANGA         00000000                    CRA 33# 91/52                                               6958372     BUCARAMANGA         00000000                    CRA 33# 91/52                                               6958372     BUCARAMANGA         00000000                    CRA 33# 91/52                                                                                                           6958372     430128                                     
1000633375560002016BGA215095C1ANGARITA CABALLERO NANCY                     0201602012016113001400000000010101020160201012016083100000000000000000000                              11A 0000000000067676400000676764000000000000000067676400000000000010006000000000000002016073020160718COLEGIO LA SALLE. BUCARAMANGA BUCARAMANGA         00000000BUCARAMANGA         00000000                    CARRERA 33 # 91-52                                          6958372                         00000000                    CARRERA 33 # 91-52                                                                          00000000                    CARRERA 33 # 91-52                                                                                                      6958372     430128                                     
101127940959000002016BGA214177CHEHAYEB MARIN KARINA                        0201602012016113000400000000010101020160201012016083100000000000000000000                              11A 0000000000067676400000676764000000000000000067676400000000000010006000000000000002016083020160825COLEGIO LA SALLE. BUCARAMANGA BUCARAMANGA         00000000BUCARAMANGA         00000000                    CALLE 48 # 39-41 APTO 902                                   3177158301  BUCARAMANGA         00000000                    CALLE 48 # 39-41 APTO 902                                   3177158301  BUCARAMANGA         00000000                    CALLE 48 # 39-41 APTO 902                                                                                               3177158301  430128                                     
1000804208690002016BGA214177C1MARTINEZ MATALLANA MARIANO                   0201602012016113001400000000010101020160201012016083100000000000000000000                              11A 0000000000067676400000676764000000000000000067676400000000000010006000000000000002016083020160825COLEGIO LA SALLE. BUCARAMANGA BUCARAMANGA         00000000BUCARAMANGA         00000000                    CALLE 48 # 39-41 APTO 902                                   6940238     BUCARAMANGA         00000000                    CALLE 48 # 39-41 APTO 902                                   6940238     BUCARAMANGA         00000000                    CALLE 48 # 39-41 APTO 902                                                                                               6940238     430128                                     
10000E381883000002016BGA214131SASSINE LILIANE                              0201602012016113000400000000010101020160201012016083100000000000000000000                              11A 0000000000067676400000676764000000000000000037000000000000000010003000000000000002016083020160830COLEGIO LA SALLE. BUCARAMANGA BUCARAMANGA         00000000BUCARAMANGA         00000000                    CARRERA 26 # 34-18                                          6429849     BUCARAMANGA         00000000                    CARRERA 26 # 34-18                                          6429849     BUCARAMANGA         00000000                    CARRERA 26 # 34-18                                                                                                      6429849     430128                                     
100013746511000002016BGA214129REYES LOPEZ GUSTAVO ADOLFO                   0201602012016113000400000000010106020160201022016083100000000000000000000                              11A 0000300000067676400000676764000000000000000050757300000512649010005001000000000002016073000000000COLEGIO LA SALLE. BUCARAMANGA BUCARAMANGA         00000000BUCARAMANGA         00000000                    B. COLINA TORRE 3 APTO 701                                  6437535     BUCARAMANGA         00000000                    B. COLINA TORRE 3 APTO 701                                  6437535     BUCARAMANGA         00000000                    B. COLINA TORRE 3 APTO 701                                                                                              6437535     430128                                     
1000635129560002016BGA214129C1HERNANDEZ VALDERRAMA YISHNEY                 0201602012016113001400000000010106020160201022016083100000000000000000000                              11A 0000300000067676400000676764000000000000000050757300000512649010005001000000000002016073000000000COLEGIO LA SALLE. BUCARAMANGA BUCARAMANGA         00000000BUCARAMANGA         00000000                    B. COLINA TORRE 3 APTO 701                                  6339593     BUCARAMANGA         00000000                    B. COLINA TORRE 3 APTO 701                                  6339593     BUCARAMANGA         00000000                    B. COLINA TORRE 3 APTO 701                                                                                              6339593     430128                                     
