HHHHHHHHHHHHHHHHHH4301284320160131M T0000000000000000N                                                                                                                                                                                                                                                                                                                                                                                                                                                                                                                                                                                                                                                                                                                                                                          
100091423236000002011BGA210035CARRE—O RUIZ FERNANDO                        0201102012011113000400000000010106020110201022016013100000000000000000000                              11A 0000300000051310000000513100000000000000000051310000000059907010001000000000000002011113000000000COLEGIO LA SALLE. BUCARAMANGA BUCARAMANGA         00000000BUCARAMANGA         00000000                                                                                6599817     BUCARAMANGA         00000000                                                                                6599817     BUCARAMANGA         00000000                                                                                                                                            6599817     430128                                     
100091264194000002011BGA209199MANCILLA SUAREZ MAURICIO                     0201102012011113000400000000010106020110201022016013100000000000000000000                              11A 0000300000051000000000510000000000000000000051000000000045401010000000000000000002011113000000000COLEGIO LA SALLE. BUCARAMANGA BUCARAMANGA         00000000BUCARAMANGA         00000000                                                                                6485255     BUCARAMANGA         00000000                                                                                6485255     BUCARAMANGA         00000000                                                                                                                                            6485255     430128                                     
100091246612000002011BGA207224BUITRAGO BAUTISTA CARLOS ARTURO              0201104012011113000400000000010106020110401022016013100000000000000000000                              11A 0000300000046050000000460500000000000000000046050000000052686008000000000000000002011113000000000COLEGIO LA SALLE. BUCARAMANGA BUCARAMANGA         00000000BUCARAMANGA         00000000                    ACROPOLIS TORRE 1 APTO 905                                  6760613     BUCARAMANGA         00000000                    ACROPOLIS TORRE 1 APTO 905                                  6760613     BUCARAMANGA         00000000                    ACROPOLIS TORRE 1 APTO 905                                                                                              6760613     430128                                     
100091237228000002011BGA207206LOPEZ CELY PABLO JOSUê                       0201104012011113000400000000010109020110401022016013100000000000000000000                              11D 0002400000046050000000460500000000000000000046050000005077786008000008000000000002011113000000000COLEGIO LA SALLE. BUCARAMANGA BUCARAMANGA         00000000BUCARAMANGA         00000000                                                                                6432634     BUCARAMANGA         00000000                                                                                6432634     BUCARAMANGA         00000000                                                                                                                                            6432634     430128                                     
100091264194000002011BGA206017MANCILLA SUAREZ MAURICIO                     0201102012011113000400000000010106020110201022016013100000000000000000000                              11A 0000300000046050000000460500000000000000000046050000000039752010000000000000000002011113000000000COLEGIO LA SALLE. BUCARAMANGA BUCARAMANGA         00000000BUCARAMANGA         00000000                                                                                6485255     BUCARAMANGA         00000000                                                                                6485255     BUCARAMANGA         00000000                                                                                                                                            6485255     430128                                     
100017637396000002011BGA208231PERDOMO ARTUNDUAGA LUIS HERNAN               0201102012011113000400000000010106020110201022016013100000000000000000000                              11A 0000300000043300000000433000000000000000000043300000000003085010000000000000000002011113000000000COLEGIO LA SALLE. BUCARAMANGA BUCARAMANGA         00000000                    00000000                    CRA 9 # 5A-19                                                                               00000000                    CRA 9 # 5A-19                                                                               00000000                    CRA 9 # 5A-19                                                                                                                       430128                                     
100008720149000002011BGA205068DONADO RUIZ MARCO TULIO                      0201102012011113000400000000010109020110201022016013100000000000000000000                              11D 0003000000043300000000433000000000000000000043300000004771056010000010000000000002011113000000000COLEGIO LA SALLE. BUCARAMANGA BUCARAMANGA         00000000BUCARAMANGA         00000000                                                                                6340542     BUCARAMANGA         00000000                                                                                6340542     BUCARAMANGA         00000000                                                                                                                                            6340542     430128                                     
100005557128000002011BGA211157RUEDA ANAYA JORGE ENRIQUE                    0201102012011113000400000000010106020110201022016013100000000000000000000                              11A 0000300000043300000000433000000000000000000043300000000010514010002000000000000002011113000000000COLEGIO LA SALLE. BUCARAMANGA BUCARAMANGA         00000000BUCARAMANGA         00000000                    CALLE 104 E N¯ 8 B - 43                                                 BUCARAMANGA         00000000                    CALLE 104 E N¯ 8 B - 43                                                 BUCARAMANGA         00000000                    CALLE 104 E N¯ 8 B - 43                                                                                                             430128                                     
100013842404000002011BGA209056ALVAREZ OJEDA ALBERTO                        0201104012011113000400000000010109020110401022016013100000000000000000000                              11D 0002100000043300000000273000000000000000000043300000004616284008000008000000000002011113000000000COLEGIO LA SALLE. BUCARAMANGA BUCARAMANGA         00000000BUCARAMANGA         00000000                                                                                3143135838  BUCARAMANGA         00000000                                                                                3143135838  BUCARAMANGA         00000000                                                                                                                                            3143135838  430128                                     
100091204261000002011BGA202203MENDEZ JOSE ISRAEL                           0201102012011113000400000000010106020110201022016013100000000000000000000                              11A 0000300000043300000000433000000000000000000043300000000006365010000000000000000002011113000000000COLEGIO LA SALLE. BUCARAMANGA BUCARAMANGA         00000000BUCARAMANGA         00000000                                                                                6471925     BUCARAMANGA         00000000                                                                                6471925     BUCARAMANGA         00000000                                                                                                                                            6471925     430128                                     
100091237228000002011BGA204258LOPEZ CELY PABLO JOSUê                       0201104012011113000400000000010109020110401022016013100000000000000000000                              11D 0002400000043300000000433000000000000000000043300000004774553008000008000000000002011113000000000COLEGIO LA SALLE. BUCARAMANGA BUCARAMANGA         00000000BUCARAMANGA         00000000                                                                                6421828     BUCARAMANGA         00000000                                                                                6421828     BUCARAMANGA         00000000                                                                                                                                            6421828     430128                                     
100063512552000002012BGA210172CAMARGO MANTILLA NIDIA ELIZABETH             0201202012012113000400000000010107020120201022016013100000000000000000000                              11B 0000600000053880000000538800000000000000000053880000001475364010000003000000000002012113000000000COLEGIO LA SALLE. BUCARAMANGA BUCARAMANGA         00000000FLORIDABLANCA       00000000                    CIRCUNV. 36A # 104-25 APTO 201                              3175047438  FLORIDABLANCA       00000000                    CIRCUNV. 36A # 104-25 APTO 201                              3175047438  FLORIDABLANCA       00000000                    CIRCUNV. 36A # 104-25 APTO 201                                                                                          3175047438  430128                                     
100037932080000002012BGA211157TORRES RINCON LUCILA                         0201202012012113000400000000010109020120201022016013100000000000000000000                              11D 0001800000048580000000485800000000000000000048580000003250406010000006000000000002012113000000000COLEGIO LA SALLE. BUCARAMANGA BUCARAMANGA         00000000BUCARAMANGA         00000000                    DIAGONAL 105 # 104E-247                                     3175890913  BUCARAMANGA         00000000                    DIAGONAL 105 # 104E-247                                     3175890913  BUCARAMANGA         00000000                    DIAGONAL 105 # 104E-247                                                                                                 3175890913  430128                                     
1000055571280002012BGA211157C1RUEDA ANAYA JORGE ENRIQUE                    0201202012012113001400000000010109020120201022016013100000000000000000000                              11D 0001800000048580000000485800000000000000000048580000003250406010000006000000000002012113000000000COLEGIO LA SALLE. BUCARAMANGA BUCARAMANGA         00000000BUCARAMANGA         00000000                    DIAGONAL 105 # 104E-247                                                 BUCARAMANGA         00000000                    DIAGONAL 105 # 104E-247                                                 BUCARAMANGA         00000000                    DIAGONAL 105 # 104E-247                                                                                                             430128                                     
100052098631000002013BGA213141JIMENEZ VARGAS MONICA INES                   0201302012013113000400000000010109020130201022016013100000000000000000000                              11C 0001200000049990000000499900000000000000000049990000002201303010002004000000000002013113000000000COLEGIO LA SALLE. BUCARAMANGA BUCARAMANGA         00000000BUCARAMANGA         00000000                    CALLE 103 # 12A-03                                          6374853     BUCARAMANGA         00000000                    CALLE 103 # 12A-03                                          6374853     BUCARAMANGA         00000000                    CALLE 103 # 12A-03                                                                                                      6374853     430128                                     
100091493592000002013BGA213055ROJAS GRECCO JUAN CARLOS                     0201302012013113000400000000010109020130201022016013100000000000000000000                              11D 0002100000056290000000562900000000000000000056290000004220849010002007000000000002013113000000000COLEGIO LA SALLE. BUCARAMANGA BUCARAMANGA         00000000BUCARAMANGA         00000000                    CARRERA 35 # 35-23 APTO 402                                 3188275812  BUCARAMANGA         00000000                    CARRERA 35 # 35-23 APTO 402                                 3188275812  BUCARAMANGA         00000000                    CARRERA 35 # 35-23 APTO 402                                                                                             3188275812  430128                                     
1000376523040002013BGA213055C1PATI—O PATI—O NINI JOHANA                    0201302012013113001400000000010109020130201022016013100000000000000000000                              11D 0002100000056290000000562900000000000000000056290000004220849010002007000000000002013113000000000COLEGIO LA SALLE. BUCARAMANGA BUCARAMANGA         00000000BUCARAMANGA         00000000                    CARRERA 35 # 35-23 APTO 402                                 3138081424  BUCARAMANGA         00000000                    CARRERA 35 # 35-23 APTO 402                                 3138081424  BUCARAMANGA         00000000                    CARRERA 35 # 35-23 APTO 402                                                                                             3138081424  430128                                     
100013841682000002013BGA212102BOTERO BOTERO CAMILO AUGUSTO                 0201302012013113000400000000010108020130201022016013100000000000000000000                              11C 0000900000056290000000562900000000000000000056290000002487159010000004000000000002013113000000000COLEGIO LA SALLE. BUCARAMANGA BUCARAMANGA         00000000BUCARAMANGA         00000000                    CRA 33 #41-14                                               6531312     BUCARAMANGA         00000000                    CRA 33 #41-14                                               6531312     BUCARAMANGA         00000000                    CRA 33 #41-14                                                                                                           6531312     430128                                     
1000602559430002013BGA212102C1BOADA RIVERA SARA                            0201302012013113001400000000010108020130201022016013100000000000000000000                              11C 0000900000056290000000562900000000000000000056290000002487159010000004000000000002013113000000000COLEGIO LA SALLE. BUCARAMANGA BUCARAMANGA         00000000BUCARAMANGA         00000000                    CARRERA 33 # 41-14                                          6993278     BUCARAMANGA         00000000                    CARRERA 33 # 41-14                                          6993278     BUCARAMANGA         00000000                    CARRERA 33 # 41-14                                                                                                      6993278     430128                                     
100079426838000002013BGA211172BOYACA ZAMBRANO WILLIAM ALBERTO              0201302012013113000400000000010106020130201022016013100000000000000000000                              11A 0000300000056290000000562900000000000000000000000000000614912010005002000000000002013113000000000COLEGIO LA SALLE. BUCARAMANGA BUCARAMANGA         00000000BUCARAMANGA         00000000                    CARRERA 40 #48-18                                           6303399     BUCARAMANGA         00000000                    CARRERA 40 #48-18                                           6303399     BUCARAMANGA         00000000                    CARRERA 40 #48-18                                                                                                       6303399     430128                                     
1000303282730002013BGA211172C1ACEVEDO ARIAS SANDRA MILENA                  0201302012013113001400000000010106020130201022016013100000000000000000000                              11A 0000300000056290000000562900000000000000000000000000000614912010005002000000000002013113000000000COLEGIO LA SALLE. BUCARAMANGA BUCARAMANGA         00000000BUCARAMANGA         00000000                    CARRERA 40 #48-18                                           3104539769  BUCARAMANGA         00000000                    CARRERA 40 #48-18                                           3104539769  BUCARAMANGA         00000000                    CARRERA 40 #48-18                                                                                                       3104539769  430128                                     
100063516707000002013BGA211211CUADROS LEON LYDA MARCELA                    0201302012013113000400000000010106020130201022016013100000000000000000000                              11A 0000300000056030000000560300000000000000000056030000000565903010006001000000000002013113000000000COLEGIO LA SALLE. BUCARAMANGA BUCARAMANGA         00000000BUCARAMANGA         00000000                    CRA 13 # 65 - 32 BARRIO LA VIC                              6339015     BUCARAMANGA         00000000                    CRA 13 # 65 - 32 BARRIO LA VIC                              6339015     BUCARAMANGA         00000000                    CRA 13 # 65 - 32 BARRIO LA VIC                                                                                          6339015     430128                                     
100079426838000002013BGA211173BOYACA ZAMBRANO WILLIAM ALBERTO              0201302012013113000400000000010106020130201022016013100000000000000000000                              11A 0000300000056030000000560300000000000000000000000000000612073010005002000000000002013113000000000COLEGIO LA SALLE. BUCARAMANGA BUCARAMANGA         00000000BUCARAMANGA         00000000                    CARRERA 40 #48-18                                           6303399     BUCARAMANGA         00000000                    CARRERA 40 #48-18                                           6303399     BUCARAMANGA         00000000                    CARRERA 40 #48-18                                                                                                       6303399     430128                                     
1000303282730002013BGA211173C1ACEVEDO ARIAS SANDRA MILENA                  0201302012013113001400000000010106020130201022016013100000000000000000000                              11A 0000300000056030000000560300000000000000000000000000000612073010005002000000000002013113000000000COLEGIO LA SALLE. BUCARAMANGA BUCARAMANGA         00000000BUCARAMANGA         00000000                    CARRERA 40 # 48-18                                          3104539769  BUCARAMANGA         00000000                    CARRERA 40 # 48-18                                          3104539769  BUCARAMANGA         00000000                    CARRERA 40 # 48-18                                                                                                      3104539769  430128                                     
100010057116000002013BGA213150VILA CASADO RAUL OMAR                        0201302012013113000400000000010106020130201022016013100000000000000000000                              11A 0000300000056030000000560300000000000000000000000000000612073010005002000000000002013113000000000COLEGIO LA SALLE. BUCARAMANGA BUCARAMANGA         00000000                    00000000                    CRA. 27 CALLE 9                                             6906663                         00000000                    CRA. 27 CALLE 9                                             6906663                         00000000                    CRA. 27 CALLE 9                                                                                                         6906663     430128                                     
1000379412200002013BGA213150C1PEREZ ANGARITA GLORIA MARTHA                 0201302012013113001400000000010106020130201022016013100000000000000000000                              11A 0000300000056030000000560300000000000000000000000000000612073010005002000000000002013113000000000COLEGIO LA SALLE. BUCARAMANGA BUCARAMANGA         00000000                    00000000                                                                                6906663                         00000000                                                                                6906663                         00000000                                                                                                                                            6906663     430128                                     
100013841682000002013BGA208011BOTERO BOTERO CAMILO AUGUSTO                 0201302012013113000400000000010106020130201022016013100000000000000000000                              11A 0000300000050525000000505250000000000000000050525000000316097010000001000000000002013113000000000COLEGIO LA SALLE. BUCARAMANGA BUCARAMANGA         00000000BUCARAMANGA         00000000                    CARRERA 33 # 41-14  APT 301                                 6531312     BUCARAMANGA         00000000                    CARRERA 33 # 41-14  APT 301                                 6531312     BUCARAMANGA         00000000                    CARRERA 33 # 41-14  APT 301                                                                                             6531312     430128                                     
1000602559430002013BGA208011C1BOADA RIVERA SARA                            0201302012013113001400000000010106020130201022016013100000000000000000000                              11A 0000300000050525000000505250000000000000000050525000000316097010000001000000000002013113000000000COLEGIO LA SALLE. BUCARAMANGA BUCARAMANGA         00000000BUCARAMANGA         00000000                    CARRERA 33 # 41-14                                          3105624438  BUCARAMANGA         00000000                    CARRERA 33 # 41-14                                          3105624438  BUCARAMANGA         00000000                    CARRERA 33 # 41-14                                                                                                      3105624438  430128                                     
100091259983000002013BGA209172CONTRERAS JAIMES OSCAR OMAR                  0201302012013113000400000000010106020130201022016013100000000000000000000                              11A 0000300000050525000000505250000000000000000050525000000878245010000002000000000002013113000000000COLEGIO LA SALLE. BUCARAMANGA BUCARAMANGA         00000000BUCARAMANGA         00000000                    CARRERA 17 # 98-03                                          6700505     BUCARAMANGA         00000000                    CARRERA 17 # 98-03                                          6700505     BUCARAMANGA         00000000                    CARRERA 17 # 98-03                                                                                                      6700505     430128                                     
100063329091000002013BGA213160MONROY CASTELLANOS ADRIANA                   0201305012013113000400000000010106020130501022016013100000000000000000000                              11A 0000300000047505000000475050000000000000000047505000000479801007002001000000000002013113000000000COLEGIO LA SALLE. BUCARAMANGA BUCARAMANGA         00000000BUCARAMANGA         00000000                    CARRERA 41 # 41-48                                          6963364     BUCARAMANGA         00000000                    CARRERA 41 # 41-48                                          6963364     BUCARAMANGA         00000000                    CARRERA 41 # 41-48                                                                                                      6963364     430128                                     
100079520465000002013BGA213155RODRIGUEZ REYES CARLOS ARIEL                 0201302012013113000400000000010109020130201022016013100000000000000000000                              11C 0001200000047505000000475050000000000000000047505000002283137010000005000000000002013113000000000COLEGIO LA SALLE. BUCARAMANGA BUCARAMANGA         00000000BUCARAMANGA         00000000                                                                                6043953     BUCARAMANGA         00000000                                                                                6043953     BUCARAMANGA         00000000                                                                                                                                            6043953     430128                                     
100013513147000002014BGA214161MU—OZ ESPINOSA EDWIN WEST                    0201402012014113000400000000010109020140201022016013100000000000000000000                              11C 0001500000060080000000600800000000000000000060080000003162610010003005000000000002014113000000000COLEGIO LA SALLE. BUCARAMANGA BUCARAMANGA         00000000GIRON               00000000                    SAN JORGE II CASA F8                                        6700684     GIRON               00000000                    SAN JORGE II CASA F8                                        6700684     GIRON               00000000                    SAN JORGE II CASA F8                                                                                                    6700684     430128                                     
100013513457000002014BGA211204SARMIENTO ARENAS JERSON GIOVANNY             0201402012014113000400000000010109020140201022016013100000000000000000000                              11D 0003000000058540000000585400000000000000000058540000006478914010000010000000000002014113000000000COLEGIO LA SALLE. BUCARAMANGA BUCARAMANGA         00000000BUCARAMANGA         00000000                    CARRERA 11C # 23C-20 CASA 21                                6997040     BUCARAMANGA         00000000                    CARRERA 11C # 23C-20 CASA 21                                6997040     BUCARAMANGA         00000000                    CARRERA 11C # 23C-20 CASA 21                                                                                            6997040     430128                                     
1000375464830002014BGA211204C1MARTINEZ CARDOZO LUZ DARY                    0201402012014113001400000000010109020140201022016013100000000000000000000                              11D 0003000000058540000000585400000000000000000058540000006478914010000010000000000002014113000000000COLEGIO LA SALLE. BUCARAMANGA BUCARAMANGA         00000000BUCARAMANGA         00000000                    CARRERA 11C # 23C-20 CASA 21                                6427775     BUCARAMANGA         00000000                    CARRERA 11C # 23C-20 CASA 21                                6427775     BUCARAMANGA         00000000                    CARRERA 11C # 23C-20 CASA 21                                                                                            6427775     430128                                     
100013871255000002014BGA213002RANGEL GOMEZ JESUS DARIO                     0201402012014113000400000000010109020140201022016013100000000000000000000                              11D 0002400000058540000000585400000000000000000000000000003333854010001008000000000002014113000000000COLEGIO LA SALLE. BUCARAMANGA BUCARAMANGA         00000000BUCARAMANGA         00000000                    CALLE 200 NO. 14-50                                         6900955     BUCARAMANGA         00000000                    CALLE 200 NO. 14-50                                         6900955     BUCARAMANGA         00000000                    CALLE 200 NO. 14-50                                                                                                     6900955     430128                                     
1000378628560002014BGA213002C1MENDOZA VALENCIA TATIANA MARCERLA            0201402012014113001400000000010109020140201022016013100000000000000000000                              11D 0002400000058540000000585400000000000000000000000000003333854010001008000000000002014113000000000COLEGIO LA SALLE. BUCARAMANGA BUCARAMANGA         00000000BUCARAMANGA         00000000                    CALLE 200 NO. 14-50                                         6900955     BUCARAMANGA         00000000                    CALLE 200 NO. 14-50                                         6900955     BUCARAMANGA         00000000                    CALLE 200 NO. 14-50                                                                                                     6900955     430128                                     
100091493592000002014BGA213055ROJAS GRECCO JUAN CARLOS                     0201402012014113000400000000010109020140201022016013100000000000000000000                              11D 0002400000058540000000585400000000000000000058540000005081857010002008000000000002014113000000000COLEGIO LA SALLE. BUCARAMANGA BUCARAMANGA         00000000BUCARAMANGA         00000000                    CARRERA 35 # 35-23 APTO 402                                 3188275812  BUCARAMANGA         00000000                    CARRERA 35 # 35-23 APTO 402                                 3188275812  BUCARAMANGA         00000000                    CARRERA 35 # 35-23 APTO 402                                                                                             3188275812  430128                                     
1000376523040002014BGA213055C1PATI—O PATI—O NINI JOHANA                    0201402012014113001400000000010109020140201022016013100000000000000000000                              11D 0002400000058540000000585400000000000000000058540000005081857010002008000000000002014113000000000COLEGIO LA SALLE. BUCARAMANGA BUCARAMANGA         00000000BUCARAMANGA         00000000                    CARRERA 35 # 35-23 APTO 402                                 3138081424  BUCARAMANGA         00000000                    CARRERA 35 # 35-23 APTO 402                                 3138081424  BUCARAMANGA         00000000                    CARRERA 35 # 35-23 APTO 402                                                                                             3138081424  430128                                     
100013513147000002014BGA214162MU—OZ ESPINOSA EDWIN WEST                    0201402012014113000400000000010109020140201022016013100000000000000000000                              11C 0001500000058540000000585400000000000000000058540000003081546010003005000000000002014113000000000COLEGIO LA SALLE. BUCARAMANGA BUCARAMANGA         00000000GIRON               00000000                    SAN JORGE II CASA F8                                        6700684     GIRON               00000000                    SAN JORGE II CASA F8                                        6700684     GIRON               00000000                    SAN JORGE II CASA F8                                                                                                    6700684     430128                                     
100063463734000002014BGA210090SOSA PEDROZA ESTHER                          0201402012014113000400000000010109020140201022016013100000000000000000000                              11D 0003000000058540000000585400000000000000000058540000006478914010000010000000000002014113000000000COLEGIO LA SALLE. BUCARAMANGA BUCARAMANGA         00000000FLORIDABLANCA       00000000                    CALLE 35C # 22C-40                                          6392622     FLORIDABLANCA       00000000                    CALLE 35C # 22C-40                                          6392622     FLORIDABLANCA       00000000                    CALLE 35C # 22C-40                                                                                                      6392622     430128                                     
1000138332070002014BGA210090C1RUIZ DIAZ RICARDO                            0201402012014113001400000000010109020140201022016013100000000000000000000                              11D 0003000000058540000000585400000000000000000058540000006478914010000010000000000002014113000000000COLEGIO LA SALLE. BUCARAMANGA BUCARAMANGA         00000000FLORIDABLANCA       00000000                                                                                            FLORIDABLANCA       00000000                                                                                            FLORIDABLANCA       00000000                                                                                                                                                        430128                                     
100013513457000002014BGA211205SARMIENTO ARENAS JERSON GIOVANNY             0201402012014113000400000000010109020140201022016013100000000000000000000                              11D 0003000000058540000000585400000000000000000058540000006478914010000010000000000002014113000000000COLEGIO LA SALLE. BUCARAMANGA BUCARAMANGA         00000000BUCARAMANGA         00000000                    CARRERA 11C #23-20 CASA 21                                  6997040     BUCARAMANGA         00000000                    CARRERA 11C #23-20 CASA 21                                  6997040     BUCARAMANGA         00000000                    CARRERA 11C #23-20 CASA 21                                                                                              6997040     430128                                     
1000375464830002014BGA211205C1MARTINEZ CARDOZO LUZ DARY                    0201402012014113001400000000010109020140201022016013100000000000000000000                              11D 0003000000058540000000585400000000000000000058540000006478914010000010000000000002014113000000000COLEGIO LA SALLE. BUCARAMANGA BUCARAMANGA         00000000BUCARAMANGA         00000000                    CARRERA 11C #23-20 CASA 21                                  6427775     BUCARAMANGA         00000000                    CARRERA 11C #23-20 CASA 21                                  6427775     BUCARAMANGA         00000000                    CARRERA 11C #23-20 CASA 21                                                                                              6427775     430128                                     
100091485774000002014BGA208239BUENO VARGAS JUAN CARLOS                     0201402012014113000400000000011105020140201032016013100000000000000000000                              11A 0000000000052545000000000000000000000000000052545000000000000010002000000000000002014113000000000COLEGIO LA SALLE. BUCARAMANGA BUCARAMANGA         00000000BUCARAMANGA         00000000                    CARRERA 40 # 46-42 APTO 301                                 6712374     BUCARAMANGA         00000000                    CARRERA 40 # 46-42 APTO 301                                 6712374     BUCARAMANGA         00000000                    CARRERA 40 # 46-42 APTO 301                                                                                             6712374     430128                                     
1000634871100002014BGA208239C1SARMIENTO RAMIREZ JOSEFINA ESTHER            0201402012014113001400000000011105020140201032016013100000000000000000000                              11A 0000000000052545000000000000000000000000000052545000000000000010002000000000000002014113000000000COLEGIO LA SALLE. BUCARAMANGA BUCARAMANGA         00000000BUCARAMANGA         00000000                    CRA 40 # 46-42 APTO 301                                     6413000     BUCARAMANGA         00000000                    CRA 40 # 46-42 APTO 301                                     6413000     BUCARAMANGA         00000000                    CRA 40 # 46-42 APTO 301                                                                                                 6413000     430128                                     
100079239584000002014BGA208030RODRIGUEZ RUBEN DARIO                        0201402012014113000400000000010109020140201022016013100000000000000000000                              11D 0003000000052545000000525450000000000000000052545000005815418010000010000000000002014113000000000COLEGIO LA SALLE. BUCARAMANGA BUCARAMANGA         00000000BUCARAMANGA         00000000                    CARRERA 12#200-105 TORRE 4 APR                              6199932     BUCARAMANGA         00000000                    CARRERA 12#200-105 TORRE 4 APR                              6199932     BUCARAMANGA         00000000                    CARRERA 12#200-105 TORRE 4 APR                                                                                          6199932     430128                                     
1010190641420002014BGA208030C1RODRIGUEZ BRAVO CAROL ANDREA                 0201402012014113001400000000010109020140201022016013100000000000000000000                              11D 0003000000052545000000525450000000000000000052545000005815418010000010000000000002014113000000000COLEGIO LA SALLE. BUCARAMANGA BUCARAMANGA         00000000FLORIDABLANCA       00000000                    CARRERA 12#200-105 TORRE 4 APT                              3146829053                      00000000                    CARRERA 12#200-105 TORRE 4 APT                              6960280                         00000000                    CARRERA 12#200-105 TORRE 4 APT                                                                                          3146829053  430128                                     
100063463734000002014BGA211036SOSA PEDROZA ESTHER MAR÷A                    0201402012014113000400000000010109020140201022016013100000000000000000000                              11D 0003000000052545000000525450000000000000000052545000005815418010000010000000000002014113000000000COLEGIO LA SALLE. BUCARAMANGA BUCARAMANGA         00000000BUCARAMANGA         00000000                    CALLE 35C N 22C-40                                          6844917     BUCARAMANGA         00000000                    CALLE 35C N 22C-40                                          6844917     BUCARAMANGA         00000000                    CALLE 35C N 22C-40                                                                                                      6844917     430128                                     
1000138332070002014BGA211036C1RICARDO RUIZ DIAZ                            0201402012014113001400000000010109020140201022016013100000000000000000000                              11D 0003000000052545000000525450000000000000000052545000005815418010000010000000000002014113000000000COLEGIO LA SALLE. BUCARAMANGA BUCARAMANGA         00000000BUCARAMANGA         00000000                                                                                6996631-31  BUCARAMANGA         00000000                                                                                6996631-31  BUCARAMANGA         00000000                                                                                                                                            6996631-31  430128                                     
100013881391000002014BGA211178SOLIS CARPINTERO ADALBERTO                   0201402012014113000400000000010106020140201022016013100000000000000000000                              11A 0000300000052545200000525452000000000000000052545200000602334010001001000000000002014113000000000COLEGIO LA SALLE. BUCARAMANGA BUCARAMANGA         00000000BUCARAMANGA         00000000                    CARRERA 29 No. 66-18                                                    BUCARAMANGA         00000000                    CARRERA 29 No. 66-18                                                    BUCARAMANGA         00000000                    CARRERA 29 No. 66-18                                                                                                                430128                                     
1000379274140002014BGA211178C1PACHECO BOLIVAR PRUDENCIA                    0201402012014113001400000000010106020140201022016013100000000000000000000                              11A 0000300000052545200000525452000000000000000052545200000602334010001001000000000002014113000000000COLEGIO LA SALLE. BUCARAMANGA BUCARAMANGA         00000000BUCARAMANGA         00000000                    CARRERA 29 No. 66-18                                        6475643     BUCARAMANGA         00000000                    CARRERA 29 No. 66-18                                        6475643     BUCARAMANGA         00000000                    CARRERA 29 No. 66-18                                                                                                    6475643     430128                                     
100091175703000002014BGA205169FONSECA TORRES RICARDO                       0201402012014113000400000000010108020140201022016013100000000000000000000                              11C 0000900000051480000000514800000000000000000051480000001979450010001004000000000002014113000000000COLEGIO LA SALLE. BUCARAMANGA BUCARAMANGA         00000000BUCARAMANGA         00000000                    PALMERAS DEL CACIQUE 2 CASA 92                              6943309     BUCARAMANGA         00000000                    PALMERAS DEL CACIQUE 2 CASA 92                              6943309     BUCARAMANGA         00000000                    PALMERAS DEL CACIQUE 2 CASA 92                                                                                          6943309     430128                                     
1000633669810002014BGA205169C1SANTAMARIA BECERRA MARIA ALEXANDRA           0201402012014113001400000000010108020140201022016013100000000000000000000                              11C 0000900000051480000000514800000000000000000051480000001979450010001004000000000002014113000000000COLEGIO LA SALLE. BUCARAMANGA BUCARAMANGA         00000000BUCARAMANGA         00000000                    PALMERAS DEL CACIQUE 2 CASA 92                              6943309     BUCARAMANGA         00000000                    PALMERAS DEL CACIQUE 2 CASA 92                              6943309     BUCARAMANGA         00000000                    PALMERAS DEL CACIQUE 2 CASA 92                                                                                          6943309     430128                                     
100005702019000002014BGA214054PATI—O SALVATIERRA LUIS ALBERTO              0201402012014113000400000000010108020140201022016013100000000000000000000                              11B 0000900000051480000000514800000000000000000051480000001592894010006003000000000002014113000000000COLEGIO LA SALLE. BUCARAMANGA BUCARAMANGA         00000000BUCARAMANGA         00000000                    CARRERA 39 # 48-67 APTO 1302                                0414+70574  BUCARAMANGA         00000000                    CARRERA 39 # 48-67 APTO 1302                                0414+70574  BUCARAMANGA         00000000                    CARRERA 39 # 48-67 APTO 1302                                                                                            0414+70574  430128                                     
1010986041960002014BGA214054C1PATI—O ACU—A KAREN JOHANA                    0201402012014113001400000000010108020140201022016013100000000000000000000                              11B 0000900000051480000000514800000000000000000051480000001592894010006003000000000002014113000000000COLEGIO LA SALLE. BUCARAMANGA BUCARAMANGA         00000000BUCARAMANGA         00000000                    CARRERA 39 # 48-67                                          3173677732  BUCARAMANGA         00000000                    CARRERA 39 # 48-67                                          3216997728                      00000000                    CARRERA 39 # 48-67                                                                                                      3173677732  430128                                     
100037706326000002014BGA213155AMAYA RINCON MARIA NANCY                     0201402012014113000400000000010109020140201022016013100000000000000000000                              11D 0003000000051480000000514800000000000000000051480000005697548010000010000000000002014113000000000COLEGIO LA SALLE. BUCARAMANGA BUCARAMANGA         00000000BUCARAMANGA         00000000                    AVENIDA 10 # 16-02                                          6927591     BUCARAMANGA         00000000                    AVENIDA 10 # 16-02                                          6927591     BUCARAMANGA         00000000                    AVENIDA 10 # 16-02                                                                                                      6927591     430128                                     
1000795204650002014BGA213155C1RODRIGUEZ REYES CARLOS ARIEL                 0201402012014113001400000000010109020140201022016013100000000000000000000                              11D 0003000000051480000000514800000000000000000051480000005697548010000010000000000002014113000000000COLEGIO LA SALLE. BUCARAMANGA BUCARAMANGA         00000000BUCARAMANGA         00000000                    AVENIDA 10 # 16-02                                          3188770289  BUCARAMANGA         00000000                    AVENIDA 10 # 16-02                                          3188770289  BUCARAMANGA         00000000                    AVENIDA 10 # 16-02                                                                                                      3188770289  430128                                     
100039004288000002015BGA215149CANTILLO VILLARREAL JOSEFINA DEL CARMEN      0201502012015113000400000000010106020150201022016013100000000000000000000                              11A 0000300000064880100000648801000000000000000055148100000757951010000001000000000002015113000000000COLEGIO LA SALLE. BUCARAMANGA BUCARAMANGA         00000000BUCARAMANGA         00000000                    CALLE 67 NO 24-24                                           6437535     BUCARAMANGA         00000000                    CALLE 67 NO 24-24                                           6437535     BUCARAMANGA         00000000                    CALLE 67 NO 24-24                                                                                                       6437535     430128                                     
1000720096360002015BGA215149C1BERNIER MORA JAIME ENRIQUE                   0201502012015113001400000000010106020150201022016013100000000000000000000                              11A 0000300000064880100000648801000000000000000055148100000757951010000001000000000002015113000000000COLEGIO LA SALLE. BUCARAMANGA BUCARAMANGA         00000000BUCARAMANGA         00000000                    CALLE 35 NO 12-62 OFC 201                                   6928674     BUCARAMANGA         00000000                    CALLE 35 NO 12-62 OFC 201                                   6928674     BUCARAMANGA         00000000                    CALLE 35 NO 12-62 OFC 201                                                                                               6928674     430128                                     
100013513147000002015BGA214161MU—OZ ESPINOSA EDWIN WEST                    0201502012015113000400000000010109020150201022016013100000000000000000000                              11D 0003000000063142300000631423000000000000000063142300006983916010000010000000000002015113000000000COLEGIO LA SALLE. BUCARAMANGA BUCARAMANGA         00000000GIRON               00000000                    SAN JORGE II CASA F8                                        6700684     GIRON               00000000                    SAN JORGE II CASA F8                                        6700684     GIRON               00000000                    SAN JORGE II CASA F8                                                                                                    6700684     430128                                     
100037932080000002015BGA214135TORRES RINCON LUCILA                         0201502012015113000400000000010109020150201022016013100000000000000000000                              11C 0001500000063142300000631423000000000000000063142300003323432010002005000000000002015113000000000COLEGIO LA SALLE. BUCARAMANGA BUCARAMANGA         00000000BUCARAMANGA         00000000                    CRA 38A N/ 204/102                                          3172441806  BUCARAMANGA         00000000                    CRA 38A N/ 204/102                                          3172441806  BUCARAMANGA         00000000                    CRA 38A N/ 204/102                                                                                                      3172441806  430128                                     
1000379320800002015BGA214135C1TORRES RINCON LUCILA                         0201502012015113001400000000010109020150201022016013100000000000000000000                              11C 0001500000063142300000631423000000000000000063142300003323432010002005000000000002015113000000000COLEGIO LA SALLE. BUCARAMANGA BUCARAMANGA         00000000BUCARAMANGA         00000000                    CRA 38A N/ 204/102                                          3172441806  BUCARAMANGA         00000000                    CRA 38A N/ 204/102                                          3172441806  BUCARAMANGA         00000000                    CRA 38A N/ 204/102                                                                                                      3172441806  430128                                     
100091295200000002015BGA212094SANDOVAL JOSE GREGORIO                       0201502012015113000400000000010109020150201022016013100000000000000000000                              11D 0002100000063142300000631423000000000000000063142300004747165010001007000000000002015113000000000COLEGIO LA SALLE. BUCARAMANGA BUCARAMANGA         00000000BUCARAMANGA         00000000                    AVENIDA 88 # 23-182                                         6319400     BUCARAMANGA         00000000                    AVENIDA 88 # 23-182                                         6319400     BUCARAMANGA         00000000                    AVENIDA 88 # 23-182                                                                                                     6319400     430128                                     
1000375120840002015BGA212094C1GOMEZ GARCIA MARLENE                         0201502012015113001400000000010109020150201022016013100000000000000000000                              11D 0002100000063142300000631423000000000000000063142300004747165010001007000000000002015113000000000COLEGIO LA SALLE. BUCARAMANGA BUCARAMANGA         00000000BUCARAMANGA         00000000                    AV 88 # 23-182                                              6319400     BUCARAMANGA         00000000                    AV 88 # 23-182                                              6319400     BUCARAMANGA         00000000                    AV 88 # 23-182                                                                                                          6319400     430128                                     
100091479853000002015BGA214014CONTRERAS SANDOVAL OSCAR ALBERTO             0201502012015113000400000000010109020150201022016013100000000000000000000                              11D 0003000000063142300000631423000000000000000063142300006983916010000010000000000002015113000000000COLEGIO LA SALLE. BUCARAMANGA BUCARAMANGA         00000000FLORIDABLANCA       00000000                    CALLE 5 # 13-99                                             6800991     FLORIDABLANCA       00000000                    CALLE 5 # 13-99                                             6800991     FLORIDABLANCA       00000000                    CALLE 5 # 13-99                                                                                                         6800991     430128                                     
1000635559740002015BGA214014C1CABRERA RUBIO ERIKA JOHANNA                  0201502012015113001400000000010109020150201022016013100000000000000000000                              11D 0003000000063142300000631423000000000000000063142300006983916010000010000000000002015113000000000COLEGIO LA SALLE. BUCARAMANGA BUCARAMANGA         00000000FLORIDABLANCA       00000000                    CALLE 5 # 13-99                                             3176440005  FLORIDABLANCA       00000000                    CALLE 5 # 13-99                                             3176440005  FLORIDABLANCA       00000000                    CALLE 5 # 13-99                                                                                                         3176440005  430128                                     
100091274742000002015BGA214030ROJAS VARGAS LUIS ALBERTO                    0201502012015113000400000000010109020150201022016013100000000000000000000                              11C 0001500000063142300000631423000000000000000063142300003558915010000005000000000002015113000000000COLEGIO LA SALLE. BUCARAMANGA BUCARAMANGA         00000000BUCARAMANGA         00000000                    CARRERA 35 # 92-170 TORRE 1 AP                              3152249689  BUCARAMANGA         00000000                    CARRERA 35 # 92-170 TORRE 1 AP                              3152249689  BUCARAMANGA         00000000                    CARRERA 35 # 92-170 TORRE 1 AP                                                                                          3152249689  430128                                     
1000377536680002015BGA214030C1DUARTE VARGAS MARCELA                        0201502012015113001400000000010109020150201022016013100000000000000000000                              11C 0001500000063142300000631423000000000000000063142300003558915010000005000000000002015113000000000COLEGIO LA SALLE. BUCARAMANGA BUCARAMANGA         00000000BUCARAMANGA         00000000                    CARRERA 35 # 92-170                                         3152908500  BUCARAMANGA         00000000                    CARRERA 35 # 92-170                                         3152908500  BUCARAMANGA         00000000                    CARRERA 35 # 92-170                                                                                                     3152908500  430128                                     
100037885149000002015BGA214019REYES SILVA MARINA                           0201502012015113000400000000011105020150201032016013100000000000000000000                              11A 0000000000063142300000000000000000000000000063142300000000000010007000000000000002015113000000000COLEGIO LA SALLE. BUCARAMANGA BUCARAMANGA         00000000SAN GIL             00000000                    CALLE 14A # 1-34                                            7245598     SAN GIL             00000000                    CALLE 14A # 1-34                                            7243400                         00000000                    CALLE 14A # 1-34                                                                                                        7245598     430128                                     
1000243223410002015BGA214019C1CARDENAS GONZALEZ ANA MARIA DE LA CRUZ       0201502012015113001400000000011105020150201032016013100000000000000000000                              11A 0000000000063142300000000000000000000000000063142300000000000010007000000000000002015113000000000COLEGIO LA SALLE. BUCARAMANGA BUCARAMANGA         00000000BUCARAMANGA         00000000                    CARRERA 47A # 52-32 APTO 601                                3124569577  BUCARAMANGA         00000000                    CARRERA 47A # 52-32 APTO 601                                6711753                         00000000                    CARRERA 47A # 52-32 APTO 601                                                                                            3124569577  430128                                     
100037893103000002015BGA214205NINO PINTO RUFINA                            0201502012015113000400000000010106020150201022016013100000000000000000000                              11A 0000300000063142300000631423000000000000000063142300000637737010007001000000000002015113000000000COLEGIO LA SALLE. BUCARAMANGA BUCARAMANGA         00000000BUCARAMANGA         00000000                    PLAZA MAYOR ENTRADA 11 APTO 50                              3132591231  BUCARAMANGA         00000000                    PLAZA MAYOR ENTRADA 11 APTO 50                              3132591231  BUCARAMANGA         00000000                    PLAZA MAYOR ENTRADA 11 APTO 50                                                                                          3132591231  430128                                     
1010986514600002015BGA214205C1VIZCAYA NI;O JENNY PAOLA                     0201502012015113001400000000010106020150201022016013100000000000000000000                              11A 0000300000063142300000631423000000000000000063142300000637737010007001000000000002015113000000000COLEGIO LA SALLE. BUCARAMANGA BUCARAMANGA         00000000BUCARAMANGA         00000000                    PLAZA MAYOR ENTRADA 11 APTO 50                              3015772860                      00000000                    PLAZA MAYOR ENTRADA 11 APTO 50                                                              00000000                    PLAZA MAYOR ENTRADA 11 APTO 50                                                                                          3015772860  430128                                     
100052699895000002015BGA212037VARGAS GARCIA JANETH YAMILE                  0201502012015113000400000000011105020150201032016013100000000000000000000                              11A 0000000000061526900000000000000000000000000061526900000000000010004000000000000002015113000000000COLEGIO LA SALLE. BUCARAMANGA BUCARAMANGA         00000000BUCARAMANGA         00000000                    CRA. 56 # 74-191 CASA G-16                                  3208039564  BUCARAMANGA         00000000                    CRA. 56 # 74-191 CASA G-16                                  3208039564  BUCARAMANGA         00000000                    CRA. 56 # 74-191 CASA G-16                                                                                              3208039564  430128                                     
100013513457000002015BGA211204SARMIENTO ARENAS JERSON GIOVANNY             0201502012015113000400000000010109020150201022016013100000000000000000000                              11D 0003000000061526900000615269000000000000000061526900006805244010000010000000000002015113000000000COLEGIO LA SALLE. BUCARAMANGA BUCARAMANGA         00000000BUCARAMANGA         00000000                    CARRERA 11C # 23C-20 CASA 21                                6997040     BUCARAMANGA         00000000                    CARRERA 11C # 23C-20 CASA 21                                6997040     BUCARAMANGA         00000000                    CARRERA 11C # 23C-20 CASA 21                                                                                            6997040     430128                                     
1000375464830002015BGA211204C1MARTINEZ CARDOZO LUZ DARY                    0201502012015113001400000000010109020150201022016013100000000000000000000                              11D 0003000000061526900000615269000000000000000061526900006805244010000010000000000002015113000000000COLEGIO LA SALLE. BUCARAMANGA BUCARAMANGA         00000000BUCARAMANGA         00000000                    CALLE 16 NO 24-46                                           6711914     BUCARAMANGA         00000000                    CALLE 16 NO 24-46                                           6711914     BUCARAMANGA         00000000                    CALLE 16 NO 24-46                                                                                                       6711914     430128                                     
100091266694000002015BGA213068JIMENEZ DIAZ RICARDO FABIAN                  0201502012015113000400000000011105020150201032016013100000000000000000000                              11A 0000000000061526900000000000000000000000000061526900000000000010005000000000000002015113000000000COLEGIO LA SALLE. BUCARAMANGA BUCARAMANGA         00000000BUCARAMANGA         00000000                    CALLE 36 # 38-44 APTO 302                                   3203541244  BUCARAMANGA         00000000                    CALLE 36 # 38-44 APTO 302                                   3203541244  BUCARAMANGA         00000000                    CALLE 36 # 38-44 APTO 302                                                                                               3203541244  430128                                     
1000375149350002015BGA213068C1PEREZ AMAYA ALEXANDRA                        0201502012015113001400000000011105020150201032016013100000000000000000000                              11A 0000000000061526900000000000000000000000000061526900000000000010005000000000000002015113000000000COLEGIO LA SALLE. BUCARAMANGA BUCARAMANGA         00000000BUCARAMANGA         00000000                    CALLE 36 # 33-44 APTO 302                                   6915460     BUCARAMANGA         00000000                    CALLE 36 # 33-44 APTO 302                                   6915460     BUCARAMANGA         00000000                    CALLE 36 # 33-44 APTO 302                                                                                               6915460     430128                                     
100091269069000002015BGA212045PALOMINO MENDOZA JUAN CARLOS                 0201502012015113000400000000011105020150201032016013100000000000000000000                              11A 0000000000061526900000000000000000000000000061526900000000000010006000000000000002015113000000000COLEGIO LA SALLE. BUCARAMANGA BUCARAMANGA         00000000GIRON               00000000                    CARRERA 27A # 10 A 50                                       6464343     GIRON               00000000                    CARRERA 27A # 10 A 50                                       6464343     GIRON               00000000                    CARRERA 27A # 10 A 50                                                                                                   6464343     430128                                     
1000281548180002015BGA212045C1RUEDA RUEDA DIANA MILENA                     0201502012015113001400000000011105020150201032016013100000000000000000000                              11A 0000000000061526900000000000000000000000000061526900000000000010006000000000000002015113000000000COLEGIO LA SALLE. BUCARAMANGA BUCARAMANGA         00000000GIRON               00000000                    CALLE 11 # 27A-42                                           6805299     GIRON               00000000                    CALLE 11 # 27A-42                                           6805299     GIRON               00000000                    CALLE 11 # 27A-42                                                                                                       6805299     430128                                     
100091181156000002015BGA211167RONCANCIO PINZON OSCAR                       0201502012015113000400000000010109020150201022016013100000000000000000000                              11D 0003000000061526900000615269000000000000000061526900006805244010000010000000000002015113000000000COLEGIO LA SALLE. BUCARAMANGA BUCARAMANGA         00000000PIEDECUESTA         00000000                    PINARES CASA 23 D                                           3134330980  PIEDECUESTA         00000000                    PINARES CASA 23 D                                           3134330980  PIEDECUESTA         00000000                    PINARES CASA 23 D                                                                                                       3134330980  430128                                     
100091479853000002015BGA214034CONTRERAS SANDOVAL OSCAR ALBERTO             0201502012015113000400000000010109020150201022016013100000000000000000000                              11D 0003000000061526900000615269000000000000000061526900006805244010000010000000000002015113000000000COLEGIO LA SALLE. BUCARAMANGA BUCARAMANGA         00000000FLORIDABLANCA       00000000                    CALLE 5 # 13-99                                             6800991     FLORIDABLANCA       00000000                    CALLE 5 # 13-99                                             6800991     FLORIDABLANCA       00000000                    CALLE 5 # 13-99                                                                                                         6800991     430128                                     
1000635559740002015BGA214034C1CABRERA RUBIO ERIKA JOHANNA                  0201502012015113001400000000010109020150201022016013100000000000000000000                              11D 0003000000061526900000615269000000000000000061526900006805244010000010000000000002015113000000000COLEGIO LA SALLE. BUCARAMANGA BUCARAMANGA         00000000FLORIDABLANCA       00000000                    CALLE 5 # 13-99                                             6185766     FLORIDABLANCA       00000000                    CALLE 5 # 13-99                                             6185766     FLORIDABLANCA       00000000                    CALLE 5 # 13-99                                                                                                         6185766     430128                                     
100063556541000002015BGA213226CASTRO VANEGAS FALLON VANESSA                0201502012015113000400000000011105020150201032016013100000000000000000000                              11A 0000000000061526900000000000000000000000000061526900000000000010002000000000000002015113000000000COLEGIO LA SALLE. BUCARAMANGA BUCARAMANGA         00000000BUCARMANGA          00000000                    CALLE 42 14-28                                              6895718     BUCARMANGA          00000000                    CALLE 42 14-28                                              6895718     BUCARMANGA          00000000                    CALLE 42 14-28                                                                                                          6895718     430128                                     
100013841682000002015BGA212102BOTERO BOTERO CAMILO AUGUSTO                 0201502012015113000400000000010109020150201022016013100000000000000000000                              11D 0003000000061526900000615269000000000000000061526900006805244010000010000000000002015113000000000COLEGIO LA SALLE. BUCARAMANGA BUCARAMANGA         00000000BUCARAMANGA         00000000                    CRA 33 #41-14                                               3223614111  BUCARAMANGA         00000000                    CRA 33 #41-14                                               3223614111  BUCARAMANGA         00000000                    CRA 33 #41-14                                                                                                           3223614111  430128                                     
1000602559430002015BGA212102C1BOADA RIVERA SARA                            0201502012015113001400000000010109020150201022016013100000000000000000000                              11D 0003000000061526900000615269000000000000000061526900006805244010000010000000000002015113000000000COLEGIO LA SALLE. BUCARAMANGA BUCARAMANGA         00000000BUCARAMANGA         00000000                    CARRERA 33 # 41-14                                          6970692EX4  BUCARAMANGA         00000000                    CARRERA 33 # 41-14                                          6970692EX4  BUCARAMANGA         00000000                    CARRERA 33 # 41-14                                                                                                      6970692EX4  430128                                     
100013513147000002015BGA214162MU—OZ ESPINOSA EDWIN WEST                    0201502012015113000400000000010109020150201022016013100000000000000000000                              11C 0001200000061526900000615269000000000000000061526900002564502010001004000000000002015113000000000COLEGIO LA SALLE. BUCARAMANGA BUCARAMANGA         00000000GIRON               00000000                    SAN JORGE II CASA F8                                        6700684     GIRON               00000000                    SAN JORGE II CASA F8                                        6700684     GIRON               00000000                    SAN JORGE II CASA F8                                                                                                    6700684     430128                                     
100063352871000002015BGA214155URIBE ACEVEDO MARIA LILIANA                  0201502012015113000400000000011105020150201032016013100000000000000000000                              11A 0000000000061526900000000000000000000000000061526900000000000010002000000000000002015113000000000COLEGIO LA SALLE. BUCARAMANGA BUCARAMANGA         00000000BUCARAMANGA         00000000                    CARRERA 32 # 63A-15 APTO 401                                6470661     BUCARAMANGA         00000000                    CARRERA 32 # 63A-15 APTO 401                                6470661     BUCARAMANGA         00000000                    CARRERA 32 # 63A-15 APTO 401                                                                                            6470661     430128                                     
1000633528710002015BGA214155C1URIBE ACEVEDO MARIA LILIANA                  0201502012015113001400000000011105020150201032016013100000000000000000000                              11A 0000000000061526900000000000000000000000000061526900000000000010002000000000000002015113000000000COLEGIO LA SALLE. BUCARAMANGA BUCARAMANGA         00000000BUCARAMANGA         00000000                    CARRERA 32 # 63A-15 APTO 401                                6470661     BUCARAMANGA         00000000                    CARRERA 32 # 63A-15 APTO 401                                6470661     BUCARAMANGA         00000000                    CARRERA 32 # 63A-15 APTO 401                                                                                            6470661     430128                                     
100037862332000002015BGA214168LOPEZ PABON OLGA PATRICIA                    0201502012015113000400000000010109020150201022016013100000000000000000000                              11C 0001500000061526900000615269000000000000000061526900003344954010000005000000000002015113000000000COLEGIO LA SALLE. BUCARAMANGA BUCARAMANGA         00000000BUCARAMANGA         00000000                    CALLE 94 # 47-76 CASA 55 SANTA                              3004601732  BUCARAMANGA         00000000                    CALLE 94 # 47-76 CASA 55 SANTA                              3004601732  BUCARAMANGA         00000000                    CALLE 94 # 47-76 CASA 55 SANTA                                                                                          3004601732  430128                                     
1000798277910002015BGA214168C1SANCHEZ GARCIA CESAR AUGUSTO                 0201502012015113001400000000010109020150201022016013100000000000000000000                              11C 0001500000061526900000615269000000000000000061526900003344954010000005000000000002015113000000000COLEGIO LA SALLE. BUCARAMANGA BUCARAMANGA         00000000BUCARAMANGA         00000000                    CALLE 94 # 47-76 CASA 55 SANTA                              3106748337  BUCARAMANGA         00000000                    CALLE 94 # 47-76 CASA 55 SANTA                              3106748337  BUCARAMANGA         00000000                    CALLE 94 # 47-76 CASA 55 SANTA                                                                                          3106748337  430128                                     
100091295200000002015BGA212092SANDOVAL JOSE GREGORIO                       0201502012015113000400000000010109020150201022016013100000000000000000000                              11D 0003000000061526900000615269000000000000000061526900006805244010000010000000000002015113000000000COLEGIO LA SALLE. BUCARAMANGA BUCARAMANGA         00000000BUCARAMANGA         00000000                    AV 88 # 23-182                                              6319400     BUCARAMANGA         00000000                    AV 88 # 23-182                                              6319400     BUCARAMANGA         00000000                    AV 88 # 23-182                                                                                                          6319400     430128                                     
1000375120840002015BGA212092C1GOMEZ GARCIA MARLENE                         0201502012015113001400000000010109020150201022016013100000000000000000000                              11D 0003000000061526900000615269000000000000000061526900006805244010000010000000000002015113000000000COLEGIO LA SALLE. BUCARAMANGA BUCARAMANGA         00000000BUCARAMANGA         00000000                    AV 88 # 23-182                                              6319400     BUCARAMANGA         00000000                    AV 88 # 23-182                                              6319400     BUCARAMANGA         00000000                    AV 88 # 23-182                                                                                                          6319400     430128                                     
100037748164000002015BGA211162DUARTE LINA MARCELA                          0201502012015113000400000000010106020150201022016013100000000000000000000                              11A 0000300000061526900000615269000000000000000061526900000621422010009001000000000002015113000000000COLEGIO LA SALLE. BUCARAMANGA BUCARAMANGA         00000000BUCARAMANGA         00000000                    CALLE 68B # 10D-101                                         6833244     BUCARAMANGA         00000000                    CALLE 68B # 10D-101                                         6833244     BUCARAMANGA         00000000                    CALLE 68B # 10D-101                                                                                                     6833244     430128                                     
100091179097000002015BGA215140DOMINGUEZ RANGEL NORBERTO                    0201502012015113000400000000010109020150201022016013100000000000000000000                              11C 0001800000061526900000615269000000000000000000000000002100714010001006000000000002015113000000000COLEGIO LA SALLE. BUCARAMANGA BUCARAMANGA         00000000BUCARAMANGA         00000000                    CALLE 86 # 25-35 TORRE D APTO                               3005001637  BUCARAMANGA         00000000                    CALLE 86 # 25-35 TORRE D APTO                               3005001637  BUCARAMANGA         00000000                    CALLE 86 # 25-35 TORRE D APTO                                                                                           3005001637  430128                                     
1000375569900002015BGA215140C1MURILLO LIZARAZO CLAUDIA PATRICIA            0201502012015113001400000000010109020150201022016013100000000000000000000                              11C 0001800000061526900000615269000000000000000000000000002100714010001006000000000002015113000000000COLEGIO LA SALLE. BUCARAMANGA BUCARAMANGA         00000000BUCARAMANGA         00000000                    CALLE 86 # 25-35                                            3108800255  BUCARAMANGA         00000000                    CALLE 86 # 25-35                                            6339666                         00000000                    CALLE 86 # 25-35                                                                                                        3108800255  430128                                     
100013862209000002015BGA215118GOMEZ HERNANDEZ SERGIO ALBERTO               0201502012015113000400000000010109020150201022016013100000000000000000000                              11D 0001800000061526900000615269000000000000000061526900004212110010001006000000000002015113000000000COLEGIO LA SALLE. BUCARAMANGA BUCARAMANGA         00000000BUCARAMANGA         00000000                    CARRERA 29 # 10-24                                          65500917    BUCARAMANGA         00000000                    CARRERA 29 # 10-24                                          65500917    BUCARAMANGA         00000000                    CARRERA 29 # 10-24                                                                                                      65500917    430128                                     
1000635424990002015BGA215118C1BAUTISTA MEJIA PAOLA ANDREA                  0201502012015113001400000000010109020150201022016013100000000000000000000                              11D 0001800000061526900000615269000000000000000061526900004212110010001006000000000002015113000000000COLEGIO LA SALLE. BUCARAMANGA BUCARAMANGA         00000000BUCARAMANGA         00000000                    CALLE 51 # 23-95 APTO 14-03                                 6478888     BUCARAMANGA         00000000                    CALLE 51 # 23-95 APTO 14-03                                 6478888     BUCARAMANGA         00000000                    CALLE 51 # 23-95 APTO 14-03                                                                                             6478888     430128                                     
100091265414000002015BGA215142HERNANDEZ LOPEZ HELMAN JOSE                  0201502012015113000400000000011105020150201032016013100000000000000000000                              11A 0000000000061526900000000000000000000000000061526900000000000010009000000000000002015113000000000COLEGIO LA SALLE. BUCARAMANGA BUCARAMANGA         00000000FLORIDABLANCA       00000000                    CARRERA 24 # 35-191 TORRE 5 AP                              6395133     FLORIDABLANCA       00000000                    CARRERA 24 # 35-191 TORRE 5 AP                              6395133     FLORIDABLANCA       00000000                    CARRERA 24 # 35-191 TORRE 5 AP                                                                                          6395133     430128                                     
1000634327450002015BGA215142C1ZAMBRANO RINCON MARTA PATRICIA               0201502012015113001400000000011105020150201032016013100000000000000000000                              11A 0000000000061526900000000000000000000000000061526900000000000010009000000000000002015113000000000COLEGIO LA SALLE. BUCARAMANGA BUCARAMANGA         00000000FLORIDABLANCA       00000000                    CARRERA 24 # 35-191 TORRE 5 AP                              6395133     FLORIDABLANCA       00000000                    CARRERA 24 # 35-191 TORRE 5 AP                              6395133     FLORIDABLANCA       00000000                    CARRERA 24 # 35-191 TORRE 5 AP                                                                                          6395133     430128                                     
100037864225000002015BGA215144BARAJAS PRADA MARLENE                        0201502012015113000400000000011105020150201032016013100000000000000000000                              11A 0000000000061526900000000000000000000000000061526900000000000010007000000000000002015113000000000COLEGIO LA SALLE. BUCARAMANGA BUCARAMANGA         00000000BUCARAMANGA         00000000                    CALLE 61 # 9-23 TORE DON GUILL                              3186126385  BUCARAMANGA         00000000                    CALLE 61 # 9-23 TORE DON GUILL                              3186126385  BUCARAMANGA         00000000                    CALLE 61 # 9-23 TORE DON GUILL                                                                                          3186126385  430128                                     
100013513457000002015BGA211205SARMIENTO ARENAS JERSON GIOVANNY             0201502012015113000400000000010109020150201022016013100000000000000000000                              11D 0003000000061526900000615269000000000000000061526900006805244010000010000000000002015113000000000COLEGIO LA SALLE. BUCARAMANGA BUCARAMANGA         00000000BUCARAMANGA         00000000                    CARRERA 11C #23-20 CASA 21                                  6997040     BUCARAMANGA         00000000                    CARRERA 11C #23-20 CASA 21                                  6997040     BUCARAMANGA         00000000                    CARRERA 11C #23-20 CASA 21                                                                                              6997040     430128                                     
1000375464830002015BGA211205C1MARTINEZ CARDOZO LUZ DARY                    0201502012015113001400000000010109020150201022016013100000000000000000000                              11D 0003000000061526900000615269000000000000000061526900006805244010000010000000000002015113000000000COLEGIO LA SALLE. BUCARAMANGA BUCARAMANGA         00000000BUCARAMANGA         00000000                    CARRERA 11C #23-20 CASA 21                                  6427775     BUCARAMANGA         00000000                    CARRERA 11C #23-20 CASA 21                                  6427775     BUCARAMANGA         00000000                    CARRERA 11C #23-20 CASA 21                                                                                              6427775     430128                                     
100013841682000002015BGA208011BOTERO BOTERO CAMILO AUGUSTO                 0201502012015113000400000000010109020150201022016013100000000000000000000                              11D 0003000000061526900000615269000000000000000061526900006805244010000010000000000002015113000000000COLEGIO LA SALLE. BUCARAMANGA BUCARAMANGA         00000000BUCARAMANGA         00000000                    CARRERA 33 # 41-14  APT 301                                 6531312     BUCARAMANGA         00000000                    CARRERA 33 # 41-14  APT 301                                 6531312     BUCARAMANGA         00000000                    CARRERA 33 # 41-14  APT 301                                                                                             6531312     430128                                     
1000602559430002015BGA208011C1BOADA RIVERA SARA                            0201502012015113001400000000010109020150201022016013100000000000000000000                              11D 0003000000061526900000615269000000000000000061526900006805244010000010000000000002015113000000000COLEGIO LA SALLE. BUCARAMANGA BUCARAMANGA         00000000BUCARAMANGA         00000000                    CARRERA 33 # 41-14                                          6970692     BUCARAMANGA         00000000                    CARRERA 33 # 41-14                                          6970692     BUCARAMANGA         00000000                    CARRERA 33 # 41-14                                                                                                      6970692     430128                                     
100091257177000002015BGA215068GAITAN VILLALBA CARLOS AUGUSTO               0201502012015113000400000000011105020150201032016013100000000000000000000                              11A 0000000000061526900000000000000000000000000061526900000000000010007000000000000002015113000000000COLEGIO LA SALLE. BUCARAMANGA BUCARAMANGA         00000000BUCARAMANGA         00000000                    CALLE 15 # 14-80                                            3007796952  BUCARAMANGA         00000000                    CALLE 15 # 14-80                                            3007796952  BUCARAMANGA         00000000                    CALLE 15 # 14-80                                                                                                        3007796952  430128                                     
1000633401870002015BGA215068C1FONSECA MORALES MARIA TERESA                 0201502012015113001400000000011105020150201032016013100000000000000000000                              11A 0000000000061526900000000000000000000000000061526900000000000010007000000000000002015113000000000COLEGIO LA SALLE. BUCARAMANGA BUCARAMANGA         00000000BUCARAMANGA         00000000                    CLE. 63 # 3/22                                              6959632     BUCARAMANGA         00000000                    CLE. 63 # 3/22                                              6959632     BUCARAMANGA         00000000                    CLE. 63 # 3/22                                                                                                          6959632     430128                                     
100091477950000002015BGA213109GOMEZ ORTIZ YORGUIN                          0201502012015113000400000000010109020150201022016013100000000000000000000                              11D 0003000000061526900000615269000000000000000061526900006805244010000010000000000002015113000000000COLEGIO LA SALLE. BUCARAMANGA BUCARAMANGA         00000000FLORIDABLANCA       00000000                    CALLE 35 # 25-37                                            3156407822  FLORIDABLANCA       00000000                    CALLE 35 # 25-37                                            3156407822  FLORIDABLANCA       00000000                    CALLE 35 # 25-37                                                                                                        3156407822  430128                                     
1000375474120002015BGA213109C1TOSCANO PEREA NANCY CAROLINA                 0201502012015113001400000000010109020150201022016013100000000000000000000                              11D 0003000000061526900000615269000000000000000061526900006805244010000010000000000002015113000000000COLEGIO LA SALLE. BUCARAMANGA BUCARAMANGA         00000000BUCARAMANGA         00000000                    CALLE 42 N 27A78                                            3163077797  BUCARAMANGA         00000000                    CALLE 42 N 27A78                                            3163077797  BUCARAMANGA         00000000                    CALLE 42 N 27A78                                                                                                        3163077797  430128                                     
100091269069000002015BGA209045PALOMINO MENDOZA JUAN CARLOS                 0201502012015113000400000000011105020150201032016013100000000000000000000                              11A 0000000000061526900000000000000000000000000061526900000000000010003000000000000002015113000000000COLEGIO LA SALLE. BUCARAMANGA BUCARAMANGA         00000000GIRON               00000000                    CLL 11 N 27A-42                                             6805299     GIRON               00000000                    CLL 11 N 27A-42                                             6805299     GIRON               00000000                    CLL 11 N 27A-42                                                                                                         6805299     430128                                     
1000281548180002015BGA209045C1DIANA MILENA RUEDA RUEDA                     0201502012015113001400000000011105020150201032016013100000000000000000000                              11A 0000000000061526900000000000000000000000000061526900000000000010003000000000000002015113000000000COLEGIO LA SALLE. BUCARAMANGA BUCARAMANGA         00000000GIRON               00000000                    CALLE 11 #27A-42                                            3175387462  GIRON               00000000                    CALLE 11 #27A-42                                            3175387462  GIRON               00000000                    CALLE 11 #27A-42                                                                                                        3175387462  430128                                     
100037840890000002015BGA213130MORALES SALGADO ALICIA                       0201502012015113000400000000010109020150201022016013100000000000000000000                              11D 0002100000061526900000615269000000000000000061526900004625717010002007000000000002015113000000000COLEGIO LA SALLE. BUCARAMANGA BUCARAMANGA         00000000BUCARAMANGA         00000000                    CALLE 44 # 29A-12                                           6576205     BUCARAMANGA         00000000                    CALLE 44 # 29A-12                                           6576205     BUCARAMANGA         00000000                    CALLE 44 # 29A-12                                                                                                       6576205     430128                                     
100013822059000002015BGA215105BARRAGAN RUIZ ALFREDO                        0201502012015113000400000000011105020150201032016013100000000000000000000                              11A 0000000000055222900000000000000000000000000055222900000000000010008000000000000002015113000000000COLEGIO LA SALLE. BUCARAMANGA BUCARAMANGA         00000000BUCARAMANGA         00000000                    CRA 39 # 44/125 APTO 804 TORRE                              3176465241  BUCARAMANGA         00000000                    CRA 39 # 44/125 APTO 804 TORRE                              3176465241  BUCARAMANGA         00000000                    CRA 39 # 44/125 APTO 804 TORRE                                                                                          3176465241  430128                                     
1000668401490002015BGA215105C1ARCINIEGAS PEREZ SONIA YAMILE                0201502012015113001400000000011105020150201032016013100000000000000000000                              11A 0000000000055222900000000000000000000000000055222900000000000010008000000000000002015113000000000COLEGIO LA SALLE. BUCARAMANGA BUCARAMANGA         00000000BUCARAMANGA         00000000                    CRA 39 # 44/125 APTO 804 TORRE                              6454185     BUCARAMANGA         00000000                    CRA 39 # 44/125 APTO 804 TORRE                              6454185     BUCARAMANGA         00000000                    CRA 39 # 44/125 APTO 804 TORRE                                                                                          6454185     430128                                     
100063487110000002015BGA208239SARMIENTO RAMIREZ JOSEFINA ESTHER            0201502012015113000400000000010109020150201022016013100000000000000000000                              11D 0003000000055222900000552229000000000000000055222900006107984010000010000000000002015113000000000COLEGIO LA SALLE. BUCARAMANGA BUCARAMANGA         00000000BUCARAMANGA         00000000                    CRA 40 # 46-42 APTO 301                                     6413000     BUCARAMANGA         00000000                    CRA 40 # 46-42 APTO 301                                     6413000     BUCARAMANGA         00000000                    CRA 40 # 46-42 APTO 301                                                                                                 6413000     430128                                     
1000914857740002015BGA208239C1BUENO VARGAS JUAN CARLOS                     0201502012015113001400000000010109020150201022016013100000000000000000000                              11D 0003000000055222900000552229000000000000000055222900006107984010000010000000000002015113000000000COLEGIO LA SALLE. BUCARAMANGA BUCARAMANGA         00000000BUCARAMANGA         00000000                    CARRERA 40 # 46-42 APTO 301                                 6712374     BUCARAMANGA         00000000                    CARRERA 40 # 46-42 APTO 301                                 6712374     BUCARAMANGA         00000000                    CARRERA 40 # 46-42 APTO 301                                                                                             6712374     430128                                     
100037514090000002015BGA213044HERNANDEZ JAIMES NUBIA ESTHER                0201502012015113000400000000011105020150201032016013100000000000000000000                              11A 0000000000055222900000000000000000000000000055222900000000000010002000000000000002015113000000000COLEGIO LA SALLE. BUCARAMANGA BUCARAMANGA         00000000BUCARAMANGA         00000000                    CRA 3A #55/100 T1                                           6434444 EX  BUCARAMANGA         00000000                    CRA 3A #55/100 T1                                           6434444 EX  BUCARAMANGA         00000000                    CRA 3A #55/100 T1                                                                                                       6434444 EX  430128                                     
100063313258000002015BGA211011CELIS BUITRAGO ESPERANZA                     0201502012015113000400000000010109020150201022016013100000000000000000000                              11D 0003000000055222900000552229000000000000000055222900006107984010000010000000000002015113000000000COLEGIO LA SALLE. BUCARAMANGA BUCARAMANGA         00000000BUCARAMANGA         00000000                    CALLE 61 N 10 - 150 T 1 A 203                               6416688     BUCARAMANGA         00000000                    CALLE 61 N 10 - 150 T 1 A 203                               6416688     BUCARAMANGA         00000000                    CALLE 61 N 10 - 150 T 1 A 203                                                                                           6416688     430128                                     
1000912527900002015BGA211011C1LOZANO FUENTES ROBERTO                       0201502012015113001400000000010109020150201022016013100000000000000000000                              11D 0003000000055222900000552229000000000000000055222900006107984010000010000000000002015113000000000COLEGIO LA SALLE. BUCARAMANGA BUCARAMANGA         00000000BUCARAMANGA         00000000                    ZERRESUELA 1 APTO 609 TORRE 3                               6574635     BUCARAMANGA         00000000                    ZERRESUELA 1 APTO 609 TORRE 3                               6574635     BUCARAMANGA         00000000                    ZERRESUELA 1 APTO 609 TORRE 3                                                                                           6574635     430128                                     
100091203783000002015BGA208058TAPIAS JORGE OCTAVIO                         0201502012015113000400000000011105020150201032016013100000000000000000000                              11A 0000000000055222900000000000000000000000000055222900000000000010002000000000000002015113000000000COLEGIO LA SALLE. BUCARAMANGA BUCARAMANGA         00000000BUCARAMANGA         00000000                    CARRERA 46 N¯ 33 A 93                                       3158002544  BUCARAMANGA         00000000                    CARRERA 46 N¯ 33 A 93                                       3158002544  BUCARAMANGA         00000000                    CARRERA 46 N¯ 33 A 93                                                                                                   3158002544  430128                                     
100091259983000002015BGA209172CONTRERAS JAIMES OSCAR OMAR                  0201502012015113000400000000010109020150201022016013100000000000000000000                              11D 0003000000055222900000552229000000000000000055222900006107984010000010000000000002015113000000000COLEGIO LA SALLE. BUCARAMANGA BUCARAMANGA         00000000BUCARAMANGA         00000000                    CARRERA 17 # 98-03                                          6992692     BUCARAMANGA         00000000                    CARRERA 17 # 98-03                                          6992692     BUCARAMANGA         00000000                    CARRERA 17 # 98-03                                                                                                      6992692     430128                                     
100091230987000002015BGA213087HERNANDEZ NINO CARLOS SAUL                   0201502012015113000400000000010109020150201022016013100000000000000000000                              11C 0001800000055222900000552229000000000000000055222900003523277010003006000000000002015113000000000COLEGIO LA SALLE. BUCARAMANGA BUCARAMANGA         00000000BUCARAMANGA         00000000                    CALLE 31 # 29-18 APTO 1304                                  6358049     BUCARAMANGA         00000000                    CALLE 31 # 29-18 APTO 1304                                  6358049     BUCARAMANGA         00000000                    CALLE 31 # 29-18 APTO 1304                                                                                              6358049     430128                                     
1000633129860002015BGA213087C1MORENO VERA YOLANDA                          0201502012015113001400000000010109020150201022016013100000000000000000000                              11C 0001800000055222900000552229000000000000000055222900003523277010003006000000000002015113000000000COLEGIO LA SALLE. BUCARAMANGA BUCARAMANGA         00000000BUCARAMANGA         00000000                    CARRERA 21A # 105 20/22 TORRE                               6944006     BUCARAMANGA         00000000                    CARRERA 21A # 105 20/22 TORRE                               6944006     BUCARAMANGA         00000000                    CARRERA 21A # 105 20/22 TORRE                                                                                           6944006     430128                                     
100063556541000002015BGA213227CASTRO VANEGAS FALLON VANESSA                0201502012015113000400000000011105020150201032016013100000000000000000000                              11A 0000000000055222900000000000000000000000000055222900000000000010002000000000000002015113000000000COLEGIO LA SALLE. BUCARAMANGA BUCARAMANGA         00000000BUCARAMANGA         00000000                    CALLE 42 14-28                                              6895718     BUCARAMANGA         00000000                    CALLE 42 14-28                                              6895718     BUCARAMANGA         00000000                    CALLE 42 14-28                                                                                                          6895718     430128                                     
