HHHHHHHHHHHHHHHHHH4301284320161231M T0000000000000000N                                                                                                                                                                                                                                                                                                                                                                                                                                                                                                                                                                                                                                                                                                                                                                          
100091264194000002011BGA209199MANCILLA SUAREZ MAURICIO                     0201102012011113000400000000011105020110201032017013100000000000000000000                              11A 0000000000051000000000000000000000000000000051000000000000000010002000000000000002011113000000000COLEGIO LA SALLE. BUCARAMANGA BUCARAMANGA         00000000BUCARAMANGA         00000000                                                                                6485255     BUCARAMANGA         00000000                                                                                6485255     BUCARAMANGA         00000000                                                                                                                                            6485255     430128                                     
100091246612000002011BGA207224BUITRAGO BAUTISTA CARLOS ARTURO              0201104012011113000400000000010106020110401022017013100000000000000000000                              11A 0000300000046050000000460500000000000000000046050000000052686008000000000000000002011113000000000COLEGIO LA SALLE. BUCARAMANGA BUCARAMANGA         00000000BUCARAMANGA         00000000                    ACROPOLIS TORRE 1 APTO 905                                  6760613     BUCARAMANGA         00000000                    ACROPOLIS TORRE 1 APTO 905                                  6760613     BUCARAMANGA         00000000                    ACROPOLIS TORRE 1 APTO 905                                                                                              6760613     430128                                     
100091237228000002011BGA207206LOPEZ CELY PABLO JOSUê                       0201104012011113000400000000010109020110401022017013100000000000000000000                              11D 0002400000046050000000460500000000000000000046050000005077786008000008000000000002011113000000000COLEGIO LA SALLE. BUCARAMANGA BUCARAMANGA         00000000BUCARAMANGA         00000000                                                                                6432634     BUCARAMANGA         00000000                                                                                6432634     BUCARAMANGA         00000000                                                                                                                                            6432634     430128                                     
100091264194000002011BGA206017MANCILLA SUAREZ MAURICIO                     0201102012011113000400000000011105020110201032017013100000000000000000000                              11A 0000000000046050000000000000000000000000000046050000000000000010002000000000000002011113000000000COLEGIO LA SALLE. BUCARAMANGA BUCARAMANGA         00000000BUCARAMANGA         00000000                                                                                6485255     BUCARAMANGA         00000000                                                                                6485255     BUCARAMANGA         00000000                                                                                                                                            6485255     430128                                     
100017637396000002011BGA208231PERDOMO ARTUNDUAGA LUIS HERNAN               0201102012011113000400000000010106020110201022017013100000000000000000000                              11A 0000300000043300000000433000000000000000000043300000000003085010000000000000000002011113000000000COLEGIO LA SALLE. BUCARAMANGA BUCARAMANGA         00000000                    00000000                    CRA 9 # 5A-19                                                                               00000000                    CRA 9 # 5A-19                                                                               00000000                    CRA 9 # 5A-19                                                                                                                       430128                                     
100008720149000002011BGA205068DONADO RUIZ MARCO TULIO                      0201102012011113000400000000010109020110201022017013100000000000000000000                              11D 0003000000043300000000433000000000000000000043300000004771056010000010000000000002011113000000000COLEGIO LA SALLE. BUCARAMANGA BUCARAMANGA         00000000BUCARAMANGA         00000000                                                                                6340542     BUCARAMANGA         00000000                                                                                6340542     BUCARAMANGA         00000000                                                                                                                                            6340542     430128                                     
100005557128000002011BGA211157RUEDA ANAYA JORGE ENRIQUE                    0201102012011113000400000000010106020110201022017013100000000000000000000                              11A 0000300000043300000000433000000000000000000043300000000010514010002000000000000002011113000000000COLEGIO LA SALLE. BUCARAMANGA BUCARAMANGA         00000000BUCARAMANGA         00000000                    CALLE 104 E N¯ 8 B - 43                                                 BUCARAMANGA         00000000                    CALLE 104 E N¯ 8 B - 43                                                 BUCARAMANGA         00000000                    CALLE 104 E N¯ 8 B - 43                                                                                                             430128                                     
100013842404000002011BGA209056ALVAREZ OJEDA ALBERTO                        0201104012011113000400000000010109020110401022017013100000000000000000000                              11D 0002100000043300000000273000000000000000000043300000004616284008000008000000000002011113000000000COLEGIO LA SALLE. BUCARAMANGA BUCARAMANGA         00000000BUCARAMANGA         00000000                                                                                3143135838  BUCARAMANGA         00000000                                                                                3143135838  BUCARAMANGA         00000000                                                                                                                                            3143135838  430128                                     
100091204261000002011BGA202203MENDEZ JOSE ISRAEL                           0201102012011113000400000000010106020110201022017013100000000000000000000                              11A 0000300000043300000000433000000000000000000043300000000006365010000000000000000002011113000000000COLEGIO LA SALLE. BUCARAMANGA BUCARAMANGA         00000000BUCARAMANGA         00000000                                                                                6471925     BUCARAMANGA         00000000                                                                                6471925     BUCARAMANGA         00000000                                                                                                                                            6471925     430128                                     
100091237228000002011BGA204258LOPEZ CELY PABLO JOSUê                       0201104012011113000400000000010109020110401022017013100000000000000000000                              11D 0002400000043300000000433000000000000000000043300000004774553008000008000000000002011113000000000COLEGIO LA SALLE. BUCARAMANGA BUCARAMANGA         00000000BUCARAMANGA         00000000                                                                                6421828     BUCARAMANGA         00000000                                                                                6421828     BUCARAMANGA         00000000                                                                                                                                            6421828     430128                                     
100063512552000002012BGA210172CAMARGO MANTILLA NIDIA ELIZABETH             0201202012012113000400000000010107020120201022017013100000000000000000000                              11B 0000600000053880000000538800000000000000000053880000001475364010000003000000000002012113000000000COLEGIO LA SALLE. BUCARAMANGA BUCARAMANGA         00000000FLORIDABLANCA       00000000                    CIRCUNV. 36A # 104-25 APTO 201                              3175047438  FLORIDABLANCA       00000000                    CIRCUNV. 36A # 104-25 APTO 201                              3175047438  FLORIDABLANCA       00000000                    CIRCUNV. 36A # 104-25 APTO 201                                                                                          3175047438  430128                                     
100037932080000002012BGA211157TORRES RINCON LUCILA                         0201202012012113000400000000010109020120201022017013100000000000000000000                              11D 0001800000048580000000485800000000000000000048580000003250406010000006000000000002012113000000000COLEGIO LA SALLE. BUCARAMANGA BUCARAMANGA         00000000BUCARAMANGA         00000000                    DIAGONAL 105 # 104E-247                                     3175890913  BUCARAMANGA         00000000                    DIAGONAL 105 # 104E-247                                     3175890913  BUCARAMANGA         00000000                    DIAGONAL 105 # 104E-247                                                                                                 3175890913  430128                                     
1000055571280002012BGA211157C1RUEDA ANAYA JORGE ENRIQUE                    0201202012012113001400000000010109020120201022017013100000000000000000000                              11D 0001800000048580000000485800000000000000000048580000003250406010000006000000000002012113000000000COLEGIO LA SALLE. BUCARAMANGA BUCARAMANGA         00000000BUCARAMANGA         00000000                    DIAGONAL 105 # 104E-247                                                 BUCARAMANGA         00000000                    DIAGONAL 105 # 104E-247                                                 BUCARAMANGA         00000000                    DIAGONAL 105 # 104E-247                                                                                                             430128                                     
100052098631000002013BGA213141JIMENEZ VARGAS MONICA INES                   0201302012013113000400000000010109020130201022017013100000000000000000000                              11C 0001200000049990000000499900000000000000000049990000002201303010002004000000000002013113000000000COLEGIO LA SALLE. BUCARAMANGA BUCARAMANGA         00000000BUCARAMANGA         00000000                    CALLE 103 # 12A-03                                          6374853     BUCARAMANGA         00000000                    CALLE 103 # 12A-03                                          6374853     BUCARAMANGA         00000000                    CALLE 103 # 12A-03                                                                                                      6374853     430128                                     
100091493592000002013BGA213055ROJAS GRECCO JUAN CARLOS                     0201302012013113000400000000010109020130201022017013100000000000000000000                              11D 0002100000056290000000562900000000000000000056290000004220849010002007000000000002013113000000000COLEGIO LA SALLE. BUCARAMANGA BUCARAMANGA         00000000BUCARAMANGA         00000000                    CARRERA 35 # 35-23 APTO 402                                 3188275812  BUCARAMANGA         00000000                    CARRERA 35 # 35-23 APTO 402                                 3188275812  BUCARAMANGA         00000000                    CARRERA 35 # 35-23 APTO 402                                                                                             3188275812  430128                                     
1000376523040002013BGA213055C1PATI—O PATI—O NINI JOHANA                    0201302012013113001400000000010109020130201022017013100000000000000000000                              11D 0002100000056290000000562900000000000000000056290000004220849010002007000000000002013113000000000COLEGIO LA SALLE. BUCARAMANGA BUCARAMANGA         00000000BUCARAMANGA         00000000                    CARRERA 35 # 35-23 APTO 402                                 3138081424  BUCARAMANGA         00000000                    CARRERA 35 # 35-23 APTO 402                                 3138081424  BUCARAMANGA         00000000                    CARRERA 35 # 35-23 APTO 402                                                                                             3138081424  430128                                     
100013841682000002013BGA212102BOTERO BOTERO CAMILO AUGUSTO                 0201302012013113000400000000011105020130201032017013100000000000000000000                              11A 0000000000056290000000000000000000000000000056290000000000000010002000000000000002013113000000000COLEGIO LA SALLE. BUCARAMANGA BUCARAMANGA         00000000BUCARAMANGA         00000000                    CRA 33 #41-14                                               6531312     BUCARAMANGA         00000000                    CRA 33 #41-14                                               6531312     BUCARAMANGA         00000000                    CRA 33 #41-14                                                                                                           6531312     430128                                     
1000602559430002013BGA212102C1BOADA RIVERA SARA                            0201302012013113001400000000011105020130201032017013100000000000000000000                              11A 0000000000056290000000000000000000000000000056290000000000000010002000000000000002013113000000000COLEGIO LA SALLE. BUCARAMANGA BUCARAMANGA         00000000BUCARAMANGA         00000000                    CARRERA 33 # 41-14                                          6993278     BUCARAMANGA         00000000                    CARRERA 33 # 41-14                                          6993278     BUCARAMANGA         00000000                    CARRERA 33 # 41-14                                                                                                      6993278     430128                                     
100063516707000002013BGA211211CUADROS LEON LYDA MARCELA                    0201302012013113000400000000010106020130201022017013100000000000000000000                              11A 0000300000056030000000560300000000000000000056030000000565903010006001000000000002013113000000000COLEGIO LA SALLE. BUCARAMANGA BUCARAMANGA         00000000BUCARAMANGA         00000000                    CRA 13 # 65 - 32 BARRIO LA VIC                              6339015     BUCARAMANGA         00000000                    CRA 13 # 65 - 32 BARRIO LA VIC                              6339015     BUCARAMANGA         00000000                    CRA 13 # 65 - 32 BARRIO LA VIC                                                                                          6339015     430128                                     
100010057116000002013BGA213150VILA CASADO RAUL OMAR                        0201302012013113000400000000010106020130201022017013100000000000000000000                              11A 0000300000056030000000560300000000000000000000000000000612073010005002000000000002013113000000000COLEGIO LA SALLE. BUCARAMANGA BUCARAMANGA         00000000                    00000000                    CRA. 27 CALLE 9                                             6906663                         00000000                    CRA. 27 CALLE 9                                             6906663                         00000000                    CRA. 27 CALLE 9                                                                                                         6906663     430128                                     
1000379412200002013BGA213150C1PEREZ ANGARITA GLORIA MARTHA                 0201302012013113001400000000010106020130201022017013100000000000000000000                              11A 0000300000056030000000560300000000000000000000000000000612073010005002000000000002013113000000000COLEGIO LA SALLE. BUCARAMANGA BUCARAMANGA         00000000                    00000000                                                                                6906663                         00000000                                                                                6906663                         00000000                                                                                                                                            6906663     430128                                     
100063329091000002013BGA213160MONROY CASTELLANOS ADRIANA                   0201305012013113000400000000010106020130501022017013100000000000000000000                              11A 0000300000047505000000475050000000000000000047505000000479801007002001000000000002013113000000000COLEGIO LA SALLE. BUCARAMANGA BUCARAMANGA         00000000BUCARAMANGA         00000000                    CARRERA 41 # 41-48                                          6963364     BUCARAMANGA         00000000                    CARRERA 41 # 41-48                                          6963364     BUCARAMANGA         00000000                    CARRERA 41 # 41-48                                                                                                      6963364     430128                                     
100079520465000002013BGA213155RODRIGUEZ REYES CARLOS ARIEL                 0201302012013113000400000000010109020130201022017013100000000000000000000                              11C 0001200000047505000000475050000000000000000047505000002283137010000005000000000002013113000000000COLEGIO LA SALLE. BUCARAMANGA BUCARAMANGA         00000000BUCARAMANGA         00000000                                                                                6043953     BUCARAMANGA         00000000                                                                                6043953     BUCARAMANGA         00000000                                                                                                                                            6043953     430128                                     
100013871255000002014BGA213002RANGEL GOMEZ JESUS DARIO                     0201402012014113000400000000010109020140201022017013100000000000000000000                              11D 0002400000058540000000585400000000000000000000000000003333854010001008000000000002014113000000000COLEGIO LA SALLE. BUCARAMANGA BUCARAMANGA         00000000BUCARAMANGA         00000000                    CALLE 200 NO. 14-50                                         6900955     BUCARAMANGA         00000000                    CALLE 200 NO. 14-50                                         6900955     BUCARAMANGA         00000000                    CALLE 200 NO. 14-50                                                                                                     6900955     430128                                     
1000378628560002014BGA213002C1MENDOZA VALENCIA TATIANA MARCERLA            0201402012014113001400000000010109020140201022017013100000000000000000000                              11D 0002400000058540000000585400000000000000000000000000003333854010001008000000000002014113000000000COLEGIO LA SALLE. BUCARAMANGA BUCARAMANGA         00000000BUCARAMANGA         00000000                    CALLE 200 NO. 14-50                                         6900955     BUCARAMANGA         00000000                    CALLE 200 NO. 14-50                                         6900955     BUCARAMANGA         00000000                    CALLE 200 NO. 14-50                                                                                                     6900955     430128                                     
100091493592000002014BGA213055ROJAS GRECCO JUAN CARLOS                     0201402012014113000400000000010109020140201022017013100000000000000000000                              11D 0002400000058540000000585400000000000000000058540000005081857010002008000000000002014113000000000COLEGIO LA SALLE. BUCARAMANGA BUCARAMANGA         00000000BUCARAMANGA         00000000                    CARRERA 35 # 35-23 APTO 402                                 3188275812  BUCARAMANGA         00000000                    CARRERA 35 # 35-23 APTO 402                                 3188275812  BUCARAMANGA         00000000                    CARRERA 35 # 35-23 APTO 402                                                                                             3188275812  430128                                     
1000376523040002014BGA213055C1PATI—O PATI—O NINI JOHANA                    0201402012014113001400000000010109020140201022017013100000000000000000000                              11D 0002400000058540000000585400000000000000000058540000005081857010002008000000000002014113000000000COLEGIO LA SALLE. BUCARAMANGA BUCARAMANGA         00000000BUCARAMANGA         00000000                    CARRERA 35 # 35-23 APTO 402                                 3138081424  BUCARAMANGA         00000000                    CARRERA 35 # 35-23 APTO 402                                 3138081424  BUCARAMANGA         00000000                    CARRERA 35 # 35-23 APTO 402                                                                                             3138081424  430128                                     
100063463734000002014BGA210090SOSA PEDROZA ESTHER                          0201402012014113000400000000010109020140201022017013100000000000000000000                              11D 0003000000058540000000585400000000000000000058540000006478914010000010000000000002014113000000000COLEGIO LA SALLE. BUCARAMANGA BUCARAMANGA         00000000FLORIDABLANCA       00000000                    CALLE 35C # 22C-40                                          6392622     FLORIDABLANCA       00000000                    CALLE 35C # 22C-40                                          6392622     FLORIDABLANCA       00000000                    CALLE 35C # 22C-40                                                                                                      6392622     430128                                     
1000138332070002014BGA210090C1RUIZ DIAZ RICARDO                            0201402012014113001400000000010109020140201022017013100000000000000000000                              11D 0003000000058540000000585400000000000000000058540000006478914010000010000000000002014113000000000COLEGIO LA SALLE. BUCARAMANGA BUCARAMANGA         00000000FLORIDABLANCA       00000000                                                                                            FLORIDABLANCA       00000000                                                                                            FLORIDABLANCA       00000000                                                                                                                                                        430128                                     
100079239584000002014BGA208030RODRIGUEZ RUBEN DARIO                        0201402012014113000400000000010109020140201022017013100000000000000000000                              11D 0003000000052545000000525450000000000000000052545000005815418010000010000000000002014113000000000COLEGIO LA SALLE. BUCARAMANGA BUCARAMANGA         00000000BUCARAMANGA         00000000                    CARRERA 12#200-105 TORRE 4 APR                              6199932     BUCARAMANGA         00000000                    CARRERA 12#200-105 TORRE 4 APR                              6199932     BUCARAMANGA         00000000                    CARRERA 12#200-105 TORRE 4 APR                                                                                          6199932     430128                                     
1010190641420002014BGA208030C1RODRIGUEZ BRAVO CAROL ANDREA                 0201402012014113001400000000010109020140201022017013100000000000000000000                              11D 0003000000052545000000525450000000000000000052545000005815418010000010000000000002014113000000000COLEGIO LA SALLE. BUCARAMANGA BUCARAMANGA         00000000FLORIDABLANCA       00000000                    CARRERA 12#200-105 TORRE 4 APT                              3146829053                      00000000                    CARRERA 12#200-105 TORRE 4 APT                              6960280                         00000000                    CARRERA 12#200-105 TORRE 4 APT                                                                                          3146829053  430128                                     
100063463734000002014BGA211036SOSA PEDROZA ESTHER MAR÷A                    0201402012014113000400000000010109020140201022017013100000000000000000000                              11D 0003000000052545000000525450000000000000000052545000005815418010000010000000000002014113000000000COLEGIO LA SALLE. BUCARAMANGA BUCARAMANGA         00000000BUCARAMANGA         00000000                    CALLE 35C N 22C-40                                          6844917     BUCARAMANGA         00000000                    CALLE 35C N 22C-40                                          6844917     BUCARAMANGA         00000000                    CALLE 35C N 22C-40                                                                                                      6844917     430128                                     
1000138332070002014BGA211036C1RICARDO RUIZ DIAZ                            0201402012014113001400000000010109020140201022017013100000000000000000000                              11D 0003000000052545000000525450000000000000000052545000005815418010000010000000000002014113000000000COLEGIO LA SALLE. BUCARAMANGA BUCARAMANGA         00000000BUCARAMANGA         00000000                                                                                6996631-31  BUCARAMANGA         00000000                                                                                6996631-31  BUCARAMANGA         00000000                                                                                                                                            6996631-31  430128                                     
100005702019000002014BGA214054PATI—O SALVATIERRA LUIS ALBERTO              0201402012014113000400000000010108020140201022017013100000000000000000000                              11B 0000900000051480000000514800000000000000000051480000001592894010006003000000000002014113000000000COLEGIO LA SALLE. BUCARAMANGA BUCARAMANGA         00000000BUCARAMANGA         00000000                    CARRERA 39 # 48-67 APTO 1302                                0414+70574  BUCARAMANGA         00000000                    CARRERA 39 # 48-67 APTO 1302                                0414+70574  BUCARAMANGA         00000000                    CARRERA 39 # 48-67 APTO 1302                                                                                            0414+70574  430128                                     
1010986041960002014BGA214054C1PATI—O ACU—A KAREN JOHANA                    0201402012014113001400000000010108020140201022017013100000000000000000000                              11B 0000900000051480000000514800000000000000000051480000001592894010006003000000000002014113000000000COLEGIO LA SALLE. BUCARAMANGA BUCARAMANGA         00000000BUCARAMANGA         00000000                    CARRERA 39 # 48-67                                          3173677732  BUCARAMANGA         00000000                    CARRERA 39 # 48-67                                          3216997728                      00000000                    CARRERA 39 # 48-67                                                                                                      3173677732  430128                                     
100037706326000002014BGA213155AMAYA RINCON MARIA NANCY                     0201402012014113000400000000010109020140201022017013100000000000000000000                              11D 0003000000051480000000514800000000000000000051480000005697548010000010000000000002014113000000000COLEGIO LA SALLE. BUCARAMANGA BUCARAMANGA         00000000BUCARAMANGA         00000000                    AVENIDA 10 # 16-02                                          6927591     BUCARAMANGA         00000000                    AVENIDA 10 # 16-02                                          6927591     BUCARAMANGA         00000000                    AVENIDA 10 # 16-02                                                                                                      6927591     430128                                     
1000795204650002014BGA213155C1RODRIGUEZ REYES CARLOS ARIEL                 0201402012014113001400000000010109020140201022017013100000000000000000000                              11D 0003000000051480000000514800000000000000000051480000005697548010000010000000000002014113000000000COLEGIO LA SALLE. BUCARAMANGA BUCARAMANGA         00000000BUCARAMANGA         00000000                    AVENIDA 10 # 16-02                                          3188770289  BUCARAMANGA         00000000                    AVENIDA 10 # 16-02                                          3188770289  BUCARAMANGA         00000000                    AVENIDA 10 # 16-02                                                                                                      3188770289  430128                                     
100013513147000002015BGA214161MU—OZ ESPINOSA EDWIN WEST                    0201502012015113000400000000010109020150201022017013100000000000000000000                              11D 0003000000063142300000631423000000000000000063142300006983916010000010000000000002015113000000000COLEGIO LA SALLE. BUCARAMANGA BUCARAMANGA         00000000GIRON               00000000                    SAN JORGE II CASA F8                                        6700684     GIRON               00000000                    SAN JORGE II CASA F8                                        6700684     GIRON               00000000                    SAN JORGE II CASA F8                                                                                                    6700684     430128                                     
100091479853000002015BGA214014CONTRERAS SANDOVAL OSCAR ALBERTO             0201502012015113000400000000010109020150201022017013100000000000000000000                              11D 0003000000063142300000631423000000000000000063142300006983916010000010000000000002015113000000000COLEGIO LA SALLE. BUCARAMANGA BUCARAMANGA         00000000FLORIDABLANCA       00000000                    CALLE 5 # 13-99                                             6800991     FLORIDABLANCA       00000000                    CALLE 5 # 13-99                                             6800991     FLORIDABLANCA       00000000                    CALLE 5 # 13-99                                                                                                         6800991     430128                                     
1000635559740002015BGA214014C1CABRERA RUBIO ERIKA JOHANNA                  0201502012015113001400000000010109020150201022017013100000000000000000000                              11D 0003000000063142300000631423000000000000000063142300006983916010000010000000000002015113000000000COLEGIO LA SALLE. BUCARAMANGA BUCARAMANGA         00000000FLORIDABLANCA       00000000                    CALLE 5 # 13-99                                             3176440005  FLORIDABLANCA       00000000                    CALLE 5 # 13-99                                             3176440005  FLORIDABLANCA       00000000                    CALLE 5 # 13-99                                                                                                         3176440005  430128                                     
100013513457000002015BGA211204SARMIENTO ARENAS JERSON GIOVANNY             0201502012015113000400000000010109020150201022017013100000000000000000000                              11D 0003000000061526900000615269000000000000000061526900006805244010000010000000000002015113000000000COLEGIO LA SALLE. BUCARAMANGA BUCARAMANGA         00000000BUCARAMANGA         00000000                    CARRERA 11C # 23C-20 CASA 21                                6997040     BUCARAMANGA         00000000                    CARRERA 11C # 23C-20 CASA 21                                6997040     BUCARAMANGA         00000000                    CARRERA 11C # 23C-20 CASA 21                                                                                            6997040     430128                                     
1000375464830002015BGA211204C1MARTINEZ CARDOZO LUZ DARY                    0201502012015113001400000000010109020150201022017013100000000000000000000                              11D 0003000000061526900000615269000000000000000061526900006805244010000010000000000002015113000000000COLEGIO LA SALLE. BUCARAMANGA BUCARAMANGA         00000000BUCARAMANGA         00000000                    CALLE 16 NO 24-46                                           6711914     BUCARAMANGA         00000000                    CALLE 16 NO 24-46                                           6711914     BUCARAMANGA         00000000                    CALLE 16 NO 24-46                                                                                                       6711914     430128                                     
100091479853000002015BGA214034CONTRERAS SANDOVAL OSCAR ALBERTO             0201502012015113000400000000010109020150201022017013100000000000000000000                              11D 0003000000061526900000615269000000000000000061526900006805244010000010000000000002015113000000000COLEGIO LA SALLE. BUCARAMANGA BUCARAMANGA         00000000FLORIDABLANCA       00000000                    CALLE 5 # 13-99                                             6800991     FLORIDABLANCA       00000000                    CALLE 5 # 13-99                                             6800991     FLORIDABLANCA       00000000                    CALLE 5 # 13-99                                                                                                         6800991     430128                                     
1000635559740002015BGA214034C1CABRERA RUBIO ERIKA JOHANNA                  0201502012015113001400000000010109020150201022017013100000000000000000000                              11D 0003000000061526900000615269000000000000000061526900006805244010000010000000000002015113000000000COLEGIO LA SALLE. BUCARAMANGA BUCARAMANGA         00000000FLORIDABLANCA       00000000                    CALLE 5 # 13-99                                             6185766     FLORIDABLANCA       00000000                    CALLE 5 # 13-99                                             6185766     FLORIDABLANCA       00000000                    CALLE 5 # 13-99                                                                                                         6185766     430128                                     
100013841682000002015BGA212102BOTERO BOTERO CAMILO AUGUSTO                 0201502012015113000400000000011105020150201032017013100000000000000000000                              11A 0000000000061526900000000000000000000000000061526900000000000010002000000000000002015113000000000COLEGIO LA SALLE. BUCARAMANGA BUCARAMANGA         00000000BUCARAMANGA         00000000                    CRA 33 #41-14                                               3223614111  BUCARAMANGA         00000000                    CRA 33 #41-14                                               3223614111  BUCARAMANGA         00000000                    CRA 33 #41-14                                                                                                           3223614111  430128                                     
1000602559430002015BGA212102C1BOADA RIVERA SARA                            0201502012015113001400000000011105020150201032017013100000000000000000000                              11A 0000000000061526900000000000000000000000000061526900000000000010002000000000000002015113000000000COLEGIO LA SALLE. BUCARAMANGA BUCARAMANGA         00000000BUCARAMANGA         00000000                    CARRERA 33 # 41-14                                          6970692EX4  BUCARAMANGA         00000000                    CARRERA 33 # 41-14                                          6970692EX4  BUCARAMANGA         00000000                    CARRERA 33 # 41-14                                                                                                      6970692EX4  430128                                     
100013513147000002015BGA214162MU—OZ ESPINOSA EDWIN WEST                    0201502012015113000400000000010109020150201022017013100000000000000000000                              11C 0001200000061526900000615269000000000000000061526900002564502010001004000000000002015113000000000COLEGIO LA SALLE. BUCARAMANGA BUCARAMANGA         00000000GIRON               00000000                    SAN JORGE II CASA F8                                        6700684     GIRON               00000000                    SAN JORGE II CASA F8                                        6700684     GIRON               00000000                    SAN JORGE II CASA F8                                                                                                    6700684     430128                                     
100037862332000002015BGA214168LOPEZ PABON OLGA PATRICIA                    0201502012015113000400000000010109020150201022017013100000000000000000000                              11C 0001500000061526900000615269000000000000000061526900003344954010000005000000000002015113000000000COLEGIO LA SALLE. BUCARAMANGA BUCARAMANGA         00000000BUCARAMANGA         00000000                    CALLE 94 # 47-76 CASA 55 SANTA                              3004601732  BUCARAMANGA         00000000                    CALLE 94 # 47-76 CASA 55 SANTA                              3004601732  BUCARAMANGA         00000000                    CALLE 94 # 47-76 CASA 55 SANTA                                                                                          3004601732  430128                                     
1000798277910002015BGA214168C1SANCHEZ GARCIA CESAR AUGUSTO                 0201502012015113001400000000010109020150201022017013100000000000000000000                              11C 0001500000061526900000615269000000000000000061526900003344954010000005000000000002015113000000000COLEGIO LA SALLE. BUCARAMANGA BUCARAMANGA         00000000BUCARAMANGA         00000000                    CALLE 94 # 47-76 CASA 55 SANTA                              3106748337  BUCARAMANGA         00000000                    CALLE 94 # 47-76 CASA 55 SANTA                              3106748337  BUCARAMANGA         00000000                    CALLE 94 # 47-76 CASA 55 SANTA                                                                                          3106748337  430128                                     
100037748164000002015BGA211162DUARTE LINA MARCELA                          0201502012015113000400000000010106020150201022017013100000000000000000000                              11A 0000300000061526900000615269000000000000000061526900000621422010009001000000000002015113000000000COLEGIO LA SALLE. BUCARAMANGA BUCARAMANGA         00000000BUCARAMANGA         00000000                    CALLE 68B # 10D-101                                         6833244     BUCARAMANGA         00000000                    CALLE 68B # 10D-101                                         6833244     BUCARAMANGA         00000000                    CALLE 68B # 10D-101                                                                                                     6833244     430128                                     
100013862209000002015BGA215118GOMEZ HERNANDEZ SERGIO ALBERTO               0201502012015113000400000000010109020150201022017013100000000000000000000                              11D 0001800000061526900000615269000000000000000061526900004212110010001006000000000002015113000000000COLEGIO LA SALLE. BUCARAMANGA BUCARAMANGA         00000000BUCARAMANGA         00000000                    CARRERA 29 # 10-24                                          65500917    BUCARAMANGA         00000000                    CARRERA 29 # 10-24                                          65500917    BUCARAMANGA         00000000                    CARRERA 29 # 10-24                                                                                                      65500917    430128                                     
1000635424990002015BGA215118C1BAUTISTA MEJIA PAOLA ANDREA                  0201502012015113001400000000010109020150201022017013100000000000000000000                              11D 0001800000061526900000615269000000000000000061526900004212110010001006000000000002015113000000000COLEGIO LA SALLE. BUCARAMANGA BUCARAMANGA         00000000BUCARAMANGA         00000000                    CALLE 51 # 23-95 APTO 14-03                                 6478888     BUCARAMANGA         00000000                    CALLE 51 # 23-95 APTO 14-03                                 6478888     BUCARAMANGA         00000000                    CALLE 51 # 23-95 APTO 14-03                                                                                             6478888     430128                                     
100013513457000002015BGA211205SARMIENTO ARENAS JERSON GIOVANNY             0201502012015113000400000000010109020150201022017013100000000000000000000                              11C 0001200000061526900000615269000000000000000061526900002934170010000004000000000002015113000000000COLEGIO LA SALLE. BUCARAMANGA BUCARAMANGA         00000000BUCARAMANGA         00000000                    CARRERA 11C #23-20 CASA 21                                  6997040     BUCARAMANGA         00000000                    CARRERA 11C #23-20 CASA 21                                  6997040     BUCARAMANGA         00000000                    CARRERA 11C #23-20 CASA 21                                                                                              6997040     430128                                     
1000375464830002015BGA211205C1MARTINEZ CARDOZO LUZ DARY                    0201502012015113001400000000010109020150201022017013100000000000000000000                              11C 0001200000061526900000615269000000000000000061526900002934170010000004000000000002015113000000000COLEGIO LA SALLE. BUCARAMANGA BUCARAMANGA         00000000BUCARAMANGA         00000000                    CARRERA 11C #23-20 CASA 21                                  6427775     BUCARAMANGA         00000000                    CARRERA 11C #23-20 CASA 21                                  6427775     BUCARAMANGA         00000000                    CARRERA 11C #23-20 CASA 21                                                                                              6427775     430128                                     
100013841682000002015BGA208011BOTERO BOTERO CAMILO AUGUSTO                 0201502012015113000400000000011105020150201032017013100000000000000000000                              11A 0000000000061526900000000000000000000000000061526900000000000010002000000000000002015113000000000COLEGIO LA SALLE. BUCARAMANGA BUCARAMANGA         00000000BUCARAMANGA         00000000                    CARRERA 33 # 41-14  APT 301                                 6531312     BUCARAMANGA         00000000                    CARRERA 33 # 41-14  APT 301                                 6531312     BUCARAMANGA         00000000                    CARRERA 33 # 41-14  APT 301                                                                                             6531312     430128                                     
1000602559430002015BGA208011C1BOADA RIVERA SARA                            0201502012015113001400000000011105020150201032017013100000000000000000000                              11A 0000000000061526900000000000000000000000000061526900000000000010002000000000000002015113000000000COLEGIO LA SALLE. BUCARAMANGA BUCARAMANGA         00000000BUCARAMANGA         00000000                    CARRERA 33 # 41-14                                          6970692     BUCARAMANGA         00000000                    CARRERA 33 # 41-14                                          6970692     BUCARAMANGA         00000000                    CARRERA 33 # 41-14                                                                                                      6970692     430128                                     
100063487110000002015BGA208239SARMIENTO RAMIREZ JOSEFINA ESTHER            0201502012015113000400000000010109020150201022017013100000000000000000000                              11D 0003000000055222900000552229000000000000000055222900006107984010000010000000000002015113000000000COLEGIO LA SALLE. BUCARAMANGA BUCARAMANGA         00000000BUCARAMANGA         00000000                    CRA 40 # 46-42 APTO 301                                     6413000     BUCARAMANGA         00000000                    CRA 40 # 46-42 APTO 301                                     6413000     BUCARAMANGA         00000000                    CRA 40 # 46-42 APTO 301                                                                                                 6413000     430128                                     
1000914857740002015BGA208239C1BUENO VARGAS JUAN CARLOS                     0201502012015113001400000000010109020150201022017013100000000000000000000                              11D 0003000000055222900000552229000000000000000055222900006107984010000010000000000002015113000000000COLEGIO LA SALLE. BUCARAMANGA BUCARAMANGA         00000000BUCARAMANGA         00000000                    CARRERA 40 # 46-42 APTO 301                                 6712374     BUCARAMANGA         00000000                    CARRERA 40 # 46-42 APTO 301                                 6712374     BUCARAMANGA         00000000                    CARRERA 40 # 46-42 APTO 301                                                                                             6712374     430128                                     
100091259983000002015BGA209172CONTRERAS JAIMES OSCAR OMAR                  0201502012015113000400000000010109020150201022017013100000000000000000000                              11D 0003000000055222900000552229000000000000000055222900006107984010000010000000000002015113000000000COLEGIO LA SALLE. BUCARAMANGA BUCARAMANGA         00000000BUCARAMANGA         00000000                    CARRERA 17 # 98-03                                          6992692     BUCARAMANGA         00000000                    CARRERA 17 # 98-03                                          6992692     BUCARAMANGA         00000000                    CARRERA 17 # 98-03                                                                                                      6992692     430128                                     
100035260869000002015BGA215147CASTANEDA SANCHEZ ADRIANA PAOLA              0201502012015113000400000000010109020150201022017013100000000000000000000                              11D 0002100000055222900000552229000000000000000000000000001920871010001008000000000002015113000000000COLEGIO LA SALLE. BUCARAMANGA BUCARAMANGA         00000000VILLAVICENCIO       00000000                    MONTERREY                                                   3138990977  VILLAVICENCIO       00000000                    MONTERREY                                                   3138990977  VILLAVICENCIO       00000000                    MONTERREY                                                                                                               3138990977  430128                                     
100013881391000002015BGA211178SOLIS CARPINTERO ADALBERTO                   0201502012015113000400000000010109020150201022017013100000000000000000000                              11D 0002400000054107700000541077000000000000000054107700004695304010001008000000000002015113000000000COLEGIO LA SALLE. BUCARAMANGA BUCARAMANGA         00000000BUCARAMANGA         00000000                    CARRERA 29 No. 66-18                                                    BUCARAMANGA         00000000                    CARRERA 29 No. 66-18                                                    BUCARAMANGA         00000000                    CARRERA 29 No. 66-18                                                                                                                430128                                     
1000379274140002015BGA211178C1PACHECO BOLIVAR PRUDENCIA                    0201502012015113001400000000010109020150201022017013100000000000000000000                              11D 0002400000054107700000541077000000000000000054107700004695304010001008000000000002015113000000000COLEGIO LA SALLE. BUCARAMANGA BUCARAMANGA         00000000BUCARAMANGA         00000000                    CARRERA 29 No. 66-18                                        6475643     BUCARAMANGA         00000000                    CARRERA 29 No. 66-18                                        6475643     BUCARAMANGA         00000000                    CARRERA 29 No. 66-18                                                                                                    6475643     430128                                     
100043616012000002015BGA212168RIVERA GUZMAN CLAUDIA ALEXANDRA              0201502012015113000400000000010109020150201022017013100000000000000000000                              11D 0003000000054107700000541077000000000000000054107700005984637010000010000000000002015113000000000COLEGIO LA SALLE. BUCARAMANGA BUCARAMANGA         00000000BUCARAMANGA         00000000                    CARRERA 38A # 46-47 APTO 402                                6956770     BUCARAMANGA         00000000                    CARRERA 38A # 46-47 APTO 402                                6956770     BUCARAMANGA         00000000                    CARRERA 38A # 46-47 APTO 402                                                                                            6956770     430128                                     
100063298140000002015BGA212158NARI;O DUARTE LUZ AMPARO                     0201502012015113000400000000010109020150201022017013100000000000000000000                              11D 0002400000054107700000541077000000000000000054107700004695304010002008000000000002015113000000000COLEGIO LA SALLE. BUCARAMANGA BUCARAMANGA         00000000BUCARAMANGA         00000000                    CALLE 56 # 28-77                                            6041753     BUCARAMANGA         00000000                    CALLE 56 # 28-77                                            6041753     BUCARAMANGA         00000000                    CALLE 56 # 28-77                                                                                                        6041753     430128                                     
100013860759000002016BGA216058MONSALVE CABALLERO LUIS CARLOS               0201602012016113000400000000011105020160201032017013100000000000000000000                              11A 0000000000068876700000000000000000000000000068876700000000000010006000000000000002016113000000000COLEGIO LA SALLE. BUCARAMANGA BUCARAMANGA         00000000BUCARAMNAGA         00000000                    CARRERA 28 # 44-41                                          6578202     BUCARAMNAGA         00000000                    CARRERA 28 # 44-41                                          6578202     BUCARAMNAGA         00000000                    CARRERA 28 # 44-41                                                                                                      6578202     430128                                     
1000635516580002016BGA216058C1ESTUPI—AN CALDERON ANGIE CAROLINA            0201602012016113001400000000011105020160201032017013100000000000000000000                              11A 0000000000068876700000000000000000000000000068876700000000000010006000000000000002016113000000000COLEGIO LA SALLE. BUCARAMANGA BUCARAMANGA         00000000BUCARAMNAGA         00000000                    CARRERA 28 # 44-41                                          6578202     BUCARAMNAGA         00000000                    CARRERA 28 # 44-41                                          6578202     BUCARAMNAGA         00000000                    CARRERA 28 # 44-41                                                                                                      6578202     430128                                     
100091268051000002016BGA216145FLOREZ LEON CESAR HERNANDO                   0201608012016113000400000000010106020160801022017013100000000000000000000                              11A 0000300000068876700000688767000000000000000068876700000695655004003001000000000002016113000000000COLEGIO LA SALLE. BUCARAMANGA BUCARAMANGA         00000000BUCARAMANGA         00000000                    CALLE 99 # 19-07                                            3143600178  BUCARAMANGA         00000000                    CALLE 99 # 19-07                                            3143600178  BUCARAMANGA         00000000                    CALLE 99 # 19-07                                                                                                        3143600178  430128                                     
1000912680510002016BGA216145C1FLOREZ LEON CESAR HERNANDO                   0201608012016113001400000000010106020160801022017013100000000000000000000                              11A 0000300000068876700000688767000000000000000068876700000695655004003001000000000002016113000000000COLEGIO LA SALLE. BUCARAMANGA BUCARAMANGA         00000000BUCARAMANGA         00000000                    CALLE 99 # 19-07                                            3143600178  BUCARAMANGA         00000000                    CALLE 99 # 19-07                                            3143600178  BUCARAMANGA         00000000                    CALLE 99 # 19-07                                                                                                        3143600178  430128                                     
101095919147000002016BGA215078RUEDA MORENO LINA MARITZA                    0201602012016113000400000000011105020160201032017013100000000000000000000                              11A 0000000000067676400000000000000000000000000067676400000000000010004000000000000002016113000000000COLEGIO LA SALLE. BUCARAMANGA BUCARAMANGA         00000000BUCARAMANGA         00000000                    CALLE 20 # 30-27 APTO 1502                                  6571515NA   BUCARAMANGA         00000000                    CALLE 20 # 30-27 APTO 1502                                  6571515NA   BUCARAMANGA         00000000                    CALLE 20 # 30-27 APTO 1502                                                                                              6571515NA   430128                                     
1000915413780002016BGA215078C1CARRERO HERNANDEZ SEBASTIAN                  0201602012016113001400000000011105020160201032017013100000000000000000000                              11A 0000000000067676400000000000000000000000000067676400000000000010004000000000000002016113000000000COLEGIO LA SALLE. BUCARAMANGA BUCARAMANGA         00000000BUCARAMANGA         00000000                    CALLE 20 # 30-27 APTO 1502                                  3007701907  BUCARAMANGA         00000000                    CALLE 20 # 30-27 APTO 1502                                  3007701907  BUCARAMANGA         00000000                    CALLE 20 # 30-27 APTO 1502                                                                                              3007701907  430128                                     
100063485171000002016BGA215043ARGUELLO MARTINEZ LIDA MARCELA               0201602012016113000400000000011105020160201032017013100000000000000000000                              11A 0000000000067676400000000000000000000000000067676400000000000010006000000000000002016113000000000COLEGIO LA SALLE. BUCARAMANGA BUCARAMANGA         00000000LEBRIJA             00000000                    CRA 10 # 13/23                                              6566343     LEBRIJA             00000000                    CRA 10 # 13/23                                              6566343     LEBRIJA             00000000                    CRA 10 # 13/23                                                                                                          6566343     430128                                     
1000634851710002016BGA215043C1ARGUELLO MARTINEZ LIDA MARCELA               0201602012016113001400000000011105020160201032017013100000000000000000000                              11A 0000000000067676400000000000000000000000000067676400000000000010006000000000000002016113000000000COLEGIO LA SALLE. BUCARAMANGA BUCARAMANGA         00000000LEBRIJA             00000000                    CRA 10 # 13/23                                              6566343     LEBRIJA             00000000                    CRA 10 # 13/23                                              6566343     LEBRIJA             00000000                    CRA 10 # 13/23                                                                                                          6566343     430128                                     
100063288047000002016BGA216118REYES BOHORQUEZ ESPERANZA                    0201602012016113000400000000010109020160201022017013100000000000000000000                              11D 0002400000067676400000676764000000000000000067676400005911263010002008000000000002016113000000000COLEGIO LA SALLE. BUCARAMANGA BUCARAMANGA         00000000BUCARAMANGA         00000000                    CALLE 8A NO 24-47                                           6457359     BUCARAMANGA         00000000                    CALLE 8A NO 24-47                                           6320220 E2                      00000000                    CALLE 8A NO 24-47                                                                                                       6457359     430128                                     
100013516182000002016BGA216055LEON CAMELO HELIO ERNESTO                    0201602012016113000400000000010106020160201022017013100000000000000000000                              11A 0000300000067676400000676764000000000000000067676400000683532010007001000000000002016113000000000COLEGIO LA SALLE. BUCARAMANGA BUCARAMANGA         00000000BUCARAMAGA          00000000                    CALLE 110 N 21-32                                           6448167     BUCARAMAGA          00000000                    CALLE 110 N 21-32                                           6448167     BUCARAMAGA          00000000                    CALLE 110 N 21-32                                                                                                       6448167     430128                                     
1000497159260002016BGA216055C1DUARTE BARRANCO LAUDITH                      0201602012016113001400000000010106020160201022017013100000000000000000000                              11A 0000300000067676400000676764000000000000000067676400000683532010007001000000000002016113000000000COLEGIO LA SALLE. BUCARAMANGA BUCARAMANGA         00000000BUCARAMAGA          00000000                    CALLE 110 N 21-32                                                       BUCARAMAGA          00000000                    CALLE 110 N 21-32                                                       BUCARAMAGA          00000000                    CALLE 110 N 21-32                                                                                                                   430128                                     
100063544843000002016BGA216121NAVARRO VERA DANIELLY                        0201607012016113000400000000010109020160701022017013100000000000000000000                              11C 0001500000067676400000676764000000000000000067676400007314059005000005000000000002016113000000000COLEGIO LA SALLE. BUCARAMANGA BUCARAMANGA         00000000BUCARAMANGA         00000000                    CRA 15 E NO 105-75 APTO 1003                                6039410     BUCARAMANGA         00000000                    CRA 15 E NO 105-75 APTO 1003                                6039410     BUCARAMANGA         00000000                    CRA 15 E NO 105-75 APTO 1003                                                                                            6039410     430128                                     
100037932080000002016BGA214135TORRES RINCON LUCILA                         0201602012016113000400000000010109020160201022017013100000000000000000000                              11C 0001200000067031800000670318000000000000000067031800003734881010000005000000000002016113000000000COLEGIO LA SALLE. BUCARAMANGA BUCARAMANGA         00000000BUCARAMANGA         00000000                    CRA 38A N/ 204/102                                          3172441806  BUCARAMANGA         00000000                    CRA 38A N/ 204/102                                          3172441806  BUCARAMANGA         00000000                    CRA 38A N/ 204/102                                                                                                      3172441806  430128                                     
100091479853000002016BGA214014CONTRERAS SANDOVAL OSCAR ALBERTO             0201603012016113000400000000010109020160301022017013100000000000000000000                              11D 0002700000067031800000670318000000000000000067031800006655119009000009000000000002016113000000000COLEGIO LA SALLE. BUCARAMANGA BUCARAMANGA         00000000FLORIDABLANCA       00000000                    CALLE 5 # 13-99                                             6800991     FLORIDABLANCA       00000000                    CALLE 5 # 13-99                                             6800991     FLORIDABLANCA       00000000                    CALLE 5 # 13-99                                                                                                         6800991     430128                                     
100013860759000002016BGA212089MONSALVE CABALLERO LUIS CARLOS               0201602012016113000400000000011105020160201032017013100000000000000000000                              11A 0000000000067031800000000000000000000000000067031800000000000010007000000000000002016113000000000COLEGIO LA SALLE. BUCARAMANGA BUCARAMANGA         00000000BUCARAMANGA         00000000                    CRA 28 NO. 44-41 APTO 502                                   6914277     BUCARAMANGA         00000000                    CRA 28 NO. 44-41 APTO 502                                   6914277     BUCARAMANGA         00000000                    CRA 28 NO. 44-41 APTO 502                                                                                               6914277     430128                                     
1000635516580002016BGA212089C1ESTUPI—AN CALDERON ANGIE CAROLINA            0201602012016113001400000000011105020160201032017013100000000000000000000                              11A 0000000000067031800000000000000000000000000067031800000000000010007000000000000002016113000000000COLEGIO LA SALLE. BUCARAMANGA BUCARAMANGA         00000000BUCARAMANGA         00000000                    CARRERA 28 NO.44-41 APTO 502                                6574949     BUCARAMANGA         00000000                    CARRERA 28 NO.44-41 APTO 502                                6574949     BUCARAMANGA         00000000                    CARRERA 28 NO.44-41 APTO 502                                                                                            6574949     430128                                     
100013513147000002016BGA214161MU—OZ ESPINOSA EDWIN WEST                    0201604012016113000400000000010109020160401022017013100000000000000000000                              11D 0002400000067031800000670318000000000000000067031800005854959008000008000000000002016113000000000COLEGIO LA SALLE. BUCARAMANGA BUCARAMANGA         00000000GIRON               00000000                    SAN JORGE II CASA F8                                        6700684     GIRON               00000000                    SAN JORGE II CASA F8                                        6700684     GIRON               00000000                    SAN JORGE II CASA F8                                                                                                    6700684     430128                                     
101098610613000002016BGA214018ESTUPI—AN MATEUS LEIDY TATIANA               0201602012016113000400000000011105020160201032017013100000000000000000000                              11A 0000000000067031800000000000000000000000000050273800000000000010004000000000000002016113000000000COLEGIO LA SALLE. BUCARAMANGA BUCARAMANGA         00000000FLORIDABLANCA       00000000                    CR 32 N 110-10                                              6337000     FLORIDABLANCA       00000000                    CR 32 N 110-10                                              6337000     FLORIDABLANCA       00000000                    CR 32 N 110-10                                                                                                          6337000     430128                                     
100091274742000002016BGA214030ROJAS VARGAS LUIS ALBERTO                    0201602012016113000400000000010109020160201022017013100000000000000000000                              11C 0001200000067031800000670318000000000000000067031800003519319010000005000000000002016113000000000COLEGIO LA SALLE. BUCARAMANGA BUCARAMANGA         00000000BUCARAMANGA         00000000                    CARRERA 35 # 92-170 TORRE 1 AP                              3152249689  BUCARAMANGA         00000000                    CARRERA 35 # 92-170 TORRE 1 AP                              3152249689  BUCARAMANGA         00000000                    CARRERA 35 # 92-170 TORRE 1 AP                                                                                          3152249689  430128                                     
1000377536680002016BGA214030C1DUARTE VARGAS MARCELA                        0201602012016113001400000000010109020160201022017013100000000000000000000                              11C 0001200000067031800000670318000000000000000067031800003519319010000005000000000002016113000000000COLEGIO LA SALLE. BUCARAMANGA BUCARAMANGA         00000000BUCARAMANGA         00000000                    CARRERA 35 # 92-170                                         3152908500  BUCARAMANGA         00000000                    CARRERA 35 # 92-170                                         3152908500  BUCARAMANGA         00000000                    CARRERA 35 # 92-170                                                                                                     3152908500  430128                                     
100037893103000002016BGA214205NINO PINTO RUFINA                            0201604012016113000400000000011105020160401032017013100000000000000000000                              11A 0000000000067031800000000000000000000000000000000000000000000008002000000000000002016113000000000COLEGIO LA SALLE. BUCARAMANGA BUCARAMANGA         00000000BUCARAMANGA         00000000                    PLAZA MAYOR ENTRADA 11 APTO 50                              3132591231  BUCARAMANGA         00000000                    PLAZA MAYOR ENTRADA 11 APTO 50                              3132591231  BUCARAMANGA         00000000                    PLAZA MAYOR ENTRADA 11 APTO 50                                                                                          3132591231  430128                                     
101085036834000002016BGA216045ANGULO GOMEZ EDSON YESID                     0201602012016113000400000000010109020160201022017013100000000000000000000                              11C 0001200000067031800000670318000000000000000067031800002803404010002004000000000002016113000000000COLEGIO LA SALLE. BUCARAMANGA BUCARAMANGA         00000000BUCARAMANGA         00000000                    CALLE 3 # 20A-80                                            3135990282  BUCARAMANGA         00000000                    CALLE 3 # 20A-80                                            3135990282  BUCARAMANGA         00000000                    CALLE 3 # 20A-80                                                                                                        3135990282  430128                                     
1010986340110002016BGA216045C1SANABRIA SANABRIA ADRIANA ROCIO              0201602012016113001400000000010109020160201022017013100000000000000000000                              11C 0001200000067031800000670318000000000000000067031800002803404010002004000000000002016113000000000COLEGIO LA SALLE. BUCARAMANGA BUCARAMANGA         00000000BUCARAMANGA         00000000                    CARRERA 24 # 80-52 APTO 501 TO                              3103449272  BUCARAMANGA         00000000                    CARRERA 24 # 80-52 APTO 501 TO                              3103449272  BUCARAMANGA         00000000                    CARRERA 24 # 80-52 APTO 501 TO                                                                                          3103449272  430128                                     
100013543754000002016BGA213140BELLO SANCHEZ MAXIMINO                       0201602012016113000400000000010107020160201022017013100000000000000000000                              11B 0000600000067031800000670318000000000000000067031800001370130010002002000000000002016113000000000COLEGIO LA SALLE. BUCARAMANGA BUCARAMANGA         00000000BUCARAMANGA         00000000                    CLL 103 13-31                                               6375265     BUCARAMANGA         00000000                    CLL 103 13-31                                               6375265     BUCARAMANGA         00000000                    CLL 103 13-31                                                                                                           6375265     430128                                     
1010986693820002016BGA213140C1RINCON CAMUAN ROSA RUBIELA                   0201602012016113001400000000010107020160201022017013100000000000000000000                              11B 0000600000067031800000670318000000000000000067031800001370130010002002000000000002016113000000000COLEGIO LA SALLE. BUCARAMANGA BUCARAMANGA         00000000BUCARAMANGA         00000000                    CLL 103 13-31                                               6375265     BUCARAMANGA         00000000                    CLL 103 13-31                                               6375265     BUCARAMANGA         00000000                    CLL 103 13-31                                                                                                           6375265     430128                                     
100091179711000002016BGA214022TORRES LESMES CESAR AUGUSTO                  0201602012016113000400000000010109020160201022017013100000000000000000000                              11D 0003000000067031800000670318000000000000000067031800007469624010000010000000000002016113000000000COLEGIO LA SALLE. BUCARAMANGA BUCARAMANGA         00000000BUCARAMANGA         00000000                    CALLE REAL # 5-24 CASA 19                                   3153802794  BUCARAMANGA         00000000                    CALLE REAL # 5-24 CASA 19                                   3153802794  BUCARAMANGA         00000000                    CALLE REAL # 5-24 CASA 19                                                                                               3153802794  430128                                     
1000634860370002016BGA214022C1REBOLLEDO AGON ISABEL CRISTINA               0201602012016113001400000000010109020160201022017013100000000000000000000                              11D 0003000000067031800000670318000000000000000067031800007469624010000010000000000002016113000000000COLEGIO LA SALLE. BUCARAMANGA BUCARAMANGA         00000000BUCARAMANGA         00000000                    CALLE REAL # 5-24 CASA 19 CHIC                              3152064852  BUCARAMANGA         00000000                    CALLE REAL # 5-24 CASA 19 CHIC                              3152064852  BUCARAMANGA         00000000                    CALLE REAL # 5-24 CASA 19 CHIC                                                                                          3152064852  430128                                     
100079733047000002016BGA211192CAMACHO LOPEZ ANDRES MAURICIO                0201602012016113000400000000011105020160201032017013100000000000000000000                              11A 0000000000065317000000000000000000000000000065317000000000000010005000000000000002016113000000000COLEGIO LA SALLE. BUCARAMANGA BUCARAMANGA         00000000BUCARAMANGA         00000000                    AVENIDA CIRCUNVALAR 36A # 104-                              6432801     BUCARAMANGA         00000000                    AVENIDA CIRCUNVALAR 36A # 104-                              6432801     BUCARAMANGA         00000000                    AVENIDA CIRCUNVALAR 36A # 104-                                                                                          6432801     430128                                     
1000635325870002016BGA211192C1JARAMILLO MAFFIOLD DIANA                     0201602012016113001400000000011105020160201032017013100000000000000000000                              11A 0000000000065317000000000000000000000000000065317000000000000010005000000000000002016113000000000COLEGIO LA SALLE. BUCARAMANGA BUCARAMANGA         00000000BUCARAMANGA         00000000                    AVENIDA CIRCUNVALAR 36A # 104-                              3012878122  BUCARAMANGA         00000000                    AVENIDA CIRCUNVALAR 36A # 104-                              3012878122  BUCARAMANGA         00000000                    AVENIDA CIRCUNVALAR 36A # 104-                                                                                          3012878122  430128                                     
100052699895000002016BGA212037VARGAS GARCIA JANETH YAMILE                  0201602012016113000400000000011105020160201032017013100000000000000000000                              11A 0000000000065317000000000000000000000000000065317000000000000010006000000000000002016113000000000COLEGIO LA SALLE. BUCARAMANGA BUCARAMANGA         00000000BUCARAMANGA         00000000                    CRA. 56 # 74-191 CASA G-16                                  3208039564  BUCARAMANGA         00000000                    CRA. 56 # 74-191 CASA G-16                                  3208039564  BUCARAMANGA         00000000                    CRA. 56 # 74-191 CASA G-16                                                                                              3208039564  430128                                     
100013513457000002016BGA211204SARMIENTO ARENAS JERSON GIOVANNY             0201602012016113000400000000011105020160201032017013100000000000000000000                              11A 0000000000065317000000000000000000000000000065317000000000000010007000000000000002016113000000000COLEGIO LA SALLE. BUCARAMANGA BUCARAMANGA         00000000BUCARAMANGA         00000000                    CARRERA 11C # 23C-20 CASA 21                                6997040     BUCARAMANGA         00000000                    CARRERA 11C # 23C-20 CASA 21                                6997040     BUCARAMANGA         00000000                    CARRERA 11C # 23C-20 CASA 21                                                                                            6997040     430128                                     
1000375464830002016BGA211204C1MARTINEZ CARDOZO LUZ DARY                    0201602012016113001400000000011105020160201032017013100000000000000000000                              11A 0000000000065317000000000000000000000000000065317000000000000010007000000000000002016113000000000COLEGIO LA SALLE. BUCARAMANGA BUCARAMANGA         00000000BUCARAMANGA         00000000                    CALLE 16 NO 24-46                                           6711914     BUCARAMANGA         00000000                    CALLE 16 NO 24-46                                           6711914     BUCARAMANGA         00000000                    CALLE 16 NO 24-46                                                                                                       6711914     430128                                     
100017849364000002016BGA211191CAMACHO MORA CAMPO ANIBAL                    0201602012016113000400000000010109020160201022017013100000000000000000000                              11D 0001800000065317000000653170000000000000000065317000004628415010002007000000000002016113000000000COLEGIO LA SALLE. BUCARAMANGA BUCARAMANGA         00000000FLORIDABLANCA       00000000                    CALLE 200 N 12-152VERSALLES CA                              3102064821  FLORIDABLANCA       00000000                    CALLE 200 N 12-152VERSALLES CA                              3102064821  FLORIDABLANCA       00000000                    CALLE 200 N 12-152VERSALLES CA                                                                                          3102064821  430128                                     
1000523900050002016BGA211191C1RODRIGUEZ SOUZA ROSALIDA                     0201602012016113001400000000010109020160201022017013100000000000000000000                              11D 0001800000065317000000653170000000000000000065317000004628415010002007000000000002016113000000000COLEGIO LA SALLE. BUCARAMANGA BUCARAMANGA         00000000FLORIDABLANCA       00000000                    CALLE 200 N 12-152                                          3102064830  FLORIDABLANCA       00000000                    CALLE 200 N 12-152                                          3102064830  FLORIDABLANCA       00000000                    CALLE 200 N 12-152                                                                                                      3102064830  430128                                     
100013747495000002016BGA215032HERNANDEZ MARTINEZ OSCAR                     0201602012016113000400000000010106020160201022017013100000000000000000000                              11A 0000300000065317000000653170000000000000000065317000000659702010006001000000000002016113000000000COLEGIO LA SALLE. BUCARAMANGA BUCARAMANGA         00000000FLORIDABLANCA       00000000                    CARRERA 23 # 33-22 TORRE 1 APT                              3102039080  FLORIDABLANCA       00000000                    CARRERA 23 # 33-22 TORRE 1 APT                              3102039080  FLORIDABLANCA       00000000                    CARRERA 23 # 33-22 TORRE 1 APT                                                                                          3102039080  430128                                     
1000635250030002016BGA215032C1RIVERA HERNANDEZ OLGA YOLANDA                0201602012016113001400000000010106020160201022017013100000000000000000000                              11A 0000300000065317000000653170000000000000000065317000000659702010006001000000000002016113000000000COLEGIO LA SALLE. BUCARAMANGA BUCARAMANGA         00000000FLORIDABLANCA       00000000                    CALLE 106 # 37-34                                           6973221     FLORIDABLANCA       00000000                    CALLE 106 # 37-34                                           6973221     FLORIDABLANCA       00000000                    CALLE 106 # 37-34                                                                                                       6973221     430128                                     
100037514935000002016BGA213068PEREZ AMAYA ALEXANDRA                        0201602012016113000400000000011105020160201032017013100000000000000000000                              11A 0000000000065317000000000000000000000000000065317000000000000010003000000000000002016113000000000COLEGIO LA SALLE. BUCARAMANGA BUCARAMANGA         00000000BUCARAMANGA         00000000                    CALLE 36 # 33-44 APTO 302                                   6915460     BUCARAMANGA         00000000                    CALLE 36 # 33-44 APTO 302                                   6915460     BUCARAMANGA         00000000                    CALLE 36 # 33-44 APTO 302                                                                                               6915460     430128                                     
1000375149350002016BGA213068C1PEREZ AMAYA ALEXANDRA                        0201602012016113001400000000011105020160201032017013100000000000000000000                              11A 0000000000065317000000000000000000000000000065317000000000000010003000000000000002016113000000000COLEGIO LA SALLE. BUCARAMANGA BUCARAMANGA         00000000BUCARAMANGA         00000000                    CALLE 36 # 33-44 APTO 302                                   6915460     BUCARAMANGA         00000000                    CALLE 36 # 33-44 APTO 302                                   6915460     BUCARAMANGA         00000000                    CALLE 36 # 33-44 APTO 302                                                                                               6915460     430128                                     
100091269069000002016BGA212045PALOMINO MENDOZA JUAN CARLOS                 0201602012016113000400000000010109020160201022017013100000000000000000000                              11D 0003000000065317000000653170000000000000000065317000007278535010000010000000000002016113000000000COLEGIO LA SALLE. BUCARAMANGA BUCARAMANGA         00000000GIRON               00000000                    CARRERA 27A # 10 A 50                                       6464343     GIRON               00000000                    CARRERA 27A # 10 A 50                                       6464343     GIRON               00000000                    CARRERA 27A # 10 A 50                                                                                                   6464343     430128                                     
1000281548180002016BGA212045C1RUEDA RUEDA DIANA MILENA                     0201602012016113001400000000010109020160201022017013100000000000000000000                              11D 0003000000065317000000653170000000000000000065317000007278535010000010000000000002016113000000000COLEGIO LA SALLE. BUCARAMANGA BUCARAMANGA         00000000GIRON               00000000                    CALLE 11 # 27A-42                                           6805299     GIRON               00000000                    CALLE 11 # 27A-42                                           6805299     GIRON               00000000                    CALLE 11 # 27A-42                                                                                                       6805299     430128                                     
100091181156000002016BGA211167RONCANCIO PINZON OSCAR                       0201602012016113000400000000011105020160201032017013100000000000000000000                              11A 0000000000065317000000000000000000000000000065317000000000000010004000000000000002016113000000000COLEGIO LA SALLE. BUCARAMANGA BUCARAMANGA         00000000PIEDECUESTA         00000000                    PINARES CASA 23 D                                           3134330980  PIEDECUESTA         00000000                    PINARES CASA 23 D                                           3134330980  PIEDECUESTA         00000000                    PINARES CASA 23 D                                                                                                       3134330980  430128                                     
1000633463270002016BGA211167C1NEIRA RUEDA MARIA NELLY                      0201602012016113001400000000011105020160201032017013100000000000000000000                              11A 0000000000065317000000000000000000000000000065317000000000000010004000000000000002016113000000000COLEGIO LA SALLE. BUCARAMANGA BUCARAMANGA         00000000PIEDECUESTA         00000000                    NUEVO PINARES CASA 15                                       6896515     PIEDECUESTA         00000000                    NUEVO PINARES CASA 15                                       6896515     PIEDECUESTA         00000000                    NUEVO PINARES CASA 15                                                                                                   6896515     430128                                     
100091749853000002016BGA214034CONTRESRAS SANDOVAL OSCAR ALBERTO            0201603012016113000400000000010109020160301022017013100000000000000000000                              11D 0002700000065317000000653170000000000000000065317000006484868009000009000000000002016113000000000COLEGIO LA SALLE. BUCARAMANGA BUCARAMANGA         00000000FLORIDABLANCA       00000000                    CALLE 5 NO 13-99                                            6394452     BUCARAMANGA         00000000                    CALLE 5 NO 13-99                                            6192811                         00000000                    CALLE 5 NO 13-99                                                                                                        6394452     430128                                     
100063544843000002016BGA216122NAVARRO VERA DANIELLY                        0201603012016113000400000000010109020160301022017013100000000000000000000                              11D 0002700000065317000000653170000000000000000065317000007264557009000009000000000002016113000000000COLEGIO LA SALLE. BUCARAMANGA BUCARAMANGA         00000000BUCARAMANGA         00000000                    CRA 15E NO 105-75                                           6039410     BUCARAMANGA         00000000                    CRA 15E NO 105-75                                           6039410     BUCARAMANGA         00000000                    CRA 15E NO 105-75                                                                                                       6039410     430128                                     
100063556541000002016BGA213226CASTRO VANEGAS FALLON VANESSA                0201603012016113000400000000010109020160301022017013100000000000000000000                              11D 0002700000065317000000653170000000000000000065317000007264473009000009000000000002016113000000000COLEGIO LA SALLE. BUCARAMANGA BUCARAMANGA         00000000BUCARMANGA          00000000                    CALLE 42 14-28                                              6895718     BUCARMANGA          00000000                    CALLE 42 14-28                                              6895718     BUCARMANGA          00000000                    CALLE 42 14-28                                                                                                          6895718     430128                                     
100079877754000002016BGA213037FRANCO ESCOBAR FABIAN ERNESTO                0201602012016113000400000000010109020160201022017013100000000000000000000                              11D 0002400000065317000000653170000000000000000065317000005886534010000008000000000002016113000000000COLEGIO LA SALLE. BUCARAMANGA BUCARAMANGA         00000000BUCARAMANGA         00000000                    CARRERA 68B # 68A-30                                        2366459     BUCARAMANGA         00000000                    CARRERA 68B # 68A-30                                        2366459     BUCARAMANGA         00000000                    CARRERA 68B # 68A-30                                                                                                    2366459     430128                                     
1000527172860002016BGA213037C1RODRIGUEZ MARTINEZ KAREN SLENY               0201602012016113001400000000010109020160201022017013100000000000000000000                              11D 0002400000065317000000653170000000000000000065317000005886534010000008000000000002016113000000000COLEGIO LA SALLE. BUCARAMANGA BUCARAMANGA         00000000BUCARAMANGA         00000000                    CALLE 69 NO 27-13                                           3105583775  BUCARAMANGA         00000000                    CALLE 69 NO 27-13                                           3105583775  BUCARAMANGA         00000000                    CALLE 69 NO 27-13                                                                                                       3105583775  430128                                     
100091474914000002016BGA214113VELASQUEZ CASTA—EDA RUBEN ALBERTO            0201602012016113000400000000010106020160201022017013100000000000000000000                              11A 0000300000065317000000653170000000000000000065317000000659702010005001000000000002016113000000000COLEGIO LA SALLE. BUCARAMANGA BUCARAMANGA         00000000BUCARAMANGA         00000000                    TORRES DE SAN SEBASTIAN T2 APT                              6522222EXT  BUCARAMANGA         00000000                    TORRES DE SAN SEBASTIAN T2 APT                              6522222EXT  BUCARAMANGA         00000000                    TORRES DE SAN SEBASTIAN T2 APT                                                                                          6522222EXT  430128                                     
1000375495780002016BGA214113C1CARRE—O RODRIGUEZ KAREN PAOLA                0201602012016113001400000000010106020160201022017013100000000000000000000                              11A 0000300000065317000000653170000000000000000065317000000659702010005001000000000002016113000000000COLEGIO LA SALLE. BUCARAMANGA BUCARAMANGA         00000000BUCARAMANGA         00000000                    TORRES DE SAN SEBASTIAN T2 APT                              3203355796  BUCARAMANGA         00000000                    TORRES DE SAN SEBASTIAN T2 APT                              3203355796  BUCARAMANGA         00000000                    TORRES DE SAN SEBASTIAN T2 APT                                                                                          3203355796  430128                                     
100013513147000002016BGA214162MU—OZ ESPINOSA EDWIN WEST                    0201604012016113000400000000010109020160401022017013100000000000000000000                              11D 0002400000065317000000653170000000000000000065317000005705180008000008000000000002016113000000000COLEGIO LA SALLE. BUCARAMANGA BUCARAMANGA         00000000GIRON               00000000                    SAN JORGE II CASA F8                                        6700684     GIRON               00000000                    SAN JORGE II CASA F8                                        6700684     GIRON               00000000                    SAN JORGE II CASA F8                                                                                                    6700684     430128                                     
100013841682000002016BGA212102BOTERO BOTERO CAMILO AUGUSTO                 0201602012016113000400000000010109020160201022017013100000000000000000000                              11D 0002400000065317000000653170000000000000000065317000005919965010000008000000000002016113000000000COLEGIO LA SALLE. BUCARAMANGA BUCARAMANGA         00000000BUCARAMANGA         00000000                    CRA 33 #41-14                                               3223614111  BUCARAMANGA         00000000                    CRA 33 #41-14                                               3223614111  BUCARAMANGA         00000000                    CRA 33 #41-14                                                                                                           3223614111  430128                                     
1000602559430002016BGA212102C1BOADA RIVERA SARA                            0201602012016113001400000000010109020160201022017013100000000000000000000                              11D 0002400000065317000000653170000000000000000065317000005919965010000008000000000002016113000000000COLEGIO LA SALLE. BUCARAMANGA BUCARAMANGA         00000000BUCARAMANGA         00000000                    CARRERA 33 # 41-14                                          6970692EX4  BUCARAMANGA         00000000                    CARRERA 33 # 41-14                                          6970692EX4  BUCARAMANGA         00000000                    CARRERA 33 # 41-14                                                                                                      6970692EX4  430128                                     
100063516707000002016BGA211212CUADROS LEON LYDA MARCELA                    0201602012016113000400000000010109020160201022017013100000000000000000000                              11D 0002100000065317000000653170000000000000000065317000004939664010002007000000000002016113000000000COLEGIO LA SALLE. BUCARAMANGA BUCARAMANGA         00000000BUCARAMANGA         00000000                    CRA 13 # 65-32 BARRIO LA VICTO                              6338058     BUCARAMANGA         00000000                    CRA 13 # 65-32 BARRIO LA VICTO                              6338058     BUCARAMANGA         00000000                    CRA 13 # 65-32 BARRIO LA VICTO                                                                                          6338058     430128                                     
100091465902000002016BGA211177GUTIERRES BELTRAN WILSON                     0201602012016113000400000000010106020160201022017013100000000000000000000                              11A 0000300000065317000000653170000000000000000065317000000659702010007001000000000002016113000000000COLEGIO LA SALLE. BUCARAMANGA BUCARAMANGA         00000000BUCARAMANGA         00000000                    CALLE 45 # 26-05                                            6474757     BUCARAMANGA         00000000                    CALLE 45 # 26-05                                            6474757     BUCARAMANGA         00000000                    CALLE 45 # 26-05                                                                                                        6474757     430128                                     
1000635096040002016BGA211177C1PORRAS VACA MARTHA LUCIA                     0201602012016113001400000000010106020160201022017013100000000000000000000                              11A 0000300000065317000000653170000000000000000065317000000659702010007001000000000002016113000000000COLEGIO LA SALLE. BUCARAMANGA BUCARAMANGA         00000000BUCARAMANGA         00000000                    CARRERA 17#65-105 APTO 401                                  6807903     BUCARAMANGA         00000000                    CARRERA 17#65-105 APTO 401                                  6807903     BUCARAMANGA         00000000                    CARRERA 17#65-105 APTO 401                                                                                              6807903     430128                                     
100072225092000002016BGA216024SAAVEDRA MERCADO ERWIN JHON                  0201602012016113000400000000011105020160201032017013100000000000000000000                              11A 0000000000065317000000000000000000000000000065317000000000000010005000000000000002016113000000000COLEGIO LA SALLE. BUCARAMANGA BUCARAMANGA         00000000BUCARAMANGA         00000000                    CALLE 42 N 35-26 OF 101                                     6909907     BUCARAMANGA         00000000                    CALLE 42 N 35-26 OF 101                                     6909907     BUCARAMANGA         00000000                    CALLE 42 N 35-26 OF 101                                                                                                 6909907     430128                                     
1000377205020002016BGA216024C1TRIANA CEDIEL OMAIRA PATRICIA                0201602012016113001400000000011105020160201032017013100000000000000000000                              11A 0000000000065317000000000000000000000000000065317000000000000010005000000000000002016113000000000COLEGIO LA SALLE. BUCARAMANGA BUCARAMANGA         00000000BUCARAMANGA         00000000                    CALLE 55 N 7W-44                                            6909907     BUCARAMANGA         00000000                    CALLE 55 N 7W-44                                            6909907     BUCARAMANGA         00000000                    CALLE 55 N 7W-44                                                                                                        6909907     430128                                     
100052901813000002016BGA216125ALDANA GOMEZ MAGDA GISELLA                   0201602012016113000400000000010109020160201022017013100000000000000000000                              11D 0003000000065317000000653170000000000000000065317000007278535010000010000000000002016113000000000COLEGIO LA SALLE. BUCARAMANGA BUCARAMANGA         00000000BUCARAMANGA         00000000                    AV BUCAROS NO 60-262                                        6411698     BUCARAMANGA         00000000                    AV BUCAROS NO 60-262                                        6411698     BUCARAMANGA         00000000                    AV BUCAROS NO 60-262                                                                                                    6411698     430128                                     
100063516707000002016BGA211211CUADROS LEON LYDA MARCELA                    0201602012016113000400000000010109020160201022017013100000000000000000000                              11D 0002100000065317000000653170000000000000000065317000004939664010002007000000000002016113000000000COLEGIO LA SALLE. BUCARAMANGA BUCARAMANGA         00000000BUCARAMANGA         00000000                    CRA 13 # 65 - 32 BARRIO LA VIC                              3102101984  BUCARAMANGA         00000000                    CRA 13 # 65 - 32 BARRIO LA VIC                              3102101984  BUCARAMANGA         00000000                    CRA 13 # 65 - 32 BARRIO LA VIC                                                                                          3102101984  430128                                     
